{"contracts/Jammy.sol":{"Jammy":{"abi":[{"inputs":[{"internalType":"address","name":"_vrfCoordinator","type":"address"},{"internalType":"bytes32","name":"_keyhash","type":"bytes32"},{"internalType":"uint256","name":"_subscriptionId","type":"uint256"},{"internalType":"uint32","name":"_callbackGasLimit","type":"uint32"},{"internalType":"uint256","name":"_team1Shares","type":"uint256"},{"internalType":"uint256","name":"_team2Shares","type":"uint256"},{"internalType":"address","name":"_team1Address","type":"address"},{"internalType":"address","name":"_team2Address","type":"address"}],"stateMutability":"nonpayable","type":"constructor"},{"inputs":[],"name":"AlreadyInWinnersList","type":"error"},{"inputs":[],"name":"AlreadyJoined","type":"error"},{"inputs":[],"name":"AlreadyRefunded","type":"error"},{"inputs":[],"name":"CardDoesNotWin","type":"error"},{"inputs":[],"name":"CardNotFound","type":"error"},{"inputs":[],"name":"CardNotReady","type":"error"},{"inputs":[],"name":"CardsSoldOut","type":"error"},{"inputs":[],"name":"CatchFire","type":"error"},{"inputs":[],"name":"GameAlreadyStarted","type":"error"},{"inputs":[],"name":"InputValidation","type":"error"},{"inputs":[],"name":"NoCardFound","type":"error"},{"inputs":[],"name":"NothingToRefund","type":"error"},{"inputs":[{"internalType":"address","name":"have","type":"address"},{"internalType":"address","name":"want","type":"address"}],"name":"OnlyCoordinatorCanFulfill","type":"error"},{"inputs":[{"internalType":"address","name":"have","type":"address"},{"internalType":"address","name":"owner","type":"address"},{"internalType":"address","name":"coordinator","type":"address"}],"name":"OnlyOwnerOrCoordinator","type":"error"},{"inputs":[],"name":"PendingSeed","type":"error"},{"inputs":[],"name":"PrizeAlreadyClaimed","type":"error"},{"inputs":[],"name":"PrizeAlreadyWon","type":"error"},{"inputs":[{"internalType":"uint256","name":"reqId","type":"uint256"}],"name":"ReqNotFound","type":"error"},{"inputs":[],"name":"TransferFailed","type":"error"},{"inputs":[],"name":"Unauthorized","type":"error"},{"inputs":[],"name":"UnknownRequest","type":"error"},{"inputs":[],"name":"WrongAmount","type":"error"},{"inputs":[],"name":"WrongGameStatus","type":"error"},{"inputs":[],"name":"WrongPayment","type":"error"},{"inputs":[],"name":"ZeroAddress","type":"error"},{"anonymous":false,"inputs":[{"indexed":false,"internalType":"address","name":"account","type":"address"},{"indexed":false,"internalType":"bool","name":"state","type":"bool"}],"name":"AdminSet","type":"event"},{"anonymous":false,"inputs":[{"indexed":false,"internalType":"uint256","name":"gameId","type":"uint256"},{"indexed":false,"internalType":"address","name":"player","type":"address"},{"indexed":false,"internalType":"uint256","name":"playerCardIndex","type":"uint256"}],"name":"CardRedrawn","type":"event"},{"anonymous":false,"inputs":[{"indexed":false,"internalType":"uint256","name":"amount","type":"uint256"},{"indexed":false,"internalType":"uint256","name":"newCount","type":"uint256"}],"name":"CardsAdded","type":"event"},{"anonymous":false,"inputs":[{"indexed":false,"internalType":"uint256","name":"amount","type":"uint256"}],"name":"CardsUpdated","type":"event"},{"anonymous":false,"inputs":[{"indexed":false,"internalType":"address","name":"vrfCoordinator","type":"address"}],"name":"CoordinatorSet","type":"event"},{"anonymous":false,"inputs":[{"indexed":false,"internalType":"uint256","name":"gameId","type":"uint256"}],"name":"GameCancelled","type":"event"},{"anonymous":false,"inputs":[{"indexed":true,"internalType":"address","name":"host","type":"address"},{"indexed":false,"internalType":"uint256","name":"gameId","type":"uint256"},{"indexed":false,"internalType":"uint256","name":"startDate","type":"uint256"},{"indexed":false,"internalType":"uint256","name":"maxCardsPerPlayer","type":"uint256"},{"indexed":false,"internalType":"uint256","name":"cardPrice","type":"uint256"}],"name":"GameCreated","type":"event"},{"anonymous":false,"inputs":[{"indexed":false,"internalType":"uint256","name":"gameId","type":"uint256"}],"name":"GameEnds","type":"event"},{"anonymous":false,"inputs":[{"indexed":false,"internalType":"uint256","name":"gameId","type":"uint256"}],"name":"GameStarted","type":"event"},{"anonymous":false,"inputs":[{"indexed":false,"internalType":"address","name":"account","type":"address"},{"indexed":false,"internalType":"bool","name":"state","type":"bool"}],"name":"HostSet","type":"event"},{"anonymous":false,"inputs":[{"indexed":false,"internalType":"uint256","name":"gameId","type":"uint256"},{"indexed":false,"internalType":"uint8","name":"revealedNum","type":"uint8"}],"name":"NumberRevealed","type":"event"},{"anonymous":false,"inputs":[{"indexed":true,"internalType":"address","name":"from","type":"address"},{"indexed":true,"internalType":"address","name":"to","type":"address"}],"name":"OwnershipTransferRequested","type":"event"},{"anonymous":false,"inputs":[{"indexed":true,"internalType":"address","name":"from","type":"address"},{"indexed":true,"internalType":"address","name":"to","type":"address"}],"name":"OwnershipTransferred","type":"event"},{"anonymous":false,"inputs":[{"indexed":false,"internalType":"uint256","name":"gameId","type":"uint256"},{"indexed":false,"internalType":"address","name":"player","type":"address"},{"indexed":false,"internalType":"uint256","name":"cardsCount","type":"uint256"}],"name":"PlayerJoined","type":"event"},{"anonymous":false,"inputs":[{"indexed":false,"internalType":"uint256","name":"gameId","type":"uint256"},{"indexed":false,"internalType":"uint256","name":"totalAmount","type":"uint256"}],"name":"PrizeCollected","type":"event"},{"anonymous":false,"inputs":[{"indexed":false,"internalType":"uint256","name":"gameId","type":"uint256"},{"indexed":false,"internalType":"uint256","name":"prizeIndex","type":"uint256"},{"indexed":false,"internalType":"address","name":"winner","type":"address"},{"indexed":false,"internalType":"uint256","name":"winnerCard","type":"uint256"}],"name":"PrizeWon","type":"event"},{"anonymous":false,"inputs":[{"indexed":true,"internalType":"uint256","name":"gameId","type":"uint256"},{"indexed":true,"internalType":"address","name":"account","type":"address"},{"indexed":false,"internalType":"uint256","name":"amount","type":"uint256"}],"name":"RefundSent","type":"event"},{"anonymous":false,"inputs":[{"indexed":false,"internalType":"uint256","name":"requestId","type":"uint256"},{"indexed":true,"internalType":"enum IJammy.RandomRequestType","name":"reqType","type":"uint8"},{"indexed":false,"internalType":"address","name":"player","type":"address"},{"indexed":false,"internalType":"uint256","name":"numberOfWords","type":"uint256"}],"name":"RequestFulfilled","type":"event"},{"anonymous":false,"inputs":[{"indexed":false,"internalType":"uint256","name":"requestId","type":"uint256"},{"indexed":false,"internalType":"uint32","name":"numberOfWords","type":"uint32"}],"name":"RequestSent","type":"event"},{"inputs":[],"name":"EXPIRATION_DURATION","outputs":[{"internalType":"uint256","name":"","type":"uint256"}],"stateMutability":"view","type":"function"},{"inputs":[],"name":"MAX_NUMBER","outputs":[{"internalType":"uint256","name":"","type":"uint256"}],"stateMutability":"view","type":"function"},{"inputs":[],"name":"PRECISION_BASIS","outputs":[{"internalType":"uint256","name":"","type":"uint256"}],"stateMutability":"view","type":"function"},{"inputs":[],"name":"PRIZE_COUNT","outputs":[{"internalType":"uint256","name":"","type":"uint256"}],"stateMutability":"view","type":"function"},{"inputs":[],"name":"acceptOwnership","outputs":[],"stateMutability":"nonpayable","type":"function"},{"inputs":[{"internalType":"address","name":"","type":"address"}],"name":"admins","outputs":[{"internalType":"bool","name":"","type":"bool"}],"stateMutability":"view","type":"function"},{"inputs":[{"internalType":"uint256","name":"","type":"uint256"}],"name":"availableNumbers","outputs":[{"internalType":"uint8","name":"","type":"uint8"}],"stateMutability":"view","type":"function"},{"inputs":[{"internalType":"uint256[]","name":"newCards","type":"uint256[]"}],"name":"batchAddCards","outputs":[],"stateMutability":"nonpayable","type":"function"},{"inputs":[{"internalType":"uint256[]","name":"indexes","type":"uint256[]"},{"internalType":"uint256[]","name":"newCards","type":"uint256[]"}],"name":"batchUpdateCards","outputs":[],"stateMutability":"nonpayable","type":"function"},{"inputs":[],"name":"callbackGasLimit","outputs":[{"internalType":"uint32","name":"","type":"uint32"}],"stateMutability":"view","type":"function"},{"inputs":[{"internalType":"uint256","name":"gameId","type":"uint256"}],"name":"cancelGame","outputs":[],"stateMutability":"nonpayable","type":"function"},{"inputs":[{"internalType":"uint256","name":"","type":"uint256"}],"name":"cards","outputs":[{"internalType":"uint256","name":"","type":"uint256"}],"stateMutability":"view","type":"function"},{"inputs":[{"internalType":"uint256","name":"gameId","type":"uint256"}],"name":"claimPrize","outputs":[],"stateMutability":"nonpayable","type":"function"},{"inputs":[{"internalType":"uint256","name":"gameId","type":"uint256"}],"name":"claimRefund","outputs":[],"stateMutability":"nonpayable","type":"function"},{"inputs":[{"internalType":"uint256","name":"startDate","type":"uint256"},{"internalType":"uint256","name":"maxCardsPerPlayer","type":"uint256"},{"internalType":"uint256","name":"cardPrice","type":"uint256"},{"internalType":"uint256","name":"houseShare","type":"uint256"},{"internalType":"uint256[]","name":"prizeShares","type":"uint256[]"}],"name":"createGame","outputs":[],"stateMutability":"nonpayable","type":"function"},{"inputs":[],"name":"deployer","outputs":[{"internalType":"address","name":"","type":"address"}],"stateMutability":"view","type":"function"},{"inputs":[{"internalType":"uint256","name":"","type":"uint256"},{"internalType":"uint8","name":"","type":"uint8"}],"name":"drawnNumbers","outputs":[{"internalType":"bool","name":"","type":"bool"}],"stateMutability":"view","type":"function"},{"inputs":[],"name":"gameCounter","outputs":[{"internalType":"uint256","name":"","type":"uint256"}],"stateMutability":"view","type":"function"},{"inputs":[{"internalType":"uint256","name":"","type":"uint256"},{"internalType":"uint256","name":"","type":"uint256"}],"name":"gamePrizes","outputs":[{"internalType":"uint256","name":"share","type":"uint256"},{"internalType":"bool","name":"won","type":"bool"}],"stateMutability":"view","type":"function"},{"inputs":[{"internalType":"uint256","name":"gameId","type":"uint256"}],"name":"gameStatus","outputs":[{"internalType":"enum IJammy.GameStatus","name":"","type":"uint8"}],"stateMutability":"view","type":"function"},{"inputs":[{"internalType":"uint256","name":"","type":"uint256"}],"name":"games","outputs":[{"internalType":"address","name":"host","type":"address"},{"internalType":"uint256","name":"startDate","type":"uint256"},{"internalType":"uint256","name":"maxCardsPerPlayer","type":"uint256"},{"internalType":"uint256","name":"cardPrice","type":"uint256"},{"internalType":"uint256","name":"totalCardsSold","type":"uint256"},{"internalType":"uint256","name":"houseShare","type":"uint256"},{"internalType":"uint256","name":"seed","type":"uint256"},{"internalType":"bool","name":"cancelled","type":"bool"},{"internalType":"uint256","name":"totalPlayerCount","type":"uint256"}],"stateMutability":"view","type":"function"},{"inputs":[],"name":"getCards","outputs":[{"internalType":"uint256[]","name":"allCards","type":"uint256[]"}],"stateMutability":"view","type":"function"},{"inputs":[{"internalType":"uint256","name":"gameId","type":"uint256"},{"internalType":"address","name":"playerAddr","type":"address"},{"internalType":"uint256","name":"prizeIndex","type":"uint256"}],"name":"getGameInfo","outputs":[{"components":[{"internalType":"uint256","name":"availableNumbersLength","type":"uint256"},{"internalType":"uint256","name":"gamePrizesLength","type":"uint256"},{"internalType":"uint256","name":"prizeWinnersLength","type":"uint256"},{"internalType":"uint256","name":"numbersLength","type":"uint256"},{"internalType":"uint256","name":"cardsLength","type":"uint256"},{"internalType":"uint256","name":"playerCardsLength","type":"uint256"}],"internalType":"struct IJammy.GetInfo","name":"info","type":"tuple"}],"stateMutability":"view","type":"function"},{"inputs":[{"internalType":"address","name":"","type":"address"}],"name":"hosts","outputs":[{"internalType":"bool","name":"","type":"bool"}],"stateMutability":"view","type":"function"},{"inputs":[{"internalType":"uint256","name":"gameId","type":"uint256"},{"internalType":"uint256","name":"cardsCount","type":"uint256"}],"name":"joinGame","outputs":[],"stateMutability":"payable","type":"function"},{"inputs":[],"name":"keyhash","outputs":[{"internalType":"bytes32","name":"","type":"bytes32"}],"stateMutability":"view","type":"function"},{"inputs":[{"internalType":"uint256","name":"","type":"uint256"},{"internalType":"uint256","name":"","type":"uint256"}],"name":"numbers","outputs":[{"internalType":"uint8","name":"","type":"uint8"}],"stateMutability":"view","type":"function"},{"inputs":[],"name":"owner","outputs":[{"internalType":"address","name":"","type":"address"}],"stateMutability":"view","type":"function"},{"inputs":[],"name":"pendingFunds","outputs":[{"internalType":"uint256","name":"","type":"uint256"}],"stateMutability":"view","type":"function"},{"inputs":[{"internalType":"uint256","name":"","type":"uint256"},{"internalType":"address","name":"","type":"address"},{"internalType":"uint256","name":"","type":"uint256"}],"name":"playerCards","outputs":[{"internalType":"uint256","name":"","type":"uint256"}],"stateMutability":"view","type":"function"},{"inputs":[{"internalType":"uint256","name":"","type":"uint256"},{"internalType":"uint256","name":"","type":"uint256"},{"internalType":"uint256","name":"","type":"uint256"}],"name":"prizeWinners","outputs":[{"internalType":"address","name":"","type":"address"}],"stateMutability":"view","type":"function"},{"inputs":[{"internalType":"uint256","name":"","type":"uint256"}],"name":"prizesClaimed","outputs":[{"internalType":"bool","name":"","type":"bool"}],"stateMutability":"view","type":"function"},{"inputs":[{"internalType":"uint256","name":"","type":"uint256"}],"name":"randomRequests","outputs":[{"internalType":"uint256","name":"gameId","type":"uint256"},{"internalType":"address","name":"player","type":"address"},{"internalType":"enum IJammy.RandomRequestType","name":"requestType","type":"uint8"}],"stateMutability":"view","type":"function"},{"inputs":[{"internalType":"uint256","name":"requestId","type":"uint256"},{"internalType":"uint256[]","name":"randomWords","type":"uint256[]"}],"name":"rawFulfillRandomWords","outputs":[],"stateMutability":"nonpayable","type":"function"},{"inputs":[{"internalType":"uint256","name":"gameId","type":"uint256"},{"internalType":"uint256","name":"playerCardIndex","type":"uint256"}],"name":"redrawCard","outputs":[],"stateMutability":"payable","type":"function"},{"inputs":[{"internalType":"uint256","name":"","type":"uint256"},{"internalType":"address","name":"","type":"address"}],"name":"refunds","outputs":[{"internalType":"bool","name":"","type":"bool"}],"stateMutability":"view","type":"function"},{"inputs":[{"internalType":"uint256","name":"gameId","type":"uint256"}],"name":"revealNumber","outputs":[{"internalType":"uint8","name":"revealedNumber","type":"uint8"}],"stateMutability":"nonpayable","type":"function"},{"inputs":[{"internalType":"uint256","name":"","type":"uint256"},{"internalType":"uint256","name":"","type":"uint256"}],"name":"revealedCards","outputs":[{"internalType":"bool","name":"","type":"bool"}],"stateMutability":"view","type":"function"},{"inputs":[],"name":"s_vrfCoordinator","outputs":[{"internalType":"contract IVRFCoordinatorV2Plus","name":"","type":"address"}],"stateMutability":"view","type":"function"},{"inputs":[{"internalType":"address","name":"addr","type":"address"},{"internalType":"bool","name":"state","type":"bool"}],"name":"setAdmin","outputs":[],"stateMutability":"nonpayable","type":"function"},{"inputs":[{"internalType":"address","name":"_vrfCoordinator","type":"address"}],"name":"setCoordinator","outputs":[],"stateMutability":"nonpayable","type":"function"},{"inputs":[{"internalType":"address","name":"addr","type":"address"},{"internalType":"bool","name":"state","type":"bool"}],"name":"setHost","outputs":[],"stateMutability":"nonpayable","type":"function"},{"inputs":[{"internalType":"uint256","name":"gameId","type":"uint256"}],"name":"startGame","outputs":[],"stateMutability":"nonpayable","type":"function"},{"inputs":[],"name":"subscriptionId","outputs":[{"internalType":"uint256","name":"","type":"uint256"}],"stateMutability":"view","type":"function"},{"inputs":[],"name":"team1Address","outputs":[{"internalType":"address","name":"","type":"address"}],"stateMutability":"view","type":"function"},{"inputs":[],"name":"team1Shares","outputs":[{"internalType":"uint256","name":"","type":"uint256"}],"stateMutability":"view","type":"function"},{"inputs":[],"name":"team2Address","outputs":[{"internalType":"address","name":"","type":"address"}],"stateMutability":"view","type":"function"},{"inputs":[],"name":"team2Shares","outputs":[{"internalType":"uint256","name":"","type":"uint256"}],"stateMutability":"view","type":"function"},{"inputs":[{"internalType":"address","name":"to","type":"address"}],"name":"transferOwnership","outputs":[],"stateMutability":"nonpayable","type":"function"},{"inputs":[],"name":"vrfCoordinator","outputs":[{"internalType":"address","name":"","type":"address"}],"stateMutability":"view","type":"function"},{"inputs":[{"internalType":"uint256","name":"gameId","type":"uint256"},{"internalType":"uint256","name":"prizeIndex","type":"uint256"},{"internalType":"uint256","name":"playerCardIndex","type":"uint256"}],"name":"winPrize","outputs":[],"stateMutability":"nonpayable","type":"function"},{"inputs":[{"internalType":"uint256","name":"amount","type":"uint256"}],"name":"withdraw","outputs":[],"stateMutability":"nonpayable","type":"function"}],"evm":{"bytecode":{"linkReferences":{},"object":"6101a06040523480156200001257600080fd5b5060405162004029380380620040298339810160408190526200003591620002ba565b8733806000816200008d5760405162461bcd60e51b815260206004820152601860248201527f43616e6e6f7420736574206f776e657220746f207a65726f000000000000000060448201526064015b60405180910390fd5b600080546001600160a01b0319166001600160a01b0384811691909117909155811615620000c057620000c081620001f2565b5050506001600160a01b038116620000eb5760405163d92e233d60e01b815260040160405180910390fd5b600280546001600160a01b0319166001600160a01b03929092169190911790556127106200011a848662000349565b1462000139576040516324e7af5b60e01b815260040160405180910390fd5b608084905260a08390526001600160a01b0380831660c05281811660e052336101805288166101005261012087905261014086905263ffffffff85166101605260015b604b8160ff1611620001e3576003805460018181018355600092909252602081047fc2575a0e9e593c00f959f8c92f12db2869c3395a3b0502d05e2516446f71f85b01805460ff808616601f9094166101000a93840293021916919091179055016200017c565b50505050505050505062000371565b336001600160a01b038216036200024c5760405162461bcd60e51b815260206004820152601760248201527f43616e6e6f74207472616e7366657220746f2073656c66000000000000000000604482015260640162000084565b600180546001600160a01b0319166001600160a01b0383811691821790925560008054604051929316917fed8889f560326eb138920d842192f0eb3dd22b4f139c87a2c57538e05bae12789190a350565b80516001600160a01b0381168114620002b557600080fd5b919050565b600080600080600080600080610100898b031215620002d857600080fd5b620002e3896200029d565b97506020890151965060408901519550606089015163ffffffff811681146200030b57600080fd5b60808a015160a08b0151919650945092506200032a60c08a016200029d565b91506200033a60e08a016200029d565b90509295985092959890939650565b808201808211156200036b57634e487b7160e01b600052601160045260246000fd5b92915050565b60805160a05160c05160e0516101005161012051610140516101605161018051613bec6200043d60003960008181610a8a01528181610ee901526113ff0152600081816104890152612bc20152600081816103160152612b910152600081816106a70152612b6b015260006108b201526000818161082301528181610ff301526123220152600081816105e601528181610fc901526122f8015260008181610afe01528181610f9301526122a90152600081816107cf01528181610f58015261226e0152613bec6000f3fe6080604052600436106102ff5760003560e01c806392ca17e311610190578063ca067ad0116100dc578063e5ed1d5911610095578063fe7d567d1161006f578063fe7d567d14610b80578063fea9b57214610ba0578063ff1f601014610bb5578063ff78b4ef14610bd557600080fd5b8063e5ed1d5914610b20578063f2fde38b14610b40578063fa662a7314610b6057600080fd5b8063ca067ad014610a00578063cc80dd0614610a58578063d5f3948814610a78578063d709815414610aac578063dbde179514610acc578063e2a12cbb14610aec57600080fd5b8063a3e56fa811610149578063b0f279c811610123578063b0f279c814610916578063b397a12614610951578063b60b9fcb146109bd578063b9ced5fe146109d057600080fd5b8063a3e56fa8146108a0578063a9ef4a75146108d4578063b0df9e53146108f457600080fd5b806392ca17e31461079d5780639427552b146107bd5780639590ca6f146107f1578063973ea9d51461081157806397509e47146108455780639eccacf61461088057600080fd5b80634811c0701161024f5780636c70f15e116102085780638da5cb5b116101e25780638da5cb5b1461070a5780638dc10768146107285780638e6bb11b146107485780638ea981171461077d57600080fd5b80636c70f15e146106c957806379ba5097146106df5780637c6bc9be146106f457600080fd5b80634811c070146105d45780634b0bddd2146106205780634d07af46146106405780635b7baf641461065557806369958ab91461067557806369ebe78e1461069557600080fd5b80632794a63d116102bc578063324acb9011610296578063324acb901461050c57806334239c9c1461052c578063429b62e514610559578063454cc4bc1461059957600080fd5b80632794a63d146104c05780632e0be39a146104d65780632e1a7d4d146104ec57600080fd5b806309c1ba2e14610304578063117a5b901461034b57806317b2158914610410578063189b36b4146104255780631fe543e31461045757806324f7469714610477575b600080fd5b34801561031057600080fd5b506103387f000000000000000000000000000000000000000000000000000000000000000081565b6040519081526020015b60405180910390f35b34801561035757600080fd5b506103c0610366366004613644565b60086020819052600091825260409091208054600182015460028301546003840154600485015460058601546006870154600788015497909801546001600160a01b03909616979496939592949193909260ff9091169089565b604080516001600160a01b03909a168a5260208a0198909852968801959095526060870193909352608086019190915260a085015260c0840152151560e083015261010082015261012001610342565b61042361041e36600461365d565b610c05565b005b34801561043157600080fd5b5061044561044036600461365d565b610e46565b60405160ff9091168152602001610342565b34801561046357600080fd5b506104236104723660046136cb565b610e89565b34801561048357600080fd5b506104ab7f000000000000000000000000000000000000000000000000000000000000000081565b60405163ffffffff9091168152602001610342565b3480156104cc57600080fd5b50610338611c2081565b3480156104e257600080fd5b5061033860075481565b3480156104f857600080fd5b50610423610507366004613644565b610ede565b34801561051857600080fd5b50610423610527366004613717565b611018565b34801561053857600080fd5b5061054c610547366004613644565b6112bc565b6040516103429190613759565b34801561056557600080fd5b5061058961057436600461378f565b60056020526000908152604090205460ff1681565b6040519015158152602001610342565b3480156105a557600080fd5b506105896105b43660046137aa565b601160209081526000928352604080842090915290825290205460ff1681565b3480156105e057600080fd5b506106087f000000000000000000000000000000000000000000000000000000000000000081565b6040516001600160a01b039091168152602001610342565b34801561062c57600080fd5b5061042361063b3660046137d6565b6113f4565b34801561064c57600080fd5b50610338600581565b34801561066157600080fd5b50610423610670366004613644565b6114a0565b34801561068157600080fd5b50610423610690366004613644565b6115ee565b3480156106a157600080fd5b506103387f000000000000000000000000000000000000000000000000000000000000000081565b3480156106d557600080fd5b5061033861271081565b3480156106eb57600080fd5b506104236116fa565b34801561070057600080fd5b5061033860125481565b34801561071657600080fd5b506000546001600160a01b0316610608565b34801561073457600080fd5b50610338610743366004613644565b6117a4565b34801561075457600080fd5b5061076861076336600461365d565b6117c5565b60408051928352901515602083015201610342565b34801561078957600080fd5b5061042361079836600461378f565b611804565b3480156107a957600080fd5b506104236107b83660046137d6565b6118f6565b3480156107c957600080fd5b506103387f000000000000000000000000000000000000000000000000000000000000000081565b3480156107fd57600080fd5b5061042361080c366004613812565b611981565b34801561081d57600080fd5b506106087f000000000000000000000000000000000000000000000000000000000000000081565b34801561085157600080fd5b5061058961086036600461365d565b600e60209081526000928352604080842090915290825290205460ff1681565b34801561088c57600080fd5b50600254610608906001600160a01b031681565b3480156108ac57600080fd5b506106087f000000000000000000000000000000000000000000000000000000000000000081565b3480156108e057600080fd5b506104236108ef36600461387e565b611a74565b34801561090057600080fd5b50610909611da1565b60405161034291906138e8565b34801561092257600080fd5b5061058961093136600461392c565b600c60209081526000928352604080842090915290825290205460ff1681565b34801561095d57600080fd5b5061097161096c366004613957565b611df9565b6040516103429190600060c082019050825182526020830151602083015260408301516040830152606083015160608301526080830151608083015260a083015160a083015292915050565b6104236109cb36600461365d565b611ea3565b3480156109dc57600080fd5b506105896109eb36600461378f565b60066020526000908152604090205460ff1681565b348015610a0c57600080fd5b50610a49610a1b366004613644565b600460205260009081526040902080546001909101546001600160a01b03811690600160a01b900460ff1683565b6040516103429392919061398c565b348015610a6457600080fd5b50610608610a73366004613717565b6120fe565b348015610a8457600080fd5b506106087f000000000000000000000000000000000000000000000000000000000000000081565b348015610ab857600080fd5b50610423610ac7366004613644565b612143565b348015610ad857600080fd5b50610445610ae7366004613644565b61258c565b348015610af857600080fd5b506103387f000000000000000000000000000000000000000000000000000000000000000081565b348015610b2c57600080fd5b50610423610b3b366004613644565b6125c0565b348015610b4c57600080fd5b50610423610b5b36600461378f565b6126f8565b348015610b6c57600080fd5b50610423610b7b3660046139c0565b61270c565b348015610b8c57600080fd5b50610445610b9b366004613644565b6127bf565b348015610bac57600080fd5b50610338604b81565b348015610bc157600080fd5b50610338610bd0366004613957565b612b1d565b348015610be157600080fd5b50610589610bf0366004613644565b60106020526000908152604090205460ff1681565b81600180610c12836112bc565b6006811115610c2357610c23613743565b14610c415760405163263ab1ff60e11b815260040160405180910390fd5b6000848152600f602090815260408083203384529091529020548310610c7a57604051630479201160e41b815260040160405180910390fd5b6000848152600f602090815260408083203384529091528120805485908110610ca557610ca5613a02565b906000526020600020015490506002811015610cd4576040516333026e1560e21b815260040160405180910390fd5b6000858152600e602090815260408083208484528252808320805460ff1916905587835260088083529281902081516101208101835281546001600160a01b031681526001820154938101939093526002808201549284019290925260038101546060840181905260048201546080850152600582015460a0850152600682015460c0850152600782015460ff16151560e08501529301546101008301529091610d7e9190613a44565b3414610d9d5760405163788a686f60e01b815260040160405180910390fd5b3460126000828254610daf9190613a58565b90915550506000868152600f60209081526040808320338452909152902080546001919087908110610de357610de3613a02565b600091825260209091200155610dfd600187336002612b5b565b50604080518781523360208201529081018690527f930d62ec39f144c870a941ea5de98eb4242d21eb495d9ffe875009ad5e4215339060600160405180910390a1505050505050565b600b6020528160005260406000208181548110610e6257600080fd5b9060005260206000209060209182820401919006915091509054906101000a900460ff1681565b6002546001600160a01b03163314610ece5760025460405163073e64fd60e21b81523360048201526001600160a01b0390911660248201526044015b60405180910390fd5b610ed9838383612d70565b505050565b336001600160a01b037f00000000000000000000000000000000000000000000000000000000000000001614610f26576040516282b42960e81b815260040160405180910390fd5b601254811115610f49576040516349986e7360e01b815260040160405180910390fd5b60006012819055612710610f7d7f000000000000000000000000000000000000000000000000000000000000000084613a6b565b610f879190613a44565b90506000612710610fb87f000000000000000000000000000000000000000000000000000000000000000085613a6b565b610fc29190613a44565b9050610fee7f0000000000000000000000000000000000000000000000000000000000000000836131a0565b610ed97f0000000000000000000000000000000000000000000000000000000000000000826131a0565b82600380611025836112bc565b600681111561103657611036613743565b146110545760405163263ab1ff60e11b815260040160405180910390fd5b600085815260096020526040812080548690811061107457611074613a02565b600091825260209182902060408051808201909152600290920201805482526001015460ff161580159282019290925291506110c35760405163c079469760e01b815260040160405180910390fd5b6000868152600a6020908152604080832088845282528083208054825181850281018501909352808352919290919083018282801561112b57602002820191906000526020600020905b81546001600160a01b0316815260019091019060200180831161110d575b5050505050905060005b81518110156111915781818151811061115057611150613a02565b60200260200101516001600160a01b0316336001600160a01b03160361118957604051637d7eaa2d60e11b815260040160405180910390fd5b600101611135565b506000878152600f6020908152604080832033845290915290205485106111cb57604051630832ba8b60e41b815260040160405180910390fd5b6000878152600f6020908152604080832033845290915281208054879081106111f6576111f6613a02565b90600052602060002001549050600061121089838a61322e565b9050806112305760405163adfce5a360e01b815260040160405180910390fd5b6000898152600a602090815260408083208b845282528083208054600181018255908452928290209092018054336001600160a01b0319909116811790915582518c81529182018b9052818301526060810184905290517ff01d6fd8c09ef3e242baa03f4951b7ea8ce0c04e3a93dd6e59a20cdd8a5107be9181900360800190a1505050505050505050565b600081815260086020818152604080842081516101208101835281546001600160a01b0316815260018201549381018490526002820154928101929092526003810154606083015260048101546080830152600581015460a0830152600681015460c0830152600781015460ff16151560e083015290920154610100830152820361134a5750600092915050565b6000838152600960205260408120805490919061136957611369613a02565b600091825260209091206001600290920201015460ff161561138e5750600492915050565b8060e00151156113a15750600692915050565b80602001514210156113b65750600192915050565b611c2081602001516113c89190613a58565b4210156113eb5760c0810151156113e25750600392915050565b50600292915050565b50600592915050565b336001600160a01b037f0000000000000000000000000000000000000000000000000000000000000000161461143c576040516282b42960e81b815260040160405180910390fd5b6001600160a01b038216600081815260056020908152604091829020805460ff19168515159081179091558251938452908301527fe68d2c359a771606c400cf8b87000cf5864010363d6a736e98f5047b7bbe18e991015b60405180910390a15050565b60006114ab826112bc565b905060068160068111156114c1576114c1613743565b141580156114e1575060058160068111156114de576114de613743565b14155b156114ff5760405163263ab1ff60e11b815260040160405180910390fd5b600082815260086020908152604080832060030154600f835281842033855290925282205461152e9190613a6b565b9050806000036115515760405163f76aef6560e01b815260040160405180910390fd5b600083815260116020908152604080832033845290915290205460ff161561158c5760405163542f378d60e11b815260040160405180910390fd5b60008381526011602090815260408083203380855290835292819020805460ff191660011790555183815285917ffbeaa807aad4fcff31eff41f17142e6dcd1babf57c4730e3a4c706ac608cc057910160405180910390a3610ed933826131a0565b33600090815260066020526040902054819060ff1661161f576040516282b42960e81b815260040160405180910390fd5b801580159061164557506000818152600860205260409020546001600160a01b03163314155b15611662576040516282b42960e81b815260040160405180910390fd5b8160018061166f836112bc565b600681111561168057611680613743565b1461169e5760405163263ab1ff60e11b815260040160405180910390fd5b60008481526008602052604090819020600701805460ff19166001179055517f681705fdbd93dba3b679fd712577e9a86d57c5551c520f8c74857deb57f9623f906116ec9086815260200190565b60405180910390a150505050565b6001546001600160a01b0316331461174d5760405162461bcd60e51b815260206004820152601660248201527526bab9ba10313290383937b837b9b2b21037bbb732b960511b6044820152606401610ec5565b60008054336001600160a01b0319808316821784556001805490911690556040516001600160a01b0390921692909183917f8be0079c531659141344cd1fd0a4f28419497f9722a3daafe3b4186f6b6457e091a350565b600d81815481106117b457600080fd5b600091825260209091200154905081565b600960205281600052604060002081815481106117e157600080fd5b60009182526020909120600290910201805460019091015490925060ff16905082565b6000546001600160a01b0316331480159061182a57506002546001600160a01b03163314155b1561187b57336118426000546001600160a01b031690565b60025460405163061db9c160e01b81526001600160a01b0393841660048201529183166024830152919091166044820152606401610ec5565b6001600160a01b0381166118a25760405163d92e233d60e01b815260040160405180910390fd5b600280546001600160a01b0319166001600160a01b0383169081179091556040519081527fd1a6a14209a385a964d036e404cb5cfb71f4000cdb03c9366292430787261be69060200160405180910390a150565b3360009081526005602052604090205460ff16611925576040516282b42960e81b815260040160405180910390fd5b6001600160a01b038216600081815260066020908152604091829020805460ff19168515159081179091558251938452908301527ff4e55a552c0dd38d43f1f1f2aa7ba6e10e5b397505168dead0dfe7a141052ba19101611494565b3360009081526005602052604090205460ff166119b0576040516282b42960e81b815260040160405180910390fd5b8281146119d0576040516324e7af5b60e01b815260040160405180910390fd5b6000805b84811015611a38578383838181106119ee576119ee613a02565b90506020020135600d878784818110611a0957611a09613a02565b9050602002013581548110611a2057611a20613a02565b600091825260209091200155600191820191016119d4565b506040518281527f909437423316f5e34040ca432ee29c5f77e603b8509d9eb85cc740cc1edf150b906020015b60405180910390a15050505050565b3360009081526006602052604081205460ff16611aa3576040516282b42960e81b815260040160405180910390fd5b8015801590611ac957506000818152600860205260409020546001600160a01b03163314155b15611ae6576040516282b42960e81b815260040160405180910390fd5b42871015611b07576040516324e7af5b60e01b815260040160405180910390fd5b60058214611b28576040516324e7af5b60e01b815260040160405180910390fd5b85600003611b49576040516324e7af5b60e01b815260040160405180910390fd5b6007805460010190558360005b6005811015611c0157848482818110611b7157611b71613a02565b9050602002013582611b839190613a58565b6040805180820190915260008082526020820152909250858583818110611bac57611bac613a02565b60209081029290920135835250600754600090815260098252604081208054600180820183559183529183902084516002909302019182559290910151908201805460ff191691151591909117905501611b56565b506127108114611c24576040516324e7af5b60e01b815260040160405180910390fd5b611c7e60405180610120016040528060006001600160a01b03168152602001600081526020016000815260200160008152602001600081526020016000815260200160008152602001600015158152602001600081525090565b33815260208082018a815260408084018b8152606085018b815260a086018b815260078054600090815260088089528682208a5181546001600160a01b0319166001600160a01b0390911617815597516001890155945160028801559251600380880191909155608089015160048801559151600587015560c0880151600687015560e0880151868201805460ff1916911515919091179055610100880151959093019490945590548152600b9093529091208154611d3d92906135d1565b50805160075460408051918252602082018c905281018a9052606081018990526001600160a01b03909116907fa68b9950daefddef3594b7f32ece63939ffaeb76da6cc465b036f12eda2a1a359060800160405180910390a2505050505050505050565b6060600d805480602002602001604051908101604052809291908181526020018280548015611def57602002820191906000526020600020905b815481526020019060010190808311611ddb575b5050505050905090565b611e326040518060c001604052806000815260200160008152602001600081526020016000815260200160008152602001600081525090565b600354815260008481526009602090815260408083205482850152868352600a82528083209483529381528382205484840152858252600b8152838220546060840152600d546080840152948152600f85528281206001600160a01b0390941681529290935290205460a082015290565b81600180611eb0836112bc565b6006811115611ec157611ec1613743565b14611edf5760405163263ab1ff60e11b815260040160405180910390fd5b60008481526008602081815260409283902083516101208101855281546001600160a01b0316815260018201549281019290925260028101549382018490526003810154606083015260048101546080830152600581015460a0830152600681015460c0830152600781015460ff16151560e08301529091015461010082015290841180611f6b575083155b15611f89576040516324e7af5b60e01b815260040160405180910390fd5b838160600151611f999190613a6b565b3414611fb85760405163788a686f60e01b815260040160405180910390fd5b6000858152600f6020908152604080832033845290915290205415611fef57604051621d934160e11b815260040160405180910390fd5b600d54611ffe90600290613a44565b84826080015161200e9190613a58565b111561202d5760405163ac7d874b60e01b815260040160405180910390fd5b6000858152600860205260408120600401805486929061204e908490613a58565b9091555050600085815260086020819052604082200180549161207083613a82565b919050555060005b848110156120b2576000868152600f6020908152604080832033845282528220805460018181018355918452919092200181905501612078565b506120c08486336001612b5b565b50604080518681523360208201529081018590527f03dfbe1fcb4e2d61f3b4a0c93d8f814c92250618b3387f396cc9fc9fafe2c20390606001611a65565b600a602052826000526040600020602052816000526040600020818154811061212657600080fd5b6000918252602090912001546001600160a01b0316925083915050565b80600480612150836112bc565b600681111561216157612161613743565b1461217f5760405163263ab1ff60e11b815260040160405180910390fd5b60008381526010602052604090205460ff16156121af5760405163611ab18960e11b815260040160405180910390fd5b600083815260086020818152604080842081516101208101835281546001600160a01b03168152600182015493810193909352600281015491830191909152600381015460608301819052600482015460808401819052600583015460a0850152600683015460c0850152600783015460ff16151560e085015291909301546101008301529092916122419190613a6b565b905060006127108360a00151836122589190613a6b565b6122629190613a44565b905060006127106122937f000000000000000000000000000000000000000000000000000000000000000084613a6b565b61229d9190613a44565b905060006127106122ce7f000000000000000000000000000000000000000000000000000000000000000085613a6b565b6122d89190613a44565b6000898152601060205260409020805460ff19166001179055905061231d7f0000000000000000000000000000000000000000000000000000000000000000836131a0565b6123477f0000000000000000000000000000000000000000000000000000000000000000826131a0565b60005b6005811015612548576000898152600a602090815260408083208484528252808320805482518185028101850190935280835291929091908301828280156123bb57602002820191906000526020600020905b81546001600160a01b0316815260019091019060200180831161239d575b505050505090506000600960008c815260200190815260200160002083815481106123e8576123e8613a02565b6000918252602080832060408051808201909152600290930201805480845260019091015460ff161515918301919091529092506127109061242a908a613a6b565b6124349190613a44565b905060008351826124459190613a44565b905060005b845181101561253757600085828151811061246757612467613a02565b60200260200101516001600160a01b031683600067ffffffffffffffff81111561249357612493613a9b565b6040519080825280601f01601f1916602001820160405280156124bd576020820181803683370190505b506040516124cb9190613ad5565b60006040518083038185875af1925050503d8060008114612508576040519150601f19603f3d011682016040523d82523d6000602084013e61250d565b606091505b505090508061252e5782601260008282546125289190613a58565b90915550505b5060010161244a565b50506001909301925061234a915050565b5060408051898152602081018690527f390a412d60a41cb44637e108b2d7355311c3fb9743aef221b4958b29c5b590a8910160405180910390a15050505050505050565b6003818154811061259c57600080fd5b9060005260206000209060209182820401919006915054906101000a900460ff1681565b33600090815260066020526040902054819060ff166125f1576040516282b42960e81b815260040160405180910390fd5b801580159061261757506000818152600860205260409020546001600160a01b03163314155b15612634576040516282b42960e81b815260040160405180910390fd5b81600280612641836112bc565b600681111561265257612652613743565b146126705760405163263ab1ff60e11b815260040160405180910390fd5b600084815260086020526040902060060154156126a05760405163ba26162b60e01b815260040160405180910390fd5b6126af60018560006003612b5b565b50600084815260086020526040908190206001600690910155517f50ad08f58a27f2851d7e3a1b3a6a46b290f2ce677e99642d30ff639721e77790906116ec9086815260200190565b6127006132fc565b61270981613351565b50565b3360009081526005602052604090205460ff1661273b576040516282b42960e81b815260040160405180910390fd5b60005b8181101561278457600d83838381811061275a5761275a613a02565b8354600180820186556000958652602095869020929095029390930135920191909155500161273e565b50600d546040805183815260208101929092527f177b4d4352d7390f8b4072e4704932d89b61ed3feb0e68be4b2e329a05c0e3899101611494565b33600090815260066020526040812054829060ff166127f0576040516282b42960e81b815260040160405180910390fd5b801580159061281657506000818152600860205260409020546001600160a01b03163314155b15612833576040516282b42960e81b815260040160405180910390fd5b82600380612840836112bc565b600681111561285157612851613743565b1461286f5760405163263ab1ff60e11b815260040160405180910390fd5b60008581526008602052604090206006015460028110156128a357604051630be4981d60e11b815260040160405180910390fd5b60006128ae876133fa565b905080156128f3576040518781527e66784f5eb6c952749f91053c22ea083dd3cb766913c0733aa779dcc724f60e9060200160405180910390a1600095505050612b15565b6000878152600b602052604081205461290d90604b613af1565b6000898152600b60205260408120549192509061292a8386613a58565b60405160200161293c91815260200190565b6040516020818303038152906040528051906020012060001c61295f9190613b04565b60008a8152600b602052604090208054919250908290811061298357612983613a02565b6000918252602080832081830401548c8452600c8252604080852060ff601f9095166101000a90920484168086529190925292205491995016156129c9576129c9613b18565b6000898152600b6020526040902080546129e590600190613af1565b815481106129f5576129f5613a02565b90600052602060002090602091828204019190069054906101000a900460ff16600b60008b81526020019081526020016000208281548110612a3957612a39613a02565b90600052602060002090602091828204019190066101000a81548160ff021916908360ff160217905550600b60008a8152602001908152602001600020805480612a8557612a85613b2e565b6000828152602080822060001993909301818104909301805460ff601f86166101000a810219909116909155929093558b8152600c83526040808220928c1680835292845290819020805460ff1916600117905580518c8152928301919091527fafc498d7d3d2c521010ee0e69decf620932eb8965a8620d33f15964611b501bf910160405180910390a1505050505b505050919050565b600f6020528260005260406000206020528160005260406000208181548110612b4557600080fd5b9060005260206000200160009250925050505481565b6000806040518060c001604052807f000000000000000000000000000000000000000000000000000000000000000081526020017f00000000000000000000000000000000000000000000000000000000000000008152602001600361ffff1681526020017f000000000000000000000000000000000000000000000000000000000000000063ffffffff1681526020018763ffffffff168152602001612c126040518060200160405280600015158152506134c9565b9052600254604051634d8e1c2f60e11b81529192506001600160a01b031690639b1c385e90612c45908490600401613b44565b6020604051808303816000875af1158015612c64573d6000803e3d6000fd5b505050506040513d601f19601f82011682018060405250810190612c889190613bc6565b91506040518060600160405280868152602001856001600160a01b03168152602001846003811115612cbc57612cbc613743565b905260008381526004602090815260409182902083518155908301516001820180546001600160a01b039092166001600160a01b031983168117825593850151929390916001600160a81b03191617600160a01b836003811115612d2257612d22613743565b0217905550506040805184815263ffffffff891660208201527fcc58b13ad3eab50626c6a6300b1d139cd6ebb1688a7cced9461c2f7e762665ee92500160405180910390a150949350505050565b600083815260046020908152604080832081516060810183528154815260018201546001600160a01b03811694820194909452929091830190600160a01b900460ff166003811115612dc457612dc4613743565b6003811115612dd557612dd5613743565b9052509050600081604001516003811115612df257612df2613743565b03612e1357604051630cbe368560e21b815260048101859052602401610ec5565b600181604001516003811115612e2b57612e2b613743565b148015612e7a575080516000908152600f60209081526040808320828501516001600160a01b0316845290915281208054909190612e6b57612e6b613a02565b90600052602060002001546001145b15612f2f5760005b82811015612f29576000848483818110612e9e57612e9e613a02565b9050602002013590506000612eb784600001518361353a565b84516000908152600e602090815260408083208484528252808320805460ff1916600117905587518352600f8252808320828901516001600160a01b0316845290915290208054919250829185908110612f1357612f13613a02565b6000918252602090912001555050600101612e82565b50613132565b600281604001516003811115612f4757612f47613743565b0361309f5760001960005b82516000908152600f60209081526040808320828701516001600160a01b03168452909152902054811015612fdc5782516000908152600f60209081526040808320828701516001600160a01b031684529091529020805482908110612fba57612fba613a02565b9060005260206000200154600103612fd457809150612fdc565b600101612f52565b506000198103612fff57604051630479201160e41b815260040160405180910390fd5b60008484600081811061301457613014613a02565b905060200201359050600061302d84600001518361353a565b84516000908152600e602090815260408083208484528252808320805460ff1916600117905587518352600f8252808320828901516001600160a01b031684529091529020805491925082918590811061308957613089613a02565b9060005260206000200181905550505050613132565b6003816040015160038111156130b7576130b7613743565b1480156130d7575080516000908152600860205260409020600601546001145b1561311957828260008181106130ef576130ef613a02565b90506020020135600860008360000151815260200190815260200160002060060181905550613132565b604051636d08029760e01b815260040160405180910390fd5b8060400151600381111561314857613148613743565b602082810151604080518881526001600160a01b03909216928201929092529081018490527f3fd696057e834a199da5561585aa71f4aca3ffdf15ccd268fb3b41fd86c1326a9060600160405180910390a250505050565b604080516000808252602082019092526001600160a01b0384169083906040516131ca9190613ad5565b60006040518083038185875af1925050503d8060008114613207576040519150601f19603f3d011682016040523d82523d6000602084013e61320c565b606091505b5050905080610ed9576040516312171d8360e31b815260040160405180910390fd5b600082600103613240575060006132f5565b600061324d836005613af1565b90506000805b60058110156132ed576000805b60058110156132cf576000898152600c6020908152604080832060ff808d168086529190935292205460089a909a1c99168061329d575060ff8116155b156132b057826132ac81613a82565b9350505b826005036132c657846132c281613a82565b9550505b50600101613260565b508383106132e45760019450505050506132f5565b50600101613253565b506000925050505b9392505050565b6000546001600160a01b0316331461334f5760405162461bcd60e51b815260206004820152601660248201527527b7363c9031b0b63630b1363290313c9037bbb732b960511b6044820152606401610ec5565b565b336001600160a01b038216036133a95760405162461bcd60e51b815260206004820152601760248201527f43616e6e6f74207472616e7366657220746f2073656c660000000000000000006044820152606401610ec5565b600180546001600160a01b0319166001600160a01b0383811691821790925560008054604051929316917fed8889f560326eb138920d842192f0eb3dd22b4f139c87a2c57538e05bae12789190a350565b6000805b60058110156134c357600083815260096020526040902080548290811061342757613427613a02565b600091825260209091206001600290920201015460ff1615801561346357506000838152600a6020908152604080832084845290915290205415155b156134bb5760008381526009602052604090208054600191908390811061348c5761348c613a02565b60009182526020822060029190910201600101805460ff1916921515929092179091558190036134bb57600191505b6001016133fe565b50919050565b60607f92fd13387c7fe7befbc38d303d6468778fb9731bc4583f17d92989c6fcfdeaaa8260405160240161350291511515815260200190565b60408051601f198184030181529190526020810180516001600160e01b03166001600160e01b03199093169290921790915292915050565b600d8054600091906135509061ffff8516613b04565b8154811061356057613560613a02565b906000526020600020015490505b6000838152600e6020908152604080832084845290915290205460ff16156135cb57600d805460109390931c926135a99061ffff8516613b04565b815481106135b9576135b9613a02565b9060005260206000200154905061356e565b92915050565b82805482825590600052602060002090601f0160209004810192821561361f57600052602060002091601f016020900482015b8281111561361f578254825591600101919060010190613604565b5061362b92915061362f565b5090565b5b8082111561362b5760008155600101613630565b60006020828403121561365657600080fd5b5035919050565b6000806040838503121561367057600080fd5b50508035926020909101359150565b60008083601f84011261369157600080fd5b50813567ffffffffffffffff8111156136a957600080fd5b6020830191508360208260051b85010111156136c457600080fd5b9250929050565b6000806000604084860312156136e057600080fd5b83359250602084013567ffffffffffffffff8111156136fe57600080fd5b61370a8682870161367f565b9497909650939450505050565b60008060006060848603121561372c57600080fd5b505081359360208301359350604090920135919050565b634e487b7160e01b600052602160045260246000fd5b602081016007831061376d5761376d613743565b91905290565b80356001600160a01b038116811461378a57600080fd5b919050565b6000602082840312156137a157600080fd5b6132f582613773565b600080604083850312156137bd57600080fd5b823591506137cd60208401613773565b90509250929050565b600080604083850312156137e957600080fd5b6137f283613773565b91506020830135801515811461380757600080fd5b809150509250929050565b6000806000806040858703121561382857600080fd5b843567ffffffffffffffff8082111561384057600080fd5b61384c8883890161367f565b9096509450602087013591508082111561386557600080fd5b506138728782880161367f565b95989497509550505050565b60008060008060008060a0878903121561389757600080fd5b86359550602087013594506040870135935060608701359250608087013567ffffffffffffffff8111156138ca57600080fd5b6138d689828a0161367f565b979a9699509497509295939492505050565b6020808252825182820181905260009190848201906040850190845b8181101561392057835183529284019291840191600101613904565b50909695505050505050565b6000806040838503121561393f57600080fd5b82359150602083013560ff8116811461380757600080fd5b60008060006060848603121561396c57600080fd5b8335925061397c60208501613773565b9150604084013590509250925092565b8381526001600160a01b038316602082015260608101600483106139b2576139b2613743565b826040830152949350505050565b600080602083850312156139d357600080fd5b823567ffffffffffffffff8111156139ea57600080fd5b6139f68582860161367f565b90969095509350505050565b634e487b7160e01b600052603260045260246000fd5b634e487b7160e01b600052601260045260246000fd5b634e487b7160e01b600052601160045260246000fd5b600082613a5357613a53613a18565b500490565b808201808211156135cb576135cb613a2e565b80820281158282048414176135cb576135cb613a2e565b600060018201613a9457613a94613a2e565b5060010190565b634e487b7160e01b600052604160045260246000fd5b60005b83811015613acc578181015183820152602001613ab4565b50506000910152565b60008251613ae7818460208701613ab1565b9190910192915050565b818103818111156135cb576135cb613a2e565b600082613b1357613b13613a18565b500690565b634e487b7160e01b600052600160045260246000fd5b634e487b7160e01b600052603160045260246000fd5b60208152815160208201526020820151604082015261ffff60408301511660608201526000606083015163ffffffff80821660808501528060808601511660a0850152505060a083015160c08084015280518060e0850152610100613baf8282870160208601613ab1565b80601f19601f840116860101935050505092915050565b600060208284031215613bd857600080fd5b505191905056fea164736f6c6343000818000a","opcodes":"PUSH2 0x1A0 PUSH1 0x40 MSTORE CALLVALUE DUP1 ISZERO PUSH3 0x12 JUMPI PUSH1 0x0 DUP1 REVERT JUMPDEST POP PUSH1 0x40 MLOAD PUSH3 0x4029 CODESIZE SUB DUP1 PUSH3 0x4029 DUP4 CODECOPY DUP2 ADD PUSH1 0x40 DUP2 SWAP1 MSTORE PUSH3 0x35 SWAP2 PUSH3 0x2BA JUMP JUMPDEST DUP8 CALLER DUP1 PUSH1 0x0 DUP2 PUSH3 0x8D JUMPI PUSH1 0x40 MLOAD PUSH3 0x461BCD PUSH1 0xE5 SHL DUP2 MSTORE PUSH1 0x20 PUSH1 0x4 DUP3 ADD MSTORE PUSH1 0x18 PUSH1 0x24 DUP3 ADD MSTORE PUSH32 0x43616E6E6F7420736574206F776E657220746F207A65726F0000000000000000 PUSH1 0x44 DUP3 ADD MSTORE PUSH1 0x64 ADD JUMPDEST PUSH1 0x40 MLOAD DUP1 SWAP2 SUB SWAP1 REVERT JUMPDEST PUSH1 0x0 DUP1 SLOAD PUSH1 0x1 PUSH1 0x1 PUSH1 0xA0 SHL SUB NOT AND PUSH1 0x1 PUSH1 0x1 PUSH1 0xA0 SHL SUB DUP5 DUP2 AND SWAP2 SWAP1 SWAP2 OR SWAP1 SWAP2 SSTORE DUP2 AND ISZERO PUSH3 0xC0 JUMPI PUSH3 0xC0 DUP2 PUSH3 0x1F2 JUMP JUMPDEST POP POP POP PUSH1 0x1 PUSH1 0x1 PUSH1 0xA0 SHL SUB DUP2 AND PUSH3 0xEB JUMPI PUSH1 0x40 MLOAD PUSH4 0xD92E233D PUSH1 0xE0 SHL DUP2 MSTORE PUSH1 0x4 ADD PUSH1 0x40 MLOAD DUP1 SWAP2 SUB SWAP1 REVERT JUMPDEST PUSH1 0x2 DUP1 SLOAD PUSH1 0x1 PUSH1 0x1 PUSH1 0xA0 SHL SUB NOT AND PUSH1 0x1 PUSH1 0x1 PUSH1 0xA0 SHL SUB SWAP3 SWAP1 SWAP3 AND SWAP2 SWAP1 SWAP2 OR SWAP1 SSTORE PUSH2 0x2710 PUSH3 0x11A DUP5 DUP7 PUSH3 0x349 JUMP JUMPDEST EQ PUSH3 0x139 JUMPI PUSH1 0x40 MLOAD PUSH4 0x24E7AF5B PUSH1 0xE0 SHL DUP2 MSTORE PUSH1 0x4 ADD PUSH1 0x40 MLOAD DUP1 SWAP2 SUB SWAP1 REVERT JUMPDEST PUSH1 0x80 DUP5 SWAP1 MSTORE PUSH1 0xA0 DUP4 SWAP1 MSTORE PUSH1 0x1 PUSH1 0x1 PUSH1 0xA0 SHL SUB DUP1 DUP4 AND PUSH1 0xC0 MSTORE DUP2 DUP2 AND PUSH1 0xE0 MSTORE CALLER PUSH2 0x180 MSTORE DUP9 AND PUSH2 0x100 MSTORE PUSH2 0x120 DUP8 SWAP1 MSTORE PUSH2 0x140 DUP7 SWAP1 MSTORE PUSH4 0xFFFFFFFF DUP6 AND PUSH2 0x160 MSTORE PUSH1 0x1 JUMPDEST PUSH1 0x4B DUP2 PUSH1 0xFF AND GT PUSH3 0x1E3 JUMPI PUSH1 0x3 DUP1 SLOAD PUSH1 0x1 DUP2 DUP2 ADD DUP4 SSTORE PUSH1 0x0 SWAP3 SWAP1 SWAP3 MSTORE PUSH1 0x20 DUP2 DIV PUSH32 0xC2575A0E9E593C00F959F8C92F12DB2869C3395A3B0502D05E2516446F71F85B ADD DUP1 SLOAD PUSH1 0xFF DUP1 DUP7 AND PUSH1 0x1F SWAP1 SWAP5 AND PUSH2 0x100 EXP SWAP4 DUP5 MUL SWAP4 MUL NOT AND SWAP2 SWAP1 SWAP2 OR SWAP1 SSTORE ADD PUSH3 0x17C JUMP JUMPDEST POP POP POP POP POP POP POP POP POP PUSH3 0x371 JUMP JUMPDEST CALLER PUSH1 0x1 PUSH1 0x1 PUSH1 0xA0 SHL SUB DUP3 AND SUB PUSH3 0x24C JUMPI PUSH1 0x40 MLOAD PUSH3 0x461BCD PUSH1 0xE5 SHL DUP2 MSTORE PUSH1 0x20 PUSH1 0x4 DUP3 ADD MSTORE PUSH1 0x17 PUSH1 0x24 DUP3 ADD MSTORE PUSH32 0x43616E6E6F74207472616E7366657220746F2073656C66000000000000000000 PUSH1 0x44 DUP3 ADD MSTORE PUSH1 0x64 ADD PUSH3 0x84 JUMP JUMPDEST PUSH1 0x1 DUP1 SLOAD PUSH1 0x1 PUSH1 0x1 PUSH1 0xA0 SHL SUB NOT AND PUSH1 0x1 PUSH1 0x1 PUSH1 0xA0 SHL SUB DUP4 DUP2 AND SWAP2 DUP3 OR SWAP1 SWAP3 SSTORE PUSH1 0x0 DUP1 SLOAD PUSH1 0x40 MLOAD SWAP3 SWAP4 AND SWAP2 PUSH32 0xED8889F560326EB138920D842192F0EB3DD22B4F139C87A2C57538E05BAE1278 SWAP2 SWAP1 LOG3 POP JUMP JUMPDEST DUP1 MLOAD PUSH1 0x1 PUSH1 0x1 PUSH1 0xA0 SHL SUB DUP2 AND DUP2 EQ PUSH3 0x2B5 JUMPI PUSH1 0x0 DUP1 REVERT JUMPDEST SWAP2 SWAP1 POP JUMP JUMPDEST PUSH1 0x0 DUP1 PUSH1 0x0 DUP1 PUSH1 0x0 DUP1 PUSH1 0x0 DUP1 PUSH2 0x100 DUP10 DUP12 SUB SLT ISZERO PUSH3 0x2D8 JUMPI PUSH1 0x0 DUP1 REVERT JUMPDEST PUSH3 0x2E3 DUP10 PUSH3 0x29D JUMP JUMPDEST SWAP8 POP PUSH1 0x20 DUP10 ADD MLOAD SWAP7 POP PUSH1 0x40 DUP10 ADD MLOAD SWAP6 POP PUSH1 0x60 DUP10 ADD MLOAD PUSH4 0xFFFFFFFF DUP2 AND DUP2 EQ PUSH3 0x30B JUMPI PUSH1 0x0 DUP1 REVERT JUMPDEST PUSH1 0x80 DUP11 ADD MLOAD PUSH1 0xA0 DUP12 ADD MLOAD SWAP2 SWAP7 POP SWAP5 POP SWAP3 POP PUSH3 0x32A PUSH1 0xC0 DUP11 ADD PUSH3 0x29D JUMP JUMPDEST SWAP2 POP PUSH3 0x33A PUSH1 0xE0 DUP11 ADD PUSH3 0x29D JUMP JUMPDEST SWAP1 POP SWAP3 SWAP6 SWAP9 POP SWAP3 SWAP6 SWAP9 SWAP1 SWAP4 SWAP7 POP JUMP JUMPDEST DUP1 DUP3 ADD DUP1 DUP3 GT ISZERO PUSH3 0x36B JUMPI PUSH4 0x4E487B71 PUSH1 0xE0 SHL PUSH1 0x0 MSTORE PUSH1 0x11 PUSH1 0x4 MSTORE PUSH1 0x24 PUSH1 0x0 REVERT JUMPDEST SWAP3 SWAP2 POP POP JUMP JUMPDEST PUSH1 0x80 MLOAD PUSH1 0xA0 MLOAD PUSH1 0xC0 MLOAD PUSH1 0xE0 MLOAD PUSH2 0x100 MLOAD PUSH2 0x120 MLOAD PUSH2 0x140 MLOAD PUSH2 0x160 MLOAD PUSH2 0x180 MLOAD PUSH2 0x3BEC PUSH3 0x43D PUSH1 0x0 CODECOPY PUSH1 0x0 DUP2 DUP2 PUSH2 0xA8A ADD MSTORE DUP2 DUP2 PUSH2 0xEE9 ADD MSTORE PUSH2 0x13FF ADD MSTORE PUSH1 0x0 DUP2 DUP2 PUSH2 0x489 ADD MSTORE PUSH2 0x2BC2 ADD MSTORE PUSH1 0x0 DUP2 DUP2 PUSH2 0x316 ADD MSTORE PUSH2 0x2B91 ADD MSTORE PUSH1 0x0 DUP2 DUP2 PUSH2 0x6A7 ADD MSTORE PUSH2 0x2B6B ADD MSTORE PUSH1 0x0 PUSH2 0x8B2 ADD MSTORE PUSH1 0x0 DUP2 DUP2 PUSH2 0x823 ADD MSTORE DUP2 DUP2 PUSH2 0xFF3 ADD MSTORE PUSH2 0x2322 ADD MSTORE PUSH1 0x0 DUP2 DUP2 PUSH2 0x5E6 ADD MSTORE DUP2 DUP2 PUSH2 0xFC9 ADD MSTORE PUSH2 0x22F8 ADD MSTORE PUSH1 0x0 DUP2 DUP2 PUSH2 0xAFE ADD MSTORE DUP2 DUP2 PUSH2 0xF93 ADD MSTORE PUSH2 0x22A9 ADD MSTORE PUSH1 0x0 DUP2 DUP2 PUSH2 0x7CF ADD MSTORE DUP2 DUP2 PUSH2 0xF58 ADD MSTORE PUSH2 0x226E ADD MSTORE PUSH2 0x3BEC PUSH1 0x0 RETURN INVALID PUSH1 0x80 PUSH1 0x40 MSTORE PUSH1 0x4 CALLDATASIZE LT PUSH2 0x2FF JUMPI PUSH1 0x0 CALLDATALOAD PUSH1 0xE0 SHR DUP1 PUSH4 0x92CA17E3 GT PUSH2 0x190 JUMPI DUP1 PUSH4 0xCA067AD0 GT PUSH2 0xDC JUMPI DUP1 PUSH4 0xE5ED1D59 GT PUSH2 0x95 JUMPI DUP1 PUSH4 0xFE7D567D GT PUSH2 0x6F JUMPI DUP1 PUSH4 0xFE7D567D EQ PUSH2 0xB80 JUMPI DUP1 PUSH4 0xFEA9B572 EQ PUSH2 0xBA0 JUMPI DUP1 PUSH4 0xFF1F6010 EQ PUSH2 0xBB5 JUMPI DUP1 PUSH4 0xFF78B4EF EQ PUSH2 0xBD5 JUMPI PUSH1 0x0 DUP1 REVERT JUMPDEST DUP1 PUSH4 0xE5ED1D59 EQ PUSH2 0xB20 JUMPI DUP1 PUSH4 0xF2FDE38B EQ PUSH2 0xB40 JUMPI DUP1 PUSH4 0xFA662A73 EQ PUSH2 0xB60 JUMPI PUSH1 0x0 DUP1 REVERT JUMPDEST DUP1 PUSH4 0xCA067AD0 EQ PUSH2 0xA00 JUMPI DUP1 PUSH4 0xCC80DD06 EQ PUSH2 0xA58 JUMPI DUP1 PUSH4 0xD5F39488 EQ PUSH2 0xA78 JUMPI DUP1 PUSH4 0xD7098154 EQ PUSH2 0xAAC JUMPI DUP1 PUSH4 0xDBDE1795 EQ PUSH2 0xACC JUMPI DUP1 PUSH4 0xE2A12CBB EQ PUSH2 0xAEC JUMPI PUSH1 0x0 DUP1 REVERT JUMPDEST DUP1 PUSH4 0xA3E56FA8 GT PUSH2 0x149 JUMPI DUP1 PUSH4 0xB0F279C8 GT PUSH2 0x123 JUMPI DUP1 PUSH4 0xB0F279C8 EQ PUSH2 0x916 JUMPI DUP1 PUSH4 0xB397A126 EQ PUSH2 0x951 JUMPI DUP1 PUSH4 0xB60B9FCB EQ PUSH2 0x9BD JUMPI DUP1 PUSH4 0xB9CED5FE EQ PUSH2 0x9D0 JUMPI PUSH1 0x0 DUP1 REVERT JUMPDEST DUP1 PUSH4 0xA3E56FA8 EQ PUSH2 0x8A0 JUMPI DUP1 PUSH4 0xA9EF4A75 EQ PUSH2 0x8D4 JUMPI DUP1 PUSH4 0xB0DF9E53 EQ PUSH2 0x8F4 JUMPI PUSH1 0x0 DUP1 REVERT JUMPDEST DUP1 PUSH4 0x92CA17E3 EQ PUSH2 0x79D JUMPI DUP1 PUSH4 0x9427552B EQ PUSH2 0x7BD JUMPI DUP1 PUSH4 0x9590CA6F EQ PUSH2 0x7F1 JUMPI DUP1 PUSH4 0x973EA9D5 EQ PUSH2 0x811 JUMPI DUP1 PUSH4 0x97509E47 EQ PUSH2 0x845 JUMPI DUP1 PUSH4 0x9ECCACF6 EQ PUSH2 0x880 JUMPI PUSH1 0x0 DUP1 REVERT JUMPDEST DUP1 PUSH4 0x4811C070 GT PUSH2 0x24F JUMPI DUP1 PUSH4 0x6C70F15E GT PUSH2 0x208 JUMPI DUP1 PUSH4 0x8DA5CB5B GT PUSH2 0x1E2 JUMPI DUP1 PUSH4 0x8DA5CB5B EQ PUSH2 0x70A JUMPI DUP1 PUSH4 0x8DC10768 EQ PUSH2 0x728 JUMPI DUP1 PUSH4 0x8E6BB11B EQ PUSH2 0x748 JUMPI DUP1 PUSH4 0x8EA98117 EQ PUSH2 0x77D JUMPI PUSH1 0x0 DUP1 REVERT JUMPDEST DUP1 PUSH4 0x6C70F15E EQ PUSH2 0x6C9 JUMPI DUP1 PUSH4 0x79BA5097 EQ PUSH2 0x6DF JUMPI DUP1 PUSH4 0x7C6BC9BE EQ PUSH2 0x6F4 JUMPI PUSH1 0x0 DUP1 REVERT JUMPDEST DUP1 PUSH4 0x4811C070 EQ PUSH2 0x5D4 JUMPI DUP1 PUSH4 0x4B0BDDD2 EQ PUSH2 0x620 JUMPI DUP1 PUSH4 0x4D07AF46 EQ PUSH2 0x640 JUMPI DUP1 PUSH4 0x5B7BAF64 EQ PUSH2 0x655 JUMPI DUP1 PUSH4 0x69958AB9 EQ PUSH2 0x675 JUMPI DUP1 PUSH4 0x69EBE78E EQ PUSH2 0x695 JUMPI PUSH1 0x0 DUP1 REVERT JUMPDEST DUP1 PUSH4 0x2794A63D GT PUSH2 0x2BC JUMPI DUP1 PUSH4 0x324ACB90 GT PUSH2 0x296 JUMPI DUP1 PUSH4 0x324ACB90 EQ PUSH2 0x50C JUMPI DUP1 PUSH4 0x34239C9C EQ PUSH2 0x52C JUMPI DUP1 PUSH4 0x429B62E5 EQ PUSH2 0x559 JUMPI DUP1 PUSH4 0x454CC4BC EQ PUSH2 0x599 JUMPI PUSH1 0x0 DUP1 REVERT JUMPDEST DUP1 PUSH4 0x2794A63D EQ PUSH2 0x4C0 JUMPI DUP1 PUSH4 0x2E0BE39A EQ PUSH2 0x4D6 JUMPI DUP1 PUSH4 0x2E1A7D4D EQ PUSH2 0x4EC JUMPI PUSH1 0x0 DUP1 REVERT JUMPDEST DUP1 PUSH4 0x9C1BA2E EQ PUSH2 0x304 JUMPI DUP1 PUSH4 0x117A5B90 EQ PUSH2 0x34B JUMPI DUP1 PUSH4 0x17B21589 EQ PUSH2 0x410 JUMPI DUP1 PUSH4 0x189B36B4 EQ PUSH2 0x425 JUMPI DUP1 PUSH4 0x1FE543E3 EQ PUSH2 0x457 JUMPI DUP1 PUSH4 0x24F74697 EQ PUSH2 0x477 JUMPI JUMPDEST PUSH1 0x0 DUP1 REVERT JUMPDEST CALLVALUE DUP1 ISZERO PUSH2 0x310 JUMPI PUSH1 0x0 DUP1 REVERT JUMPDEST POP PUSH2 0x338 PUSH32 0x0 DUP2 JUMP JUMPDEST PUSH1 0x40 MLOAD SWAP1 DUP2 MSTORE PUSH1 0x20 ADD JUMPDEST PUSH1 0x40 MLOAD DUP1 SWAP2 SUB SWAP1 RETURN JUMPDEST CALLVALUE DUP1 ISZERO PUSH2 0x357 JUMPI PUSH1 0x0 DUP1 REVERT JUMPDEST POP PUSH2 0x3C0 PUSH2 0x366 CALLDATASIZE PUSH1 0x4 PUSH2 0x3644 JUMP JUMPDEST PUSH1 0x8 PUSH1 0x20 DUP2 SWAP1 MSTORE PUSH1 0x0 SWAP2 DUP3 MSTORE PUSH1 0x40 SWAP1 SWAP2 KECCAK256 DUP1 SLOAD PUSH1 0x1 DUP3 ADD SLOAD PUSH1 0x2 DUP4 ADD SLOAD PUSH1 0x3 DUP5 ADD SLOAD PUSH1 0x4 DUP6 ADD SLOAD PUSH1 0x5 DUP7 ADD SLOAD PUSH1 0x6 DUP8 ADD SLOAD PUSH1 0x7 DUP9 ADD SLOAD SWAP8 SWAP1 SWAP9 ADD SLOAD PUSH1 0x1 PUSH1 0x1 PUSH1 0xA0 SHL SUB SWAP1 SWAP7 AND SWAP8 SWAP5 SWAP7 SWAP4 SWAP6 SWAP3 SWAP5 SWAP2 SWAP4 SWAP1 SWAP3 PUSH1 0xFF SWAP1 SWAP2 AND SWAP1 DUP10 JUMP JUMPDEST PUSH1 0x40 DUP1 MLOAD PUSH1 0x1 PUSH1 0x1 PUSH1 0xA0 SHL SUB SWAP1 SWAP11 AND DUP11 MSTORE PUSH1 0x20 DUP11 ADD SWAP9 SWAP1 SWAP9 MSTORE SWAP7 DUP9 ADD SWAP6 SWAP1 SWAP6 MSTORE PUSH1 0x60 DUP8 ADD SWAP4 SWAP1 SWAP4 MSTORE PUSH1 0x80 DUP7 ADD SWAP2 SWAP1 SWAP2 MSTORE PUSH1 0xA0 DUP6 ADD MSTORE PUSH1 0xC0 DUP5 ADD MSTORE ISZERO ISZERO PUSH1 0xE0 DUP4 ADD MSTORE PUSH2 0x100 DUP3 ADD MSTORE PUSH2 0x120 ADD PUSH2 0x342 JUMP JUMPDEST PUSH2 0x423 PUSH2 0x41E CALLDATASIZE PUSH1 0x4 PUSH2 0x365D JUMP JUMPDEST PUSH2 0xC05 JUMP JUMPDEST STOP JUMPDEST CALLVALUE DUP1 ISZERO PUSH2 0x431 JUMPI PUSH1 0x0 DUP1 REVERT JUMPDEST POP PUSH2 0x445 PUSH2 0x440 CALLDATASIZE PUSH1 0x4 PUSH2 0x365D JUMP JUMPDEST PUSH2 0xE46 JUMP JUMPDEST PUSH1 0x40 MLOAD PUSH1 0xFF SWAP1 SWAP2 AND DUP2 MSTORE PUSH1 0x20 ADD PUSH2 0x342 JUMP JUMPDEST CALLVALUE DUP1 ISZERO PUSH2 0x463 JUMPI PUSH1 0x0 DUP1 REVERT JUMPDEST POP PUSH2 0x423 PUSH2 0x472 CALLDATASIZE PUSH1 0x4 PUSH2 0x36CB JUMP JUMPDEST PUSH2 0xE89 JUMP JUMPDEST CALLVALUE DUP1 ISZERO PUSH2 0x483 JUMPI PUSH1 0x0 DUP1 REVERT JUMPDEST POP PUSH2 0x4AB PUSH32 0x0 DUP2 JUMP JUMPDEST PUSH1 0x40 MLOAD PUSH4 0xFFFFFFFF SWAP1 SWAP2 AND DUP2 MSTORE PUSH1 0x20 ADD PUSH2 0x342 JUMP JUMPDEST CALLVALUE DUP1 ISZERO PUSH2 0x4CC JUMPI PUSH1 0x0 DUP1 REVERT JUMPDEST POP PUSH2 0x338 PUSH2 0x1C20 DUP2 JUMP JUMPDEST CALLVALUE DUP1 ISZERO PUSH2 0x4E2 JUMPI PUSH1 0x0 DUP1 REVERT JUMPDEST POP PUSH2 0x338 PUSH1 0x7 SLOAD DUP2 JUMP JUMPDEST CALLVALUE DUP1 ISZERO PUSH2 0x4F8 JUMPI PUSH1 0x0 DUP1 REVERT JUMPDEST POP PUSH2 0x423 PUSH2 0x507 CALLDATASIZE PUSH1 0x4 PUSH2 0x3644 JUMP JUMPDEST PUSH2 0xEDE JUMP JUMPDEST CALLVALUE DUP1 ISZERO PUSH2 0x518 JUMPI PUSH1 0x0 DUP1 REVERT JUMPDEST POP PUSH2 0x423 PUSH2 0x527 CALLDATASIZE PUSH1 0x4 PUSH2 0x3717 JUMP JUMPDEST PUSH2 0x1018 JUMP JUMPDEST CALLVALUE DUP1 ISZERO PUSH2 0x538 JUMPI PUSH1 0x0 DUP1 REVERT JUMPDEST POP PUSH2 0x54C PUSH2 0x547 CALLDATASIZE PUSH1 0x4 PUSH2 0x3644 JUMP JUMPDEST PUSH2 0x12BC JUMP JUMPDEST PUSH1 0x40 MLOAD PUSH2 0x342 SWAP2 SWAP1 PUSH2 0x3759 JUMP JUMPDEST CALLVALUE DUP1 ISZERO PUSH2 0x565 JUMPI PUSH1 0x0 DUP1 REVERT JUMPDEST POP PUSH2 0x589 PUSH2 0x574 CALLDATASIZE PUSH1 0x4 PUSH2 0x378F JUMP JUMPDEST PUSH1 0x5 PUSH1 0x20 MSTORE PUSH1 0x0 SWAP1 DUP2 MSTORE PUSH1 0x40 SWAP1 KECCAK256 SLOAD PUSH1 0xFF AND DUP2 JUMP JUMPDEST PUSH1 0x40 MLOAD SWAP1 ISZERO ISZERO DUP2 MSTORE PUSH1 0x20 ADD PUSH2 0x342 JUMP JUMPDEST CALLVALUE DUP1 ISZERO PUSH2 0x5A5 JUMPI PUSH1 0x0 DUP1 REVERT JUMPDEST POP PUSH2 0x589 PUSH2 0x5B4 CALLDATASIZE PUSH1 0x4 PUSH2 0x37AA JUMP JUMPDEST PUSH1 0x11 PUSH1 0x20 SWAP1 DUP2 MSTORE PUSH1 0x0 SWAP3 DUP4 MSTORE PUSH1 0x40 DUP1 DUP5 KECCAK256 SWAP1 SWAP2 MSTORE SWAP1 DUP3 MSTORE SWAP1 KECCAK256 SLOAD PUSH1 0xFF AND DUP2 JUMP JUMPDEST CALLVALUE DUP1 ISZERO PUSH2 0x5E0 JUMPI PUSH1 0x0 DUP1 REVERT JUMPDEST POP PUSH2 0x608 PUSH32 0x0 DUP2 JUMP JUMPDEST PUSH1 0x40 MLOAD PUSH1 0x1 PUSH1 0x1 PUSH1 0xA0 SHL SUB SWAP1 SWAP2 AND DUP2 MSTORE PUSH1 0x20 ADD PUSH2 0x342 JUMP JUMPDEST CALLVALUE DUP1 ISZERO PUSH2 0x62C JUMPI PUSH1 0x0 DUP1 REVERT JUMPDEST POP PUSH2 0x423 PUSH2 0x63B CALLDATASIZE PUSH1 0x4 PUSH2 0x37D6 JUMP JUMPDEST PUSH2 0x13F4 JUMP JUMPDEST CALLVALUE DUP1 ISZERO PUSH2 0x64C JUMPI PUSH1 0x0 DUP1 REVERT JUMPDEST POP PUSH2 0x338 PUSH1 0x5 DUP2 JUMP JUMPDEST CALLVALUE DUP1 ISZERO PUSH2 0x661 JUMPI PUSH1 0x0 DUP1 REVERT JUMPDEST POP PUSH2 0x423 PUSH2 0x670 CALLDATASIZE PUSH1 0x4 PUSH2 0x3644 JUMP JUMPDEST PUSH2 0x14A0 JUMP JUMPDEST CALLVALUE DUP1 ISZERO PUSH2 0x681 JUMPI PUSH1 0x0 DUP1 REVERT JUMPDEST POP PUSH2 0x423 PUSH2 0x690 CALLDATASIZE PUSH1 0x4 PUSH2 0x3644 JUMP JUMPDEST PUSH2 0x15EE JUMP JUMPDEST CALLVALUE DUP1 ISZERO PUSH2 0x6A1 JUMPI PUSH1 0x0 DUP1 REVERT JUMPDEST POP PUSH2 0x338 PUSH32 0x0 DUP2 JUMP JUMPDEST CALLVALUE DUP1 ISZERO PUSH2 0x6D5 JUMPI PUSH1 0x0 DUP1 REVERT JUMPDEST POP PUSH2 0x338 PUSH2 0x2710 DUP2 JUMP JUMPDEST CALLVALUE DUP1 ISZERO PUSH2 0x6EB JUMPI PUSH1 0x0 DUP1 REVERT JUMPDEST POP PUSH2 0x423 PUSH2 0x16FA JUMP JUMPDEST CALLVALUE DUP1 ISZERO PUSH2 0x700 JUMPI PUSH1 0x0 DUP1 REVERT JUMPDEST POP PUSH2 0x338 PUSH1 0x12 SLOAD DUP2 JUMP JUMPDEST CALLVALUE DUP1 ISZERO PUSH2 0x716 JUMPI PUSH1 0x0 DUP1 REVERT JUMPDEST POP PUSH1 0x0 SLOAD PUSH1 0x1 PUSH1 0x1 PUSH1 0xA0 SHL SUB AND PUSH2 0x608 JUMP JUMPDEST CALLVALUE DUP1 ISZERO PUSH2 0x734 JUMPI PUSH1 0x0 DUP1 REVERT JUMPDEST POP PUSH2 0x338 PUSH2 0x743 CALLDATASIZE PUSH1 0x4 PUSH2 0x3644 JUMP JUMPDEST PUSH2 0x17A4 JUMP JUMPDEST CALLVALUE DUP1 ISZERO PUSH2 0x754 JUMPI PUSH1 0x0 DUP1 REVERT JUMPDEST POP PUSH2 0x768 PUSH2 0x763 CALLDATASIZE PUSH1 0x4 PUSH2 0x365D JUMP JUMPDEST PUSH2 0x17C5 JUMP JUMPDEST PUSH1 0x40 DUP1 MLOAD SWAP3 DUP4 MSTORE SWAP1 ISZERO ISZERO PUSH1 0x20 DUP4 ADD MSTORE ADD PUSH2 0x342 JUMP JUMPDEST CALLVALUE DUP1 ISZERO PUSH2 0x789 JUMPI PUSH1 0x0 DUP1 REVERT JUMPDEST POP PUSH2 0x423 PUSH2 0x798 CALLDATASIZE PUSH1 0x4 PUSH2 0x378F JUMP JUMPDEST PUSH2 0x1804 JUMP JUMPDEST CALLVALUE DUP1 ISZERO PUSH2 0x7A9 JUMPI PUSH1 0x0 DUP1 REVERT JUMPDEST POP PUSH2 0x423 PUSH2 0x7B8 CALLDATASIZE PUSH1 0x4 PUSH2 0x37D6 JUMP JUMPDEST PUSH2 0x18F6 JUMP JUMPDEST CALLVALUE DUP1 ISZERO PUSH2 0x7C9 JUMPI PUSH1 0x0 DUP1 REVERT JUMPDEST POP PUSH2 0x338 PUSH32 0x0 DUP2 JUMP JUMPDEST CALLVALUE DUP1 ISZERO PUSH2 0x7FD JUMPI PUSH1 0x0 DUP1 REVERT JUMPDEST POP PUSH2 0x423 PUSH2 0x80C CALLDATASIZE PUSH1 0x4 PUSH2 0x3812 JUMP JUMPDEST PUSH2 0x1981 JUMP JUMPDEST CALLVALUE DUP1 ISZERO PUSH2 0x81D JUMPI PUSH1 0x0 DUP1 REVERT JUMPDEST POP PUSH2 0x608 PUSH32 0x0 DUP2 JUMP JUMPDEST CALLVALUE DUP1 ISZERO PUSH2 0x851 JUMPI PUSH1 0x0 DUP1 REVERT JUMPDEST POP PUSH2 0x589 PUSH2 0x860 CALLDATASIZE PUSH1 0x4 PUSH2 0x365D JUMP JUMPDEST PUSH1 0xE PUSH1 0x20 SWAP1 DUP2 MSTORE PUSH1 0x0 SWAP3 DUP4 MSTORE PUSH1 0x40 DUP1 DUP5 KECCAK256 SWAP1 SWAP2 MSTORE SWAP1 DUP3 MSTORE SWAP1 KECCAK256 SLOAD PUSH1 0xFF AND DUP2 JUMP JUMPDEST CALLVALUE DUP1 ISZERO PUSH2 0x88C JUMPI PUSH1 0x0 DUP1 REVERT JUMPDEST POP PUSH1 0x2 SLOAD PUSH2 0x608 SWAP1 PUSH1 0x1 PUSH1 0x1 PUSH1 0xA0 SHL SUB AND DUP2 JUMP JUMPDEST CALLVALUE DUP1 ISZERO PUSH2 0x8AC JUMPI PUSH1 0x0 DUP1 REVERT JUMPDEST POP PUSH2 0x608 PUSH32 0x0 DUP2 JUMP JUMPDEST CALLVALUE DUP1 ISZERO PUSH2 0x8E0 JUMPI PUSH1 0x0 DUP1 REVERT JUMPDEST POP PUSH2 0x423 PUSH2 0x8EF CALLDATASIZE PUSH1 0x4 PUSH2 0x387E JUMP JUMPDEST PUSH2 0x1A74 JUMP JUMPDEST CALLVALUE DUP1 ISZERO PUSH2 0x900 JUMPI PUSH1 0x0 DUP1 REVERT JUMPDEST POP PUSH2 0x909 PUSH2 0x1DA1 JUMP JUMPDEST PUSH1 0x40 MLOAD PUSH2 0x342 SWAP2 SWAP1 PUSH2 0x38E8 JUMP JUMPDEST CALLVALUE DUP1 ISZERO PUSH2 0x922 JUMPI PUSH1 0x0 DUP1 REVERT JUMPDEST POP PUSH2 0x589 PUSH2 0x931 CALLDATASIZE PUSH1 0x4 PUSH2 0x392C JUMP JUMPDEST PUSH1 0xC PUSH1 0x20 SWAP1 DUP2 MSTORE PUSH1 0x0 SWAP3 DUP4 MSTORE PUSH1 0x40 DUP1 DUP5 KECCAK256 SWAP1 SWAP2 MSTORE SWAP1 DUP3 MSTORE SWAP1 KECCAK256 SLOAD PUSH1 0xFF AND DUP2 JUMP JUMPDEST CALLVALUE DUP1 ISZERO PUSH2 0x95D JUMPI PUSH1 0x0 DUP1 REVERT JUMPDEST POP PUSH2 0x971 PUSH2 0x96C CALLDATASIZE PUSH1 0x4 PUSH2 0x3957 JUMP JUMPDEST PUSH2 0x1DF9 JUMP JUMPDEST PUSH1 0x40 MLOAD PUSH2 0x342 SWAP2 SWAP1 PUSH1 0x0 PUSH1 0xC0 DUP3 ADD SWAP1 POP DUP3 MLOAD DUP3 MSTORE PUSH1 0x20 DUP4 ADD MLOAD PUSH1 0x20 DUP4 ADD MSTORE PUSH1 0x40 DUP4 ADD MLOAD PUSH1 0x40 DUP4 ADD MSTORE PUSH1 0x60 DUP4 ADD MLOAD PUSH1 0x60 DUP4 ADD MSTORE PUSH1 0x80 DUP4 ADD MLOAD PUSH1 0x80 DUP4 ADD MSTORE PUSH1 0xA0 DUP4 ADD MLOAD PUSH1 0xA0 DUP4 ADD MSTORE SWAP3 SWAP2 POP POP JUMP JUMPDEST PUSH2 0x423 PUSH2 0x9CB CALLDATASIZE PUSH1 0x4 PUSH2 0x365D JUMP JUMPDEST PUSH2 0x1EA3 JUMP JUMPDEST CALLVALUE DUP1 ISZERO PUSH2 0x9DC JUMPI PUSH1 0x0 DUP1 REVERT JUMPDEST POP PUSH2 0x589 PUSH2 0x9EB CALLDATASIZE PUSH1 0x4 PUSH2 0x378F JUMP JUMPDEST PUSH1 0x6 PUSH1 0x20 MSTORE PUSH1 0x0 SWAP1 DUP2 MSTORE PUSH1 0x40 SWAP1 KECCAK256 SLOAD PUSH1 0xFF AND DUP2 JUMP JUMPDEST CALLVALUE DUP1 ISZERO PUSH2 0xA0C JUMPI PUSH1 0x0 DUP1 REVERT JUMPDEST POP PUSH2 0xA49 PUSH2 0xA1B CALLDATASIZE PUSH1 0x4 PUSH2 0x3644 JUMP JUMPDEST PUSH1 0x4 PUSH1 0x20 MSTORE PUSH1 0x0 SWAP1 DUP2 MSTORE PUSH1 0x40 SWAP1 KECCAK256 DUP1 SLOAD PUSH1 0x1 SWAP1 SWAP2 ADD SLOAD PUSH1 0x1 PUSH1 0x1 PUSH1 0xA0 SHL SUB DUP2 AND SWAP1 PUSH1 0x1 PUSH1 0xA0 SHL SWAP1 DIV PUSH1 0xFF AND DUP4 JUMP JUMPDEST PUSH1 0x40 MLOAD PUSH2 0x342 SWAP4 SWAP3 SWAP2 SWAP1 PUSH2 0x398C JUMP JUMPDEST CALLVALUE DUP1 ISZERO PUSH2 0xA64 JUMPI PUSH1 0x0 DUP1 REVERT JUMPDEST POP PUSH2 0x608 PUSH2 0xA73 CALLDATASIZE PUSH1 0x4 PUSH2 0x3717 JUMP JUMPDEST PUSH2 0x20FE JUMP JUMPDEST CALLVALUE DUP1 ISZERO PUSH2 0xA84 JUMPI PUSH1 0x0 DUP1 REVERT JUMPDEST POP PUSH2 0x608 PUSH32 0x0 DUP2 JUMP JUMPDEST CALLVALUE DUP1 ISZERO PUSH2 0xAB8 JUMPI PUSH1 0x0 DUP1 REVERT JUMPDEST POP PUSH2 0x423 PUSH2 0xAC7 CALLDATASIZE PUSH1 0x4 PUSH2 0x3644 JUMP JUMPDEST PUSH2 0x2143 JUMP JUMPDEST CALLVALUE DUP1 ISZERO PUSH2 0xAD8 JUMPI PUSH1 0x0 DUP1 REVERT JUMPDEST POP PUSH2 0x445 PUSH2 0xAE7 CALLDATASIZE PUSH1 0x4 PUSH2 0x3644 JUMP JUMPDEST PUSH2 0x258C JUMP JUMPDEST CALLVALUE DUP1 ISZERO PUSH2 0xAF8 JUMPI PUSH1 0x0 DUP1 REVERT JUMPDEST POP PUSH2 0x338 PUSH32 0x0 DUP2 JUMP JUMPDEST CALLVALUE DUP1 ISZERO PUSH2 0xB2C JUMPI PUSH1 0x0 DUP1 REVERT JUMPDEST POP PUSH2 0x423 PUSH2 0xB3B CALLDATASIZE PUSH1 0x4 PUSH2 0x3644 JUMP JUMPDEST PUSH2 0x25C0 JUMP JUMPDEST CALLVALUE DUP1 ISZERO PUSH2 0xB4C JUMPI PUSH1 0x0 DUP1 REVERT JUMPDEST POP PUSH2 0x423 PUSH2 0xB5B CALLDATASIZE PUSH1 0x4 PUSH2 0x378F JUMP JUMPDEST PUSH2 0x26F8 JUMP JUMPDEST CALLVALUE DUP1 ISZERO PUSH2 0xB6C JUMPI PUSH1 0x0 DUP1 REVERT JUMPDEST POP PUSH2 0x423 PUSH2 0xB7B CALLDATASIZE PUSH1 0x4 PUSH2 0x39C0 JUMP JUMPDEST PUSH2 0x270C JUMP JUMPDEST CALLVALUE DUP1 ISZERO PUSH2 0xB8C JUMPI PUSH1 0x0 DUP1 REVERT JUMPDEST POP PUSH2 0x445 PUSH2 0xB9B CALLDATASIZE PUSH1 0x4 PUSH2 0x3644 JUMP JUMPDEST PUSH2 0x27BF JUMP JUMPDEST CALLVALUE DUP1 ISZERO PUSH2 0xBAC JUMPI PUSH1 0x0 DUP1 REVERT JUMPDEST POP PUSH2 0x338 PUSH1 0x4B DUP2 JUMP JUMPDEST CALLVALUE DUP1 ISZERO PUSH2 0xBC1 JUMPI PUSH1 0x0 DUP1 REVERT JUMPDEST POP PUSH2 0x338 PUSH2 0xBD0 CALLDATASIZE PUSH1 0x4 PUSH2 0x3957 JUMP JUMPDEST PUSH2 0x2B1D JUMP JUMPDEST CALLVALUE DUP1 ISZERO PUSH2 0xBE1 JUMPI PUSH1 0x0 DUP1 REVERT JUMPDEST POP PUSH2 0x589 PUSH2 0xBF0 CALLDATASIZE PUSH1 0x4 PUSH2 0x3644 JUMP JUMPDEST PUSH1 0x10 PUSH1 0x20 MSTORE PUSH1 0x0 SWAP1 DUP2 MSTORE PUSH1 0x40 SWAP1 KECCAK256 SLOAD PUSH1 0xFF AND DUP2 JUMP JUMPDEST DUP2 PUSH1 0x1 DUP1 PUSH2 0xC12 DUP4 PUSH2 0x12BC JUMP JUMPDEST PUSH1 0x6 DUP2 GT ISZERO PUSH2 0xC23 JUMPI PUSH2 0xC23 PUSH2 0x3743 JUMP JUMPDEST EQ PUSH2 0xC41 JUMPI PUSH1 0x40 MLOAD PUSH4 0x263AB1FF PUSH1 0xE1 SHL DUP2 MSTORE PUSH1 0x4 ADD PUSH1 0x40 MLOAD DUP1 SWAP2 SUB SWAP1 REVERT JUMPDEST PUSH1 0x0 DUP5 DUP2 MSTORE PUSH1 0xF PUSH1 0x20 SWAP1 DUP2 MSTORE PUSH1 0x40 DUP1 DUP4 KECCAK256 CALLER DUP5 MSTORE SWAP1 SWAP2 MSTORE SWAP1 KECCAK256 SLOAD DUP4 LT PUSH2 0xC7A JUMPI PUSH1 0x40 MLOAD PUSH4 0x4792011 PUSH1 0xE4 SHL DUP2 MSTORE PUSH1 0x4 ADD PUSH1 0x40 MLOAD DUP1 SWAP2 SUB SWAP1 REVERT JUMPDEST PUSH1 0x0 DUP5 DUP2 MSTORE PUSH1 0xF PUSH1 0x20 SWAP1 DUP2 MSTORE PUSH1 0x40 DUP1 DUP4 KECCAK256 CALLER DUP5 MSTORE SWAP1 SWAP2 MSTORE DUP2 KECCAK256 DUP1 SLOAD DUP6 SWAP1 DUP2 LT PUSH2 0xCA5 JUMPI PUSH2 0xCA5 PUSH2 0x3A02 JUMP JUMPDEST SWAP1 PUSH1 0x0 MSTORE PUSH1 0x20 PUSH1 0x0 KECCAK256 ADD SLOAD SWAP1 POP PUSH1 0x2 DUP2 LT ISZERO PUSH2 0xCD4 JUMPI PUSH1 0x40 MLOAD PUSH4 0x33026E15 PUSH1 0xE2 SHL DUP2 MSTORE PUSH1 0x4 ADD PUSH1 0x40 MLOAD DUP1 SWAP2 SUB SWAP1 REVERT JUMPDEST PUSH1 0x0 DUP6 DUP2 MSTORE PUSH1 0xE PUSH1 0x20 SWAP1 DUP2 MSTORE PUSH1 0x40 DUP1 DUP4 KECCAK256 DUP5 DUP5 MSTORE DUP3 MSTORE DUP1 DUP4 KECCAK256 DUP1 SLOAD PUSH1 0xFF NOT AND SWAP1 SSTORE DUP8 DUP4 MSTORE PUSH1 0x8 DUP1 DUP4 MSTORE SWAP3 DUP2 SWAP1 KECCAK256 DUP2 MLOAD PUSH2 0x120 DUP2 ADD DUP4 MSTORE DUP2 SLOAD PUSH1 0x1 PUSH1 0x1 PUSH1 0xA0 SHL SUB AND DUP2 MSTORE PUSH1 0x1 DUP3 ADD SLOAD SWAP4 DUP2 ADD SWAP4 SWAP1 SWAP4 MSTORE PUSH1 0x2 DUP1 DUP3 ADD SLOAD SWAP3 DUP5 ADD SWAP3 SWAP1 SWAP3 MSTORE PUSH1 0x3 DUP2 ADD SLOAD PUSH1 0x60 DUP5 ADD DUP2 SWAP1 MSTORE PUSH1 0x4 DUP3 ADD SLOAD PUSH1 0x80 DUP6 ADD MSTORE PUSH1 0x5 DUP3 ADD SLOAD PUSH1 0xA0 DUP6 ADD MSTORE PUSH1 0x6 DUP3 ADD SLOAD PUSH1 0xC0 DUP6 ADD MSTORE PUSH1 0x7 DUP3 ADD SLOAD PUSH1 0xFF AND ISZERO ISZERO PUSH1 0xE0 DUP6 ADD MSTORE SWAP4 ADD SLOAD PUSH2 0x100 DUP4 ADD MSTORE SWAP1 SWAP2 PUSH2 0xD7E SWAP2 SWAP1 PUSH2 0x3A44 JUMP JUMPDEST CALLVALUE EQ PUSH2 0xD9D JUMPI PUSH1 0x40 MLOAD PUSH4 0x788A686F PUSH1 0xE0 SHL DUP2 MSTORE PUSH1 0x4 ADD PUSH1 0x40 MLOAD DUP1 SWAP2 SUB SWAP1 REVERT JUMPDEST CALLVALUE PUSH1 0x12 PUSH1 0x0 DUP3 DUP3 SLOAD PUSH2 0xDAF SWAP2 SWAP1 PUSH2 0x3A58 JUMP JUMPDEST SWAP1 SWAP2 SSTORE POP POP PUSH1 0x0 DUP7 DUP2 MSTORE PUSH1 0xF PUSH1 0x20 SWAP1 DUP2 MSTORE PUSH1 0x40 DUP1 DUP4 KECCAK256 CALLER DUP5 MSTORE SWAP1 SWAP2 MSTORE SWAP1 KECCAK256 DUP1 SLOAD PUSH1 0x1 SWAP2 SWAP1 DUP8 SWAP1 DUP2 LT PUSH2 0xDE3 JUMPI PUSH2 0xDE3 PUSH2 0x3A02 JUMP JUMPDEST PUSH1 0x0 SWAP2 DUP3 MSTORE PUSH1 0x20 SWAP1 SWAP2 KECCAK256 ADD SSTORE PUSH2 0xDFD PUSH1 0x1 DUP8 CALLER PUSH1 0x2 PUSH2 0x2B5B JUMP JUMPDEST POP PUSH1 0x40 DUP1 MLOAD DUP8 DUP2 MSTORE CALLER PUSH1 0x20 DUP3 ADD MSTORE SWAP1 DUP2 ADD DUP7 SWAP1 MSTORE PUSH32 0x930D62EC39F144C870A941EA5DE98EB4242D21EB495D9FFE875009AD5E421533 SWAP1 PUSH1 0x60 ADD PUSH1 0x40 MLOAD DUP1 SWAP2 SUB SWAP1 LOG1 POP POP POP POP POP POP JUMP JUMPDEST PUSH1 0xB PUSH1 0x20 MSTORE DUP2 PUSH1 0x0 MSTORE PUSH1 0x40 PUSH1 0x0 KECCAK256 DUP2 DUP2 SLOAD DUP2 LT PUSH2 0xE62 JUMPI PUSH1 0x0 DUP1 REVERT JUMPDEST SWAP1 PUSH1 0x0 MSTORE PUSH1 0x20 PUSH1 0x0 KECCAK256 SWAP1 PUSH1 0x20 SWAP2 DUP3 DUP3 DIV ADD SWAP2 SWAP1 MOD SWAP2 POP SWAP2 POP SWAP1 SLOAD SWAP1 PUSH2 0x100 EXP SWAP1 DIV PUSH1 0xFF AND DUP2 JUMP JUMPDEST PUSH1 0x2 SLOAD PUSH1 0x1 PUSH1 0x1 PUSH1 0xA0 SHL SUB AND CALLER EQ PUSH2 0xECE JUMPI PUSH1 0x2 SLOAD PUSH1 0x40 MLOAD PUSH4 0x73E64FD PUSH1 0xE2 SHL DUP2 MSTORE CALLER PUSH1 0x4 DUP3 ADD MSTORE PUSH1 0x1 PUSH1 0x1 PUSH1 0xA0 SHL SUB SWAP1 SWAP2 AND PUSH1 0x24 DUP3 ADD MSTORE PUSH1 0x44 ADD JUMPDEST PUSH1 0x40 MLOAD DUP1 SWAP2 SUB SWAP1 REVERT JUMPDEST PUSH2 0xED9 DUP4 DUP4 DUP4 PUSH2 0x2D70 JUMP JUMPDEST POP POP POP JUMP JUMPDEST CALLER PUSH1 0x1 PUSH1 0x1 PUSH1 0xA0 SHL SUB PUSH32 0x0 AND EQ PUSH2 0xF26 JUMPI PUSH1 0x40 MLOAD PUSH3 0x82B429 PUSH1 0xE8 SHL DUP2 MSTORE PUSH1 0x4 ADD PUSH1 0x40 MLOAD DUP1 SWAP2 SUB SWAP1 REVERT JUMPDEST PUSH1 0x12 SLOAD DUP2 GT ISZERO PUSH2 0xF49 JUMPI PUSH1 0x40 MLOAD PUSH4 0x49986E73 PUSH1 0xE0 SHL DUP2 MSTORE PUSH1 0x4 ADD PUSH1 0x40 MLOAD DUP1 SWAP2 SUB SWAP1 REVERT JUMPDEST PUSH1 0x0 PUSH1 0x12 DUP2 SWAP1 SSTORE PUSH2 0x2710 PUSH2 0xF7D PUSH32 0x0 DUP5 PUSH2 0x3A6B JUMP JUMPDEST PUSH2 0xF87 SWAP2 SWAP1 PUSH2 0x3A44 JUMP JUMPDEST SWAP1 POP PUSH1 0x0 PUSH2 0x2710 PUSH2 0xFB8 PUSH32 0x0 DUP6 PUSH2 0x3A6B JUMP JUMPDEST PUSH2 0xFC2 SWAP2 SWAP1 PUSH2 0x3A44 JUMP JUMPDEST SWAP1 POP PUSH2 0xFEE PUSH32 0x0 DUP4 PUSH2 0x31A0 JUMP JUMPDEST PUSH2 0xED9 PUSH32 0x0 DUP3 PUSH2 0x31A0 JUMP JUMPDEST DUP3 PUSH1 0x3 DUP1 PUSH2 0x1025 DUP4 PUSH2 0x12BC JUMP JUMPDEST PUSH1 0x6 DUP2 GT ISZERO PUSH2 0x1036 JUMPI PUSH2 0x1036 PUSH2 0x3743 JUMP JUMPDEST EQ PUSH2 0x1054 JUMPI PUSH1 0x40 MLOAD PUSH4 0x263AB1FF PUSH1 0xE1 SHL DUP2 MSTORE PUSH1 0x4 ADD PUSH1 0x40 MLOAD DUP1 SWAP2 SUB SWAP1 REVERT JUMPDEST PUSH1 0x0 DUP6 DUP2 MSTORE PUSH1 0x9 PUSH1 0x20 MSTORE PUSH1 0x40 DUP2 KECCAK256 DUP1 SLOAD DUP7 SWAP1 DUP2 LT PUSH2 0x1074 JUMPI PUSH2 0x1074 PUSH2 0x3A02 JUMP JUMPDEST PUSH1 0x0 SWAP2 DUP3 MSTORE PUSH1 0x20 SWAP2 DUP3 SWAP1 KECCAK256 PUSH1 0x40 DUP1 MLOAD DUP1 DUP3 ADD SWAP1 SWAP2 MSTORE PUSH1 0x2 SWAP1 SWAP3 MUL ADD DUP1 SLOAD DUP3 MSTORE PUSH1 0x1 ADD SLOAD PUSH1 0xFF AND ISZERO DUP1 ISZERO SWAP3 DUP3 ADD SWAP3 SWAP1 SWAP3 MSTORE SWAP2 POP PUSH2 0x10C3 JUMPI PUSH1 0x40 MLOAD PUSH4 0xC0794697 PUSH1 0xE0 SHL DUP2 MSTORE PUSH1 0x4 ADD PUSH1 0x40 MLOAD DUP1 SWAP2 SUB SWAP1 REVERT JUMPDEST PUSH1 0x0 DUP7 DUP2 MSTORE PUSH1 0xA PUSH1 0x20 SWAP1 DUP2 MSTORE PUSH1 0x40 DUP1 DUP4 KECCAK256 DUP9 DUP5 MSTORE DUP3 MSTORE DUP1 DUP4 KECCAK256 DUP1 SLOAD DUP3 MLOAD DUP2 DUP6 MUL DUP2 ADD DUP6 ADD SWAP1 SWAP4 MSTORE DUP1 DUP4 MSTORE SWAP2 SWAP3 SWAP1 SWAP2 SWAP1 DUP4 ADD DUP3 DUP3 DUP1 ISZERO PUSH2 0x112B JUMPI PUSH1 0x20 MUL DUP3 ADD SWAP2 SWAP1 PUSH1 0x0 MSTORE PUSH1 0x20 PUSH1 0x0 KECCAK256 SWAP1 JUMPDEST DUP2 SLOAD PUSH1 0x1 PUSH1 0x1 PUSH1 0xA0 SHL SUB AND DUP2 MSTORE PUSH1 0x1 SWAP1 SWAP2 ADD SWAP1 PUSH1 0x20 ADD DUP1 DUP4 GT PUSH2 0x110D JUMPI JUMPDEST POP POP POP POP POP SWAP1 POP PUSH1 0x0 JUMPDEST DUP2 MLOAD DUP2 LT ISZERO PUSH2 0x1191 JUMPI DUP2 DUP2 DUP2 MLOAD DUP2 LT PUSH2 0x1150 JUMPI PUSH2 0x1150 PUSH2 0x3A02 JUMP JUMPDEST PUSH1 0x20 MUL PUSH1 0x20 ADD ADD MLOAD PUSH1 0x1 PUSH1 0x1 PUSH1 0xA0 SHL SUB AND CALLER PUSH1 0x1 PUSH1 0x1 PUSH1 0xA0 SHL SUB AND SUB PUSH2 0x1189 JUMPI PUSH1 0x40 MLOAD PUSH4 0x7D7EAA2D PUSH1 0xE1 SHL DUP2 MSTORE PUSH1 0x4 ADD PUSH1 0x40 MLOAD DUP1 SWAP2 SUB SWAP1 REVERT JUMPDEST PUSH1 0x1 ADD PUSH2 0x1135 JUMP JUMPDEST POP PUSH1 0x0 DUP8 DUP2 MSTORE PUSH1 0xF PUSH1 0x20 SWAP1 DUP2 MSTORE PUSH1 0x40 DUP1 DUP4 KECCAK256 CALLER DUP5 MSTORE SWAP1 SWAP2 MSTORE SWAP1 KECCAK256 SLOAD DUP6 LT PUSH2 0x11CB JUMPI PUSH1 0x40 MLOAD PUSH4 0x832BA8B PUSH1 0xE4 SHL DUP2 MSTORE PUSH1 0x4 ADD PUSH1 0x40 MLOAD DUP1 SWAP2 SUB SWAP1 REVERT JUMPDEST PUSH1 0x0 DUP8 DUP2 MSTORE PUSH1 0xF PUSH1 0x20 SWAP1 DUP2 MSTORE PUSH1 0x40 DUP1 DUP4 KECCAK256 CALLER DUP5 MSTORE SWAP1 SWAP2 MSTORE DUP2 KECCAK256 DUP1 SLOAD DUP8 SWAP1 DUP2 LT PUSH2 0x11F6 JUMPI PUSH2 0x11F6 PUSH2 0x3A02 JUMP JUMPDEST SWAP1 PUSH1 0x0 MSTORE PUSH1 0x20 PUSH1 0x0 KECCAK256 ADD SLOAD SWAP1 POP PUSH1 0x0 PUSH2 0x1210 DUP10 DUP4 DUP11 PUSH2 0x322E JUMP JUMPDEST SWAP1 POP DUP1 PUSH2 0x1230 JUMPI PUSH1 0x40 MLOAD PUSH4 0xADFCE5A3 PUSH1 0xE0 SHL DUP2 MSTORE PUSH1 0x4 ADD PUSH1 0x40 MLOAD DUP1 SWAP2 SUB SWAP1 REVERT JUMPDEST PUSH1 0x0 DUP10 DUP2 MSTORE PUSH1 0xA PUSH1 0x20 SWAP1 DUP2 MSTORE PUSH1 0x40 DUP1 DUP4 KECCAK256 DUP12 DUP5 MSTORE DUP3 MSTORE DUP1 DUP4 KECCAK256 DUP1 SLOAD PUSH1 0x1 DUP2 ADD DUP3 SSTORE SWAP1 DUP5 MSTORE SWAP3 DUP3 SWAP1 KECCAK256 SWAP1 SWAP3 ADD DUP1 SLOAD CALLER PUSH1 0x1 PUSH1 0x1 PUSH1 0xA0 SHL SUB NOT SWAP1 SWAP2 AND DUP2 OR SWAP1 SWAP2 SSTORE DUP3 MLOAD DUP13 DUP2 MSTORE SWAP2 DUP3 ADD DUP12 SWAP1 MSTORE DUP2 DUP4 ADD MSTORE PUSH1 0x60 DUP2 ADD DUP5 SWAP1 MSTORE SWAP1 MLOAD PUSH32 0xF01D6FD8C09EF3E242BAA03F4951B7EA8CE0C04E3A93DD6E59A20CDD8A5107BE SWAP2 DUP2 SWAP1 SUB PUSH1 0x80 ADD SWAP1 LOG1 POP POP POP POP POP POP POP POP POP JUMP JUMPDEST PUSH1 0x0 DUP2 DUP2 MSTORE PUSH1 0x8 PUSH1 0x20 DUP2 DUP2 MSTORE PUSH1 0x40 DUP1 DUP5 KECCAK256 DUP2 MLOAD PUSH2 0x120 DUP2 ADD DUP4 MSTORE DUP2 SLOAD PUSH1 0x1 PUSH1 0x1 PUSH1 0xA0 SHL SUB AND DUP2 MSTORE PUSH1 0x1 DUP3 ADD SLOAD SWAP4 DUP2 ADD DUP5 SWAP1 MSTORE PUSH1 0x2 DUP3 ADD SLOAD SWAP3 DUP2 ADD SWAP3 SWAP1 SWAP3 MSTORE PUSH1 0x3 DUP2 ADD SLOAD PUSH1 0x60 DUP4 ADD MSTORE PUSH1 0x4 DUP2 ADD SLOAD PUSH1 0x80 DUP4 ADD MSTORE PUSH1 0x5 DUP2 ADD SLOAD PUSH1 0xA0 DUP4 ADD MSTORE PUSH1 0x6 DUP2 ADD SLOAD PUSH1 0xC0 DUP4 ADD MSTORE PUSH1 0x7 DUP2 ADD SLOAD PUSH1 0xFF AND ISZERO ISZERO PUSH1 0xE0 DUP4 ADD MSTORE SWAP1 SWAP3 ADD SLOAD PUSH2 0x100 DUP4 ADD MSTORE DUP3 SUB PUSH2 0x134A JUMPI POP PUSH1 0x0 SWAP3 SWAP2 POP POP JUMP JUMPDEST PUSH1 0x0 DUP4 DUP2 MSTORE PUSH1 0x9 PUSH1 0x20 MSTORE PUSH1 0x40 DUP2 KECCAK256 DUP1 SLOAD SWAP1 SWAP2 SWAP1 PUSH2 0x1369 JUMPI PUSH2 0x1369 PUSH2 0x3A02 JUMP JUMPDEST PUSH1 0x0 SWAP2 DUP3 MSTORE PUSH1 0x20 SWAP1 SWAP2 KECCAK256 PUSH1 0x1 PUSH1 0x2 SWAP1 SWAP3 MUL ADD ADD SLOAD PUSH1 0xFF AND ISZERO PUSH2 0x138E JUMPI POP PUSH1 0x4 SWAP3 SWAP2 POP POP JUMP JUMPDEST DUP1 PUSH1 0xE0 ADD MLOAD ISZERO PUSH2 0x13A1 JUMPI POP PUSH1 0x6 SWAP3 SWAP2 POP POP JUMP JUMPDEST DUP1 PUSH1 0x20 ADD MLOAD TIMESTAMP LT ISZERO PUSH2 0x13B6 JUMPI POP PUSH1 0x1 SWAP3 SWAP2 POP POP JUMP JUMPDEST PUSH2 0x1C20 DUP2 PUSH1 0x20 ADD MLOAD PUSH2 0x13C8 SWAP2 SWAP1 PUSH2 0x3A58 JUMP JUMPDEST TIMESTAMP LT ISZERO PUSH2 0x13EB JUMPI PUSH1 0xC0 DUP2 ADD MLOAD ISZERO PUSH2 0x13E2 JUMPI POP PUSH1 0x3 SWAP3 SWAP2 POP POP JUMP JUMPDEST POP PUSH1 0x2 SWAP3 SWAP2 POP POP JUMP JUMPDEST POP PUSH1 0x5 SWAP3 SWAP2 POP POP JUMP JUMPDEST CALLER PUSH1 0x1 PUSH1 0x1 PUSH1 0xA0 SHL SUB PUSH32 0x0 AND EQ PUSH2 0x143C JUMPI PUSH1 0x40 MLOAD PUSH3 0x82B429 PUSH1 0xE8 SHL DUP2 MSTORE PUSH1 0x4 ADD PUSH1 0x40 MLOAD DUP1 SWAP2 SUB SWAP1 REVERT JUMPDEST PUSH1 0x1 PUSH1 0x1 PUSH1 0xA0 SHL SUB DUP3 AND PUSH1 0x0 DUP2 DUP2 MSTORE PUSH1 0x5 PUSH1 0x20 SWAP1 DUP2 MSTORE PUSH1 0x40 SWAP2 DUP3 SWAP1 KECCAK256 DUP1 SLOAD PUSH1 0xFF NOT AND DUP6 ISZERO ISZERO SWAP1 DUP2 OR SWAP1 SWAP2 SSTORE DUP3 MLOAD SWAP4 DUP5 MSTORE SWAP1 DUP4 ADD MSTORE PUSH32 0xE68D2C359A771606C400CF8B87000CF5864010363D6A736E98F5047B7BBE18E9 SWAP2 ADD JUMPDEST PUSH1 0x40 MLOAD DUP1 SWAP2 SUB SWAP1 LOG1 POP POP JUMP JUMPDEST PUSH1 0x0 PUSH2 0x14AB DUP3 PUSH2 0x12BC JUMP JUMPDEST SWAP1 POP PUSH1 0x6 DUP2 PUSH1 0x6 DUP2 GT ISZERO PUSH2 0x14C1 JUMPI PUSH2 0x14C1 PUSH2 0x3743 JUMP JUMPDEST EQ ISZERO DUP1 ISZERO PUSH2 0x14E1 JUMPI POP PUSH1 0x5 DUP2 PUSH1 0x6 DUP2 GT ISZERO PUSH2 0x14DE JUMPI PUSH2 0x14DE PUSH2 0x3743 JUMP JUMPDEST EQ ISZERO JUMPDEST ISZERO PUSH2 0x14FF JUMPI PUSH1 0x40 MLOAD PUSH4 0x263AB1FF PUSH1 0xE1 SHL DUP2 MSTORE PUSH1 0x4 ADD PUSH1 0x40 MLOAD DUP1 SWAP2 SUB SWAP1 REVERT JUMPDEST PUSH1 0x0 DUP3 DUP2 MSTORE PUSH1 0x8 PUSH1 0x20 SWAP1 DUP2 MSTORE PUSH1 0x40 DUP1 DUP4 KECCAK256 PUSH1 0x3 ADD SLOAD PUSH1 0xF DUP4 MSTORE DUP2 DUP5 KECCAK256 CALLER DUP6 MSTORE SWAP1 SWAP3 MSTORE DUP3 KECCAK256 SLOAD PUSH2 0x152E SWAP2 SWAP1 PUSH2 0x3A6B JUMP JUMPDEST SWAP1 POP DUP1 PUSH1 0x0 SUB PUSH2 0x1551 JUMPI PUSH1 0x40 MLOAD PUSH4 0xF76AEF65 PUSH1 0xE0 SHL DUP2 MSTORE PUSH1 0x4 ADD PUSH1 0x40 MLOAD DUP1 SWAP2 SUB SWAP1 REVERT JUMPDEST PUSH1 0x0 DUP4 DUP2 MSTORE PUSH1 0x11 PUSH1 0x20 SWAP1 DUP2 MSTORE PUSH1 0x40 DUP1 DUP4 KECCAK256 CALLER DUP5 MSTORE SWAP1 SWAP2 MSTORE SWAP1 KECCAK256 SLOAD PUSH1 0xFF AND ISZERO PUSH2 0x158C JUMPI PUSH1 0x40 MLOAD PUSH4 0x542F378D PUSH1 0xE1 SHL DUP2 MSTORE PUSH1 0x4 ADD PUSH1 0x40 MLOAD DUP1 SWAP2 SUB SWAP1 REVERT JUMPDEST PUSH1 0x0 DUP4 DUP2 MSTORE PUSH1 0x11 PUSH1 0x20 SWAP1 DUP2 MSTORE PUSH1 0x40 DUP1 DUP4 KECCAK256 CALLER DUP1 DUP6 MSTORE SWAP1 DUP4 MSTORE SWAP3 DUP2 SWAP1 KECCAK256 DUP1 SLOAD PUSH1 0xFF NOT AND PUSH1 0x1 OR SWAP1 SSTORE MLOAD DUP4 DUP2 MSTORE DUP6 SWAP2 PUSH32 0xFBEAA807AAD4FCFF31EFF41F17142E6DCD1BABF57C4730E3A4C706AC608CC057 SWAP2 ADD PUSH1 0x40 MLOAD DUP1 SWAP2 SUB SWAP1 LOG3 PUSH2 0xED9 CALLER DUP3 PUSH2 0x31A0 JUMP JUMPDEST CALLER PUSH1 0x0 SWAP1 DUP2 MSTORE PUSH1 0x6 PUSH1 0x20 MSTORE PUSH1 0x40 SWAP1 KECCAK256 SLOAD DUP2 SWAP1 PUSH1 0xFF AND PUSH2 0x161F JUMPI PUSH1 0x40 MLOAD PUSH3 0x82B429 PUSH1 0xE8 SHL DUP2 MSTORE PUSH1 0x4 ADD PUSH1 0x40 MLOAD DUP1 SWAP2 SUB SWAP1 REVERT JUMPDEST DUP1 ISZERO DUP1 ISZERO SWAP1 PUSH2 0x1645 JUMPI POP PUSH1 0x0 DUP2 DUP2 MSTORE PUSH1 0x8 PUSH1 0x20 MSTORE PUSH1 0x40 SWAP1 KECCAK256 SLOAD PUSH1 0x1 PUSH1 0x1 PUSH1 0xA0 SHL SUB AND CALLER EQ ISZERO JUMPDEST ISZERO PUSH2 0x1662 JUMPI PUSH1 0x40 MLOAD PUSH3 0x82B429 PUSH1 0xE8 SHL DUP2 MSTORE PUSH1 0x4 ADD PUSH1 0x40 MLOAD DUP1 SWAP2 SUB SWAP1 REVERT JUMPDEST DUP2 PUSH1 0x1 DUP1 PUSH2 0x166F DUP4 PUSH2 0x12BC JUMP JUMPDEST PUSH1 0x6 DUP2 GT ISZERO PUSH2 0x1680 JUMPI PUSH2 0x1680 PUSH2 0x3743 JUMP JUMPDEST EQ PUSH2 0x169E JUMPI PUSH1 0x40 MLOAD PUSH4 0x263AB1FF PUSH1 0xE1 SHL DUP2 MSTORE PUSH1 0x4 ADD PUSH1 0x40 MLOAD DUP1 SWAP2 SUB SWAP1 REVERT JUMPDEST PUSH1 0x0 DUP5 DUP2 MSTORE PUSH1 0x8 PUSH1 0x20 MSTORE PUSH1 0x40 SWAP1 DUP2 SWAP1 KECCAK256 PUSH1 0x7 ADD DUP1 SLOAD PUSH1 0xFF NOT AND PUSH1 0x1 OR SWAP1 SSTORE MLOAD PUSH32 0x681705FDBD93DBA3B679FD712577E9A86D57C5551C520F8C74857DEB57F9623F SWAP1 PUSH2 0x16EC SWAP1 DUP7 DUP2 MSTORE PUSH1 0x20 ADD SWAP1 JUMP JUMPDEST PUSH1 0x40 MLOAD DUP1 SWAP2 SUB SWAP1 LOG1 POP POP POP POP JUMP JUMPDEST PUSH1 0x1 SLOAD PUSH1 0x1 PUSH1 0x1 PUSH1 0xA0 SHL SUB AND CALLER EQ PUSH2 0x174D JUMPI PUSH1 0x40 MLOAD PUSH3 0x461BCD PUSH1 0xE5 SHL DUP2 MSTORE PUSH1 0x20 PUSH1 0x4 DUP3 ADD MSTORE PUSH1 0x16 PUSH1 0x24 DUP3 ADD MSTORE PUSH22 0x26BAB9BA10313290383937B837B9B2B21037BBB732B9 PUSH1 0x51 SHL PUSH1 0x44 DUP3 ADD MSTORE PUSH1 0x64 ADD PUSH2 0xEC5 JUMP JUMPDEST PUSH1 0x0 DUP1 SLOAD CALLER PUSH1 0x1 PUSH1 0x1 PUSH1 0xA0 SHL SUB NOT DUP1 DUP4 AND DUP3 OR DUP5 SSTORE PUSH1 0x1 DUP1 SLOAD SWAP1 SWAP2 AND SWAP1 SSTORE PUSH1 0x40 MLOAD PUSH1 0x1 PUSH1 0x1 PUSH1 0xA0 SHL SUB SWAP1 SWAP3 AND SWAP3 SWAP1 SWAP2 DUP4 SWAP2 PUSH32 0x8BE0079C531659141344CD1FD0A4F28419497F9722A3DAAFE3B4186F6B6457E0 SWAP2 LOG3 POP JUMP JUMPDEST PUSH1 0xD DUP2 DUP2 SLOAD DUP2 LT PUSH2 0x17B4 JUMPI PUSH1 0x0 DUP1 REVERT JUMPDEST PUSH1 0x0 SWAP2 DUP3 MSTORE PUSH1 0x20 SWAP1 SWAP2 KECCAK256 ADD SLOAD SWAP1 POP DUP2 JUMP JUMPDEST PUSH1 0x9 PUSH1 0x20 MSTORE DUP2 PUSH1 0x0 MSTORE PUSH1 0x40 PUSH1 0x0 KECCAK256 DUP2 DUP2 SLOAD DUP2 LT PUSH2 0x17E1 JUMPI PUSH1 0x0 DUP1 REVERT JUMPDEST PUSH1 0x0 SWAP2 DUP3 MSTORE PUSH1 0x20 SWAP1 SWAP2 KECCAK256 PUSH1 0x2 SWAP1 SWAP2 MUL ADD DUP1 SLOAD PUSH1 0x1 SWAP1 SWAP2 ADD SLOAD SWAP1 SWAP3 POP PUSH1 0xFF AND SWAP1 POP DUP3 JUMP JUMPDEST PUSH1 0x0 SLOAD PUSH1 0x1 PUSH1 0x1 PUSH1 0xA0 SHL SUB AND CALLER EQ DUP1 ISZERO SWAP1 PUSH2 0x182A JUMPI POP PUSH1 0x2 SLOAD PUSH1 0x1 PUSH1 0x1 PUSH1 0xA0 SHL SUB AND CALLER EQ ISZERO JUMPDEST ISZERO PUSH2 0x187B JUMPI CALLER PUSH2 0x1842 PUSH1 0x0 SLOAD PUSH1 0x1 PUSH1 0x1 PUSH1 0xA0 SHL SUB AND SWAP1 JUMP JUMPDEST PUSH1 0x2 SLOAD PUSH1 0x40 MLOAD PUSH4 0x61DB9C1 PUSH1 0xE0 SHL DUP2 MSTORE PUSH1 0x1 PUSH1 0x1 PUSH1 0xA0 SHL SUB SWAP4 DUP5 AND PUSH1 0x4 DUP3 ADD MSTORE SWAP2 DUP4 AND PUSH1 0x24 DUP4 ADD MSTORE SWAP2 SWAP1 SWAP2 AND PUSH1 0x44 DUP3 ADD MSTORE PUSH1 0x64 ADD PUSH2 0xEC5 JUMP JUMPDEST PUSH1 0x1 PUSH1 0x1 PUSH1 0xA0 SHL SUB DUP2 AND PUSH2 0x18A2 JUMPI PUSH1 0x40 MLOAD PUSH4 0xD92E233D PUSH1 0xE0 SHL DUP2 MSTORE PUSH1 0x4 ADD PUSH1 0x40 MLOAD DUP1 SWAP2 SUB SWAP1 REVERT JUMPDEST PUSH1 0x2 DUP1 SLOAD PUSH1 0x1 PUSH1 0x1 PUSH1 0xA0 SHL SUB NOT AND PUSH1 0x1 PUSH1 0x1 PUSH1 0xA0 SHL SUB DUP4 AND SWAP1 DUP2 OR SWAP1 SWAP2 SSTORE PUSH1 0x40 MLOAD SWAP1 DUP2 MSTORE PUSH32 0xD1A6A14209A385A964D036E404CB5CFB71F4000CDB03C9366292430787261BE6 SWAP1 PUSH1 0x20 ADD PUSH1 0x40 MLOAD DUP1 SWAP2 SUB SWAP1 LOG1 POP JUMP JUMPDEST CALLER PUSH1 0x0 SWAP1 DUP2 MSTORE PUSH1 0x5 PUSH1 0x20 MSTORE PUSH1 0x40 SWAP1 KECCAK256 SLOAD PUSH1 0xFF AND PUSH2 0x1925 JUMPI PUSH1 0x40 MLOAD PUSH3 0x82B429 PUSH1 0xE8 SHL DUP2 MSTORE PUSH1 0x4 ADD PUSH1 0x40 MLOAD DUP1 SWAP2 SUB SWAP1 REVERT JUMPDEST PUSH1 0x1 PUSH1 0x1 PUSH1 0xA0 SHL SUB DUP3 AND PUSH1 0x0 DUP2 DUP2 MSTORE PUSH1 0x6 PUSH1 0x20 SWAP1 DUP2 MSTORE PUSH1 0x40 SWAP2 DUP3 SWAP1 KECCAK256 DUP1 SLOAD PUSH1 0xFF NOT AND DUP6 ISZERO ISZERO SWAP1 DUP2 OR SWAP1 SWAP2 SSTORE DUP3 MLOAD SWAP4 DUP5 MSTORE SWAP1 DUP4 ADD MSTORE PUSH32 0xF4E55A552C0DD38D43F1F1F2AA7BA6E10E5B397505168DEAD0DFE7A141052BA1 SWAP2 ADD PUSH2 0x1494 JUMP JUMPDEST CALLER PUSH1 0x0 SWAP1 DUP2 MSTORE PUSH1 0x5 PUSH1 0x20 MSTORE PUSH1 0x40 SWAP1 KECCAK256 SLOAD PUSH1 0xFF AND PUSH2 0x19B0 JUMPI PUSH1 0x40 MLOAD PUSH3 0x82B429 PUSH1 0xE8 SHL DUP2 MSTORE PUSH1 0x4 ADD PUSH1 0x40 MLOAD DUP1 SWAP2 SUB SWAP1 REVERT JUMPDEST DUP3 DUP2 EQ PUSH2 0x19D0 JUMPI PUSH1 0x40 MLOAD PUSH4 0x24E7AF5B PUSH1 0xE0 SHL DUP2 MSTORE PUSH1 0x4 ADD PUSH1 0x40 MLOAD DUP1 SWAP2 SUB SWAP1 REVERT JUMPDEST PUSH1 0x0 DUP1 JUMPDEST DUP5 DUP2 LT ISZERO PUSH2 0x1A38 JUMPI DUP4 DUP4 DUP4 DUP2 DUP2 LT PUSH2 0x19EE JUMPI PUSH2 0x19EE PUSH2 0x3A02 JUMP JUMPDEST SWAP1 POP PUSH1 0x20 MUL ADD CALLDATALOAD PUSH1 0xD DUP8 DUP8 DUP5 DUP2 DUP2 LT PUSH2 0x1A09 JUMPI PUSH2 0x1A09 PUSH2 0x3A02 JUMP JUMPDEST SWAP1 POP PUSH1 0x20 MUL ADD CALLDATALOAD DUP2 SLOAD DUP2 LT PUSH2 0x1A20 JUMPI PUSH2 0x1A20 PUSH2 0x3A02 JUMP JUMPDEST PUSH1 0x0 SWAP2 DUP3 MSTORE PUSH1 0x20 SWAP1 SWAP2 KECCAK256 ADD SSTORE PUSH1 0x1 SWAP2 DUP3 ADD SWAP2 ADD PUSH2 0x19D4 JUMP JUMPDEST POP PUSH1 0x40 MLOAD DUP3 DUP2 MSTORE PUSH32 0x909437423316F5E34040CA432EE29C5F77E603B8509D9EB85CC740CC1EDF150B SWAP1 PUSH1 0x20 ADD JUMPDEST PUSH1 0x40 MLOAD DUP1 SWAP2 SUB SWAP1 LOG1 POP POP POP POP POP JUMP JUMPDEST CALLER PUSH1 0x0 SWAP1 DUP2 MSTORE PUSH1 0x6 PUSH1 0x20 MSTORE PUSH1 0x40 DUP2 KECCAK256 SLOAD PUSH1 0xFF AND PUSH2 0x1AA3 JUMPI PUSH1 0x40 MLOAD PUSH3 0x82B429 PUSH1 0xE8 SHL DUP2 MSTORE PUSH1 0x4 ADD PUSH1 0x40 MLOAD DUP1 SWAP2 SUB SWAP1 REVERT JUMPDEST DUP1 ISZERO DUP1 ISZERO SWAP1 PUSH2 0x1AC9 JUMPI POP PUSH1 0x0 DUP2 DUP2 MSTORE PUSH1 0x8 PUSH1 0x20 MSTORE PUSH1 0x40 SWAP1 KECCAK256 SLOAD PUSH1 0x1 PUSH1 0x1 PUSH1 0xA0 SHL SUB AND CALLER EQ ISZERO JUMPDEST ISZERO PUSH2 0x1AE6 JUMPI PUSH1 0x40 MLOAD PUSH3 0x82B429 PUSH1 0xE8 SHL DUP2 MSTORE PUSH1 0x4 ADD PUSH1 0x40 MLOAD DUP1 SWAP2 SUB SWAP1 REVERT JUMPDEST TIMESTAMP DUP8 LT ISZERO PUSH2 0x1B07 JUMPI PUSH1 0x40 MLOAD PUSH4 0x24E7AF5B PUSH1 0xE0 SHL DUP2 MSTORE PUSH1 0x4 ADD PUSH1 0x40 MLOAD DUP1 SWAP2 SUB SWAP1 REVERT JUMPDEST PUSH1 0x5 DUP3 EQ PUSH2 0x1B28 JUMPI PUSH1 0x40 MLOAD PUSH4 0x24E7AF5B PUSH1 0xE0 SHL DUP2 MSTORE PUSH1 0x4 ADD PUSH1 0x40 MLOAD DUP1 SWAP2 SUB SWAP1 REVERT JUMPDEST DUP6 PUSH1 0x0 SUB PUSH2 0x1B49 JUMPI PUSH1 0x40 MLOAD PUSH4 0x24E7AF5B PUSH1 0xE0 SHL DUP2 MSTORE PUSH1 0x4 ADD PUSH1 0x40 MLOAD DUP1 SWAP2 SUB SWAP1 REVERT JUMPDEST PUSH1 0x7 DUP1 SLOAD PUSH1 0x1 ADD SWAP1 SSTORE DUP4 PUSH1 0x0 JUMPDEST PUSH1 0x5 DUP2 LT ISZERO PUSH2 0x1C01 JUMPI DUP5 DUP5 DUP3 DUP2 DUP2 LT PUSH2 0x1B71 JUMPI PUSH2 0x1B71 PUSH2 0x3A02 JUMP JUMPDEST SWAP1 POP PUSH1 0x20 MUL ADD CALLDATALOAD DUP3 PUSH2 0x1B83 SWAP2 SWAP1 PUSH2 0x3A58 JUMP JUMPDEST PUSH1 0x40 DUP1 MLOAD DUP1 DUP3 ADD SWAP1 SWAP2 MSTORE PUSH1 0x0 DUP1 DUP3 MSTORE PUSH1 0x20 DUP3 ADD MSTORE SWAP1 SWAP3 POP DUP6 DUP6 DUP4 DUP2 DUP2 LT PUSH2 0x1BAC JUMPI PUSH2 0x1BAC PUSH2 0x3A02 JUMP JUMPDEST PUSH1 0x20 SWAP1 DUP2 MUL SWAP3 SWAP1 SWAP3 ADD CALLDATALOAD DUP4 MSTORE POP PUSH1 0x7 SLOAD PUSH1 0x0 SWAP1 DUP2 MSTORE PUSH1 0x9 DUP3 MSTORE PUSH1 0x40 DUP2 KECCAK256 DUP1 SLOAD PUSH1 0x1 DUP1 DUP3 ADD DUP4 SSTORE SWAP2 DUP4 MSTORE SWAP2 DUP4 SWAP1 KECCAK256 DUP5 MLOAD PUSH1 0x2 SWAP1 SWAP4 MUL ADD SWAP2 DUP3 SSTORE SWAP3 SWAP1 SWAP2 ADD MLOAD SWAP1 DUP3 ADD DUP1 SLOAD PUSH1 0xFF NOT AND SWAP2 ISZERO ISZERO SWAP2 SWAP1 SWAP2 OR SWAP1 SSTORE ADD PUSH2 0x1B56 JUMP JUMPDEST POP PUSH2 0x2710 DUP2 EQ PUSH2 0x1C24 JUMPI PUSH1 0x40 MLOAD PUSH4 0x24E7AF5B PUSH1 0xE0 SHL DUP2 MSTORE PUSH1 0x4 ADD PUSH1 0x40 MLOAD DUP1 SWAP2 SUB SWAP1 REVERT JUMPDEST PUSH2 0x1C7E PUSH1 0x40 MLOAD DUP1 PUSH2 0x120 ADD PUSH1 0x40 MSTORE DUP1 PUSH1 0x0 PUSH1 0x1 PUSH1 0x1 PUSH1 0xA0 SHL SUB AND DUP2 MSTORE PUSH1 0x20 ADD PUSH1 0x0 DUP2 MSTORE PUSH1 0x20 ADD PUSH1 0x0 DUP2 MSTORE PUSH1 0x20 ADD PUSH1 0x0 DUP2 MSTORE PUSH1 0x20 ADD PUSH1 0x0 DUP2 MSTORE PUSH1 0x20 ADD PUSH1 0x0 DUP2 MSTORE PUSH1 0x20 ADD PUSH1 0x0 DUP2 MSTORE PUSH1 0x20 ADD PUSH1 0x0 ISZERO ISZERO DUP2 MSTORE PUSH1 0x20 ADD PUSH1 0x0 DUP2 MSTORE POP SWAP1 JUMP JUMPDEST CALLER DUP2 MSTORE PUSH1 0x20 DUP1 DUP3 ADD DUP11 DUP2 MSTORE PUSH1 0x40 DUP1 DUP5 ADD DUP12 DUP2 MSTORE PUSH1 0x60 DUP6 ADD DUP12 DUP2 MSTORE PUSH1 0xA0 DUP7 ADD DUP12 DUP2 MSTORE PUSH1 0x7 DUP1 SLOAD PUSH1 0x0 SWAP1 DUP2 MSTORE PUSH1 0x8 DUP1 DUP10 MSTORE DUP7 DUP3 KECCAK256 DUP11 MLOAD DUP2 SLOAD PUSH1 0x1 PUSH1 0x1 PUSH1 0xA0 SHL SUB NOT AND PUSH1 0x1 PUSH1 0x1 PUSH1 0xA0 SHL SUB SWAP1 SWAP2 AND OR DUP2 SSTORE SWAP8 MLOAD PUSH1 0x1 DUP10 ADD SSTORE SWAP5 MLOAD PUSH1 0x2 DUP9 ADD SSTORE SWAP3 MLOAD PUSH1 0x3 DUP1 DUP9 ADD SWAP2 SWAP1 SWAP2 SSTORE PUSH1 0x80 DUP10 ADD MLOAD PUSH1 0x4 DUP9 ADD SSTORE SWAP2 MLOAD PUSH1 0x5 DUP8 ADD SSTORE PUSH1 0xC0 DUP9 ADD MLOAD PUSH1 0x6 DUP8 ADD SSTORE PUSH1 0xE0 DUP9 ADD MLOAD DUP7 DUP3 ADD DUP1 SLOAD PUSH1 0xFF NOT AND SWAP2 ISZERO ISZERO SWAP2 SWAP1 SWAP2 OR SWAP1 SSTORE PUSH2 0x100 DUP9 ADD MLOAD SWAP6 SWAP1 SWAP4 ADD SWAP5 SWAP1 SWAP5 SSTORE SWAP1 SLOAD DUP2 MSTORE PUSH1 0xB SWAP1 SWAP4 MSTORE SWAP1 SWAP2 KECCAK256 DUP2 SLOAD PUSH2 0x1D3D SWAP3 SWAP1 PUSH2 0x35D1 JUMP JUMPDEST POP DUP1 MLOAD PUSH1 0x7 SLOAD PUSH1 0x40 DUP1 MLOAD SWAP2 DUP3 MSTORE PUSH1 0x20 DUP3 ADD DUP13 SWAP1 MSTORE DUP2 ADD DUP11 SWAP1 MSTORE PUSH1 0x60 DUP2 ADD DUP10 SWAP1 MSTORE PUSH1 0x1 PUSH1 0x1 PUSH1 0xA0 SHL SUB SWAP1 SWAP2 AND SWAP1 PUSH32 0xA68B9950DAEFDDEF3594B7F32ECE63939FFAEB76DA6CC465B036F12EDA2A1A35 SWAP1 PUSH1 0x80 ADD PUSH1 0x40 MLOAD DUP1 SWAP2 SUB SWAP1 LOG2 POP POP POP POP POP POP POP POP POP JUMP JUMPDEST PUSH1 0x60 PUSH1 0xD DUP1 SLOAD DUP1 PUSH1 0x20 MUL PUSH1 0x20 ADD PUSH1 0x40 MLOAD SWAP1 DUP2 ADD PUSH1 0x40 MSTORE DUP1 SWAP3 SWAP2 SWAP1 DUP2 DUP2 MSTORE PUSH1 0x20 ADD DUP3 DUP1 SLOAD DUP1 ISZERO PUSH2 0x1DEF JUMPI PUSH1 0x20 MUL DUP3 ADD SWAP2 SWAP1 PUSH1 0x0 MSTORE PUSH1 0x20 PUSH1 0x0 KECCAK256 SWAP1 JUMPDEST DUP2 SLOAD DUP2 MSTORE PUSH1 0x20 ADD SWAP1 PUSH1 0x1 ADD SWAP1 DUP1 DUP4 GT PUSH2 0x1DDB JUMPI JUMPDEST POP POP POP POP POP SWAP1 POP SWAP1 JUMP JUMPDEST PUSH2 0x1E32 PUSH1 0x40 MLOAD DUP1 PUSH1 0xC0 ADD PUSH1 0x40 MSTORE DUP1 PUSH1 0x0 DUP2 MSTORE PUSH1 0x20 ADD PUSH1 0x0 DUP2 MSTORE PUSH1 0x20 ADD PUSH1 0x0 DUP2 MSTORE PUSH1 0x20 ADD PUSH1 0x0 DUP2 MSTORE PUSH1 0x20 ADD PUSH1 0x0 DUP2 MSTORE PUSH1 0x20 ADD PUSH1 0x0 DUP2 MSTORE POP SWAP1 JUMP JUMPDEST PUSH1 0x3 SLOAD DUP2 MSTORE PUSH1 0x0 DUP5 DUP2 MSTORE PUSH1 0x9 PUSH1 0x20 SWAP1 DUP2 MSTORE PUSH1 0x40 DUP1 DUP4 KECCAK256 SLOAD DUP3 DUP6 ADD MSTORE DUP7 DUP4 MSTORE PUSH1 0xA DUP3 MSTORE DUP1 DUP4 KECCAK256 SWAP5 DUP4 MSTORE SWAP4 DUP2 MSTORE DUP4 DUP3 KECCAK256 SLOAD DUP5 DUP5 ADD MSTORE DUP6 DUP3 MSTORE PUSH1 0xB DUP2 MSTORE DUP4 DUP3 KECCAK256 SLOAD PUSH1 0x60 DUP5 ADD MSTORE PUSH1 0xD SLOAD PUSH1 0x80 DUP5 ADD MSTORE SWAP5 DUP2 MSTORE PUSH1 0xF DUP6 MSTORE DUP3 DUP2 KECCAK256 PUSH1 0x1 PUSH1 0x1 PUSH1 0xA0 SHL SUB SWAP1 SWAP5 AND DUP2 MSTORE SWAP3 SWAP1 SWAP4 MSTORE SWAP1 KECCAK256 SLOAD PUSH1 0xA0 DUP3 ADD MSTORE SWAP1 JUMP JUMPDEST DUP2 PUSH1 0x1 DUP1 PUSH2 0x1EB0 DUP4 PUSH2 0x12BC JUMP JUMPDEST PUSH1 0x6 DUP2 GT ISZERO PUSH2 0x1EC1 JUMPI PUSH2 0x1EC1 PUSH2 0x3743 JUMP JUMPDEST EQ PUSH2 0x1EDF JUMPI PUSH1 0x40 MLOAD PUSH4 0x263AB1FF PUSH1 0xE1 SHL DUP2 MSTORE PUSH1 0x4 ADD PUSH1 0x40 MLOAD DUP1 SWAP2 SUB SWAP1 REVERT JUMPDEST PUSH1 0x0 DUP5 DUP2 MSTORE PUSH1 0x8 PUSH1 0x20 DUP2 DUP2 MSTORE PUSH1 0x40 SWAP3 DUP4 SWAP1 KECCAK256 DUP4 MLOAD PUSH2 0x120 DUP2 ADD DUP6 MSTORE DUP2 SLOAD PUSH1 0x1 PUSH1 0x1 PUSH1 0xA0 SHL SUB AND DUP2 MSTORE PUSH1 0x1 DUP3 ADD SLOAD SWAP3 DUP2 ADD SWAP3 SWAP1 SWAP3 MSTORE PUSH1 0x2 DUP2 ADD SLOAD SWAP4 DUP3 ADD DUP5 SWAP1 MSTORE PUSH1 0x3 DUP2 ADD SLOAD PUSH1 0x60 DUP4 ADD MSTORE PUSH1 0x4 DUP2 ADD SLOAD PUSH1 0x80 DUP4 ADD MSTORE PUSH1 0x5 DUP2 ADD SLOAD PUSH1 0xA0 DUP4 ADD MSTORE PUSH1 0x6 DUP2 ADD SLOAD PUSH1 0xC0 DUP4 ADD MSTORE PUSH1 0x7 DUP2 ADD SLOAD PUSH1 0xFF AND ISZERO ISZERO PUSH1 0xE0 DUP4 ADD MSTORE SWAP1 SWAP2 ADD SLOAD PUSH2 0x100 DUP3 ADD MSTORE SWAP1 DUP5 GT DUP1 PUSH2 0x1F6B JUMPI POP DUP4 ISZERO JUMPDEST ISZERO PUSH2 0x1F89 JUMPI PUSH1 0x40 MLOAD PUSH4 0x24E7AF5B PUSH1 0xE0 SHL DUP2 MSTORE PUSH1 0x4 ADD PUSH1 0x40 MLOAD DUP1 SWAP2 SUB SWAP1 REVERT JUMPDEST DUP4 DUP2 PUSH1 0x60 ADD MLOAD PUSH2 0x1F99 SWAP2 SWAP1 PUSH2 0x3A6B JUMP JUMPDEST CALLVALUE EQ PUSH2 0x1FB8 JUMPI PUSH1 0x40 MLOAD PUSH4 0x788A686F PUSH1 0xE0 SHL DUP2 MSTORE PUSH1 0x4 ADD PUSH1 0x40 MLOAD DUP1 SWAP2 SUB SWAP1 REVERT JUMPDEST PUSH1 0x0 DUP6 DUP2 MSTORE PUSH1 0xF PUSH1 0x20 SWAP1 DUP2 MSTORE PUSH1 0x40 DUP1 DUP4 KECCAK256 CALLER DUP5 MSTORE SWAP1 SWAP2 MSTORE SWAP1 KECCAK256 SLOAD ISZERO PUSH2 0x1FEF JUMPI PUSH1 0x40 MLOAD PUSH3 0x1D9341 PUSH1 0xE1 SHL DUP2 MSTORE PUSH1 0x4 ADD PUSH1 0x40 MLOAD DUP1 SWAP2 SUB SWAP1 REVERT JUMPDEST PUSH1 0xD SLOAD PUSH2 0x1FFE SWAP1 PUSH1 0x2 SWAP1 PUSH2 0x3A44 JUMP JUMPDEST DUP5 DUP3 PUSH1 0x80 ADD MLOAD PUSH2 0x200E SWAP2 SWAP1 PUSH2 0x3A58 JUMP JUMPDEST GT ISZERO PUSH2 0x202D JUMPI PUSH1 0x40 MLOAD PUSH4 0xAC7D874B PUSH1 0xE0 SHL DUP2 MSTORE PUSH1 0x4 ADD PUSH1 0x40 MLOAD DUP1 SWAP2 SUB SWAP1 REVERT JUMPDEST PUSH1 0x0 DUP6 DUP2 MSTORE PUSH1 0x8 PUSH1 0x20 MSTORE PUSH1 0x40 DUP2 KECCAK256 PUSH1 0x4 ADD DUP1 SLOAD DUP7 SWAP3 SWAP1 PUSH2 0x204E SWAP1 DUP5 SWAP1 PUSH2 0x3A58 JUMP JUMPDEST SWAP1 SWAP2 SSTORE POP POP PUSH1 0x0 DUP6 DUP2 MSTORE PUSH1 0x8 PUSH1 0x20 DUP2 SWAP1 MSTORE PUSH1 0x40 DUP3 KECCAK256 ADD DUP1 SLOAD SWAP2 PUSH2 0x2070 DUP4 PUSH2 0x3A82 JUMP JUMPDEST SWAP2 SWAP1 POP SSTORE POP PUSH1 0x0 JUMPDEST DUP5 DUP2 LT ISZERO PUSH2 0x20B2 JUMPI PUSH1 0x0 DUP7 DUP2 MSTORE PUSH1 0xF PUSH1 0x20 SWAP1 DUP2 MSTORE PUSH1 0x40 DUP1 DUP4 KECCAK256 CALLER DUP5 MSTORE DUP3 MSTORE DUP3 KECCAK256 DUP1 SLOAD PUSH1 0x1 DUP2 DUP2 ADD DUP4 SSTORE SWAP2 DUP5 MSTORE SWAP2 SWAP1 SWAP3 KECCAK256 ADD DUP2 SWAP1 SSTORE ADD PUSH2 0x2078 JUMP JUMPDEST POP PUSH2 0x20C0 DUP5 DUP7 CALLER PUSH1 0x1 PUSH2 0x2B5B JUMP JUMPDEST POP PUSH1 0x40 DUP1 MLOAD DUP7 DUP2 MSTORE CALLER PUSH1 0x20 DUP3 ADD MSTORE SWAP1 DUP2 ADD DUP6 SWAP1 MSTORE PUSH32 0x3DFBE1FCB4E2D61F3B4A0C93D8F814C92250618B3387F396CC9FC9FAFE2C203 SWAP1 PUSH1 0x60 ADD PUSH2 0x1A65 JUMP JUMPDEST PUSH1 0xA PUSH1 0x20 MSTORE DUP3 PUSH1 0x0 MSTORE PUSH1 0x40 PUSH1 0x0 KECCAK256 PUSH1 0x20 MSTORE DUP2 PUSH1 0x0 MSTORE PUSH1 0x40 PUSH1 0x0 KECCAK256 DUP2 DUP2 SLOAD DUP2 LT PUSH2 0x2126 JUMPI PUSH1 0x0 DUP1 REVERT JUMPDEST PUSH1 0x0 SWAP2 DUP3 MSTORE PUSH1 0x20 SWAP1 SWAP2 KECCAK256 ADD SLOAD PUSH1 0x1 PUSH1 0x1 PUSH1 0xA0 SHL SUB AND SWAP3 POP DUP4 SWAP2 POP POP JUMP JUMPDEST DUP1 PUSH1 0x4 DUP1 PUSH2 0x2150 DUP4 PUSH2 0x12BC JUMP JUMPDEST PUSH1 0x6 DUP2 GT ISZERO PUSH2 0x2161 JUMPI PUSH2 0x2161 PUSH2 0x3743 JUMP JUMPDEST EQ PUSH2 0x217F JUMPI PUSH1 0x40 MLOAD PUSH4 0x263AB1FF PUSH1 0xE1 SHL DUP2 MSTORE PUSH1 0x4 ADD PUSH1 0x40 MLOAD DUP1 SWAP2 SUB SWAP1 REVERT JUMPDEST PUSH1 0x0 DUP4 DUP2 MSTORE PUSH1 0x10 PUSH1 0x20 MSTORE PUSH1 0x40 SWAP1 KECCAK256 SLOAD PUSH1 0xFF AND ISZERO PUSH2 0x21AF JUMPI PUSH1 0x40 MLOAD PUSH4 0x611AB189 PUSH1 0xE1 SHL DUP2 MSTORE PUSH1 0x4 ADD PUSH1 0x40 MLOAD DUP1 SWAP2 SUB SWAP1 REVERT JUMPDEST PUSH1 0x0 DUP4 DUP2 MSTORE PUSH1 0x8 PUSH1 0x20 DUP2 DUP2 MSTORE PUSH1 0x40 DUP1 DUP5 KECCAK256 DUP2 MLOAD PUSH2 0x120 DUP2 ADD DUP4 MSTORE DUP2 SLOAD PUSH1 0x1 PUSH1 0x1 PUSH1 0xA0 SHL SUB AND DUP2 MSTORE PUSH1 0x1 DUP3 ADD SLOAD SWAP4 DUP2 ADD SWAP4 SWAP1 SWAP4 MSTORE PUSH1 0x2 DUP2 ADD SLOAD SWAP2 DUP4 ADD SWAP2 SWAP1 SWAP2 MSTORE PUSH1 0x3 DUP2 ADD SLOAD PUSH1 0x60 DUP4 ADD DUP2 SWAP1 MSTORE PUSH1 0x4 DUP3 ADD SLOAD PUSH1 0x80 DUP5 ADD DUP2 SWAP1 MSTORE PUSH1 0x5 DUP4 ADD SLOAD PUSH1 0xA0 DUP6 ADD MSTORE PUSH1 0x6 DUP4 ADD SLOAD PUSH1 0xC0 DUP6 ADD MSTORE PUSH1 0x7 DUP4 ADD SLOAD PUSH1 0xFF AND ISZERO ISZERO PUSH1 0xE0 DUP6 ADD MSTORE SWAP2 SWAP1 SWAP4 ADD SLOAD PUSH2 0x100 DUP4 ADD MSTORE SWAP1 SWAP3 SWAP2 PUSH2 0x2241 SWAP2 SWAP1 PUSH2 0x3A6B JUMP JUMPDEST SWAP1 POP PUSH1 0x0 PUSH2 0x2710 DUP4 PUSH1 0xA0 ADD MLOAD DUP4 PUSH2 0x2258 SWAP2 SWAP1 PUSH2 0x3A6B JUMP JUMPDEST PUSH2 0x2262 SWAP2 SWAP1 PUSH2 0x3A44 JUMP JUMPDEST SWAP1 POP PUSH1 0x0 PUSH2 0x2710 PUSH2 0x2293 PUSH32 0x0 DUP5 PUSH2 0x3A6B JUMP JUMPDEST PUSH2 0x229D SWAP2 SWAP1 PUSH2 0x3A44 JUMP JUMPDEST SWAP1 POP PUSH1 0x0 PUSH2 0x2710 PUSH2 0x22CE PUSH32 0x0 DUP6 PUSH2 0x3A6B JUMP JUMPDEST PUSH2 0x22D8 SWAP2 SWAP1 PUSH2 0x3A44 JUMP JUMPDEST PUSH1 0x0 DUP10 DUP2 MSTORE PUSH1 0x10 PUSH1 0x20 MSTORE PUSH1 0x40 SWAP1 KECCAK256 DUP1 SLOAD PUSH1 0xFF NOT AND PUSH1 0x1 OR SWAP1 SSTORE SWAP1 POP PUSH2 0x231D PUSH32 0x0 DUP4 PUSH2 0x31A0 JUMP JUMPDEST PUSH2 0x2347 PUSH32 0x0 DUP3 PUSH2 0x31A0 JUMP JUMPDEST PUSH1 0x0 JUMPDEST PUSH1 0x5 DUP2 LT ISZERO PUSH2 0x2548 JUMPI PUSH1 0x0 DUP10 DUP2 MSTORE PUSH1 0xA PUSH1 0x20 SWAP1 DUP2 MSTORE PUSH1 0x40 DUP1 DUP4 KECCAK256 DUP5 DUP5 MSTORE DUP3 MSTORE DUP1 DUP4 KECCAK256 DUP1 SLOAD DUP3 MLOAD DUP2 DUP6 MUL DUP2 ADD DUP6 ADD SWAP1 SWAP4 MSTORE DUP1 DUP4 MSTORE SWAP2 SWAP3 SWAP1 SWAP2 SWAP1 DUP4 ADD DUP3 DUP3 DUP1 ISZERO PUSH2 0x23BB JUMPI PUSH1 0x20 MUL DUP3 ADD SWAP2 SWAP1 PUSH1 0x0 MSTORE PUSH1 0x20 PUSH1 0x0 KECCAK256 SWAP1 JUMPDEST DUP2 SLOAD PUSH1 0x1 PUSH1 0x1 PUSH1 0xA0 SHL SUB AND DUP2 MSTORE PUSH1 0x1 SWAP1 SWAP2 ADD SWAP1 PUSH1 0x20 ADD DUP1 DUP4 GT PUSH2 0x239D JUMPI JUMPDEST POP POP POP POP POP SWAP1 POP PUSH1 0x0 PUSH1 0x9 PUSH1 0x0 DUP13 DUP2 MSTORE PUSH1 0x20 ADD SWAP1 DUP2 MSTORE PUSH1 0x20 ADD PUSH1 0x0 KECCAK256 DUP4 DUP2 SLOAD DUP2 LT PUSH2 0x23E8 JUMPI PUSH2 0x23E8 PUSH2 0x3A02 JUMP JUMPDEST PUSH1 0x0 SWAP2 DUP3 MSTORE PUSH1 0x20 DUP1 DUP4 KECCAK256 PUSH1 0x40 DUP1 MLOAD DUP1 DUP3 ADD SWAP1 SWAP2 MSTORE PUSH1 0x2 SWAP1 SWAP4 MUL ADD DUP1 SLOAD DUP1 DUP5 MSTORE PUSH1 0x1 SWAP1 SWAP2 ADD SLOAD PUSH1 0xFF AND ISZERO ISZERO SWAP2 DUP4 ADD SWAP2 SWAP1 SWAP2 MSTORE SWAP1 SWAP3 POP PUSH2 0x2710 SWAP1 PUSH2 0x242A SWAP1 DUP11 PUSH2 0x3A6B JUMP JUMPDEST PUSH2 0x2434 SWAP2 SWAP1 PUSH2 0x3A44 JUMP JUMPDEST SWAP1 POP PUSH1 0x0 DUP4 MLOAD DUP3 PUSH2 0x2445 SWAP2 SWAP1 PUSH2 0x3A44 JUMP JUMPDEST SWAP1 POP PUSH1 0x0 JUMPDEST DUP5 MLOAD DUP2 LT ISZERO PUSH2 0x2537 JUMPI PUSH1 0x0 DUP6 DUP3 DUP2 MLOAD DUP2 LT PUSH2 0x2467 JUMPI PUSH2 0x2467 PUSH2 0x3A02 JUMP JUMPDEST PUSH1 0x20 MUL PUSH1 0x20 ADD ADD MLOAD PUSH1 0x1 PUSH1 0x1 PUSH1 0xA0 SHL SUB AND DUP4 PUSH1 0x0 PUSH8 0xFFFFFFFFFFFFFFFF DUP2 GT ISZERO PUSH2 0x2493 JUMPI PUSH2 0x2493 PUSH2 0x3A9B JUMP JUMPDEST PUSH1 0x40 MLOAD SWAP1 DUP1 DUP3 MSTORE DUP1 PUSH1 0x1F ADD PUSH1 0x1F NOT AND PUSH1 0x20 ADD DUP3 ADD PUSH1 0x40 MSTORE DUP1 ISZERO PUSH2 0x24BD JUMPI PUSH1 0x20 DUP3 ADD DUP2 DUP1 CALLDATASIZE DUP4 CALLDATACOPY ADD SWAP1 POP JUMPDEST POP PUSH1 0x40 MLOAD PUSH2 0x24CB SWAP2 SWAP1 PUSH2 0x3AD5 JUMP JUMPDEST PUSH1 0x0 PUSH1 0x40 MLOAD DUP1 DUP4 SUB DUP2 DUP6 DUP8 GAS CALL SWAP3 POP POP POP RETURNDATASIZE DUP1 PUSH1 0x0 DUP2 EQ PUSH2 0x2508 JUMPI PUSH1 0x40 MLOAD SWAP2 POP PUSH1 0x1F NOT PUSH1 0x3F RETURNDATASIZE ADD AND DUP3 ADD PUSH1 0x40 MSTORE RETURNDATASIZE DUP3 MSTORE RETURNDATASIZE PUSH1 0x0 PUSH1 0x20 DUP5 ADD RETURNDATACOPY PUSH2 0x250D JUMP JUMPDEST PUSH1 0x60 SWAP2 POP JUMPDEST POP POP SWAP1 POP DUP1 PUSH2 0x252E JUMPI DUP3 PUSH1 0x12 PUSH1 0x0 DUP3 DUP3 SLOAD PUSH2 0x2528 SWAP2 SWAP1 PUSH2 0x3A58 JUMP JUMPDEST SWAP1 SWAP2 SSTORE POP POP JUMPDEST POP PUSH1 0x1 ADD PUSH2 0x244A JUMP JUMPDEST POP POP PUSH1 0x1 SWAP1 SWAP4 ADD SWAP3 POP PUSH2 0x234A SWAP2 POP POP JUMP JUMPDEST POP PUSH1 0x40 DUP1 MLOAD DUP10 DUP2 MSTORE PUSH1 0x20 DUP2 ADD DUP7 SWAP1 MSTORE PUSH32 0x390A412D60A41CB44637E108B2D7355311C3FB9743AEF221B4958B29C5B590A8 SWAP2 ADD PUSH1 0x40 MLOAD DUP1 SWAP2 SUB SWAP1 LOG1 POP POP POP POP POP POP POP POP JUMP JUMPDEST PUSH1 0x3 DUP2 DUP2 SLOAD DUP2 LT PUSH2 0x259C JUMPI PUSH1 0x0 DUP1 REVERT JUMPDEST SWAP1 PUSH1 0x0 MSTORE PUSH1 0x20 PUSH1 0x0 KECCAK256 SWAP1 PUSH1 0x20 SWAP2 DUP3 DUP3 DIV ADD SWAP2 SWAP1 MOD SWAP2 POP SLOAD SWAP1 PUSH2 0x100 EXP SWAP1 DIV PUSH1 0xFF AND DUP2 JUMP JUMPDEST CALLER PUSH1 0x0 SWAP1 DUP2 MSTORE PUSH1 0x6 PUSH1 0x20 MSTORE PUSH1 0x40 SWAP1 KECCAK256 SLOAD DUP2 SWAP1 PUSH1 0xFF AND PUSH2 0x25F1 JUMPI PUSH1 0x40 MLOAD PUSH3 0x82B429 PUSH1 0xE8 SHL DUP2 MSTORE PUSH1 0x4 ADD PUSH1 0x40 MLOAD DUP1 SWAP2 SUB SWAP1 REVERT JUMPDEST DUP1 ISZERO DUP1 ISZERO SWAP1 PUSH2 0x2617 JUMPI POP PUSH1 0x0 DUP2 DUP2 MSTORE PUSH1 0x8 PUSH1 0x20 MSTORE PUSH1 0x40 SWAP1 KECCAK256 SLOAD PUSH1 0x1 PUSH1 0x1 PUSH1 0xA0 SHL SUB AND CALLER EQ ISZERO JUMPDEST ISZERO PUSH2 0x2634 JUMPI PUSH1 0x40 MLOAD PUSH3 0x82B429 PUSH1 0xE8 SHL DUP2 MSTORE PUSH1 0x4 ADD PUSH1 0x40 MLOAD DUP1 SWAP2 SUB SWAP1 REVERT JUMPDEST DUP2 PUSH1 0x2 DUP1 PUSH2 0x2641 DUP4 PUSH2 0x12BC JUMP JUMPDEST PUSH1 0x6 DUP2 GT ISZERO PUSH2 0x2652 JUMPI PUSH2 0x2652 PUSH2 0x3743 JUMP JUMPDEST EQ PUSH2 0x2670 JUMPI PUSH1 0x40 MLOAD PUSH4 0x263AB1FF PUSH1 0xE1 SHL DUP2 MSTORE PUSH1 0x4 ADD PUSH1 0x40 MLOAD DUP1 SWAP2 SUB SWAP1 REVERT JUMPDEST PUSH1 0x0 DUP5 DUP2 MSTORE PUSH1 0x8 PUSH1 0x20 MSTORE PUSH1 0x40 SWAP1 KECCAK256 PUSH1 0x6 ADD SLOAD ISZERO PUSH2 0x26A0 JUMPI PUSH1 0x40 MLOAD PUSH4 0xBA26162B PUSH1 0xE0 SHL DUP2 MSTORE PUSH1 0x4 ADD PUSH1 0x40 MLOAD DUP1 SWAP2 SUB SWAP1 REVERT JUMPDEST PUSH2 0x26AF PUSH1 0x1 DUP6 PUSH1 0x0 PUSH1 0x3 PUSH2 0x2B5B JUMP JUMPDEST POP PUSH1 0x0 DUP5 DUP2 MSTORE PUSH1 0x8 PUSH1 0x20 MSTORE PUSH1 0x40 SWAP1 DUP2 SWAP1 KECCAK256 PUSH1 0x1 PUSH1 0x6 SWAP1 SWAP2 ADD SSTORE MLOAD PUSH32 0x50AD08F58A27F2851D7E3A1B3A6A46B290F2CE677E99642D30FF639721E77790 SWAP1 PUSH2 0x16EC SWAP1 DUP7 DUP2 MSTORE PUSH1 0x20 ADD SWAP1 JUMP JUMPDEST PUSH2 0x2700 PUSH2 0x32FC JUMP JUMPDEST PUSH2 0x2709 DUP2 PUSH2 0x3351 JUMP JUMPDEST POP JUMP JUMPDEST CALLER PUSH1 0x0 SWAP1 DUP2 MSTORE PUSH1 0x5 PUSH1 0x20 MSTORE PUSH1 0x40 SWAP1 KECCAK256 SLOAD PUSH1 0xFF AND PUSH2 0x273B JUMPI PUSH1 0x40 MLOAD PUSH3 0x82B429 PUSH1 0xE8 SHL DUP2 MSTORE PUSH1 0x4 ADD PUSH1 0x40 MLOAD DUP1 SWAP2 SUB SWAP1 REVERT JUMPDEST PUSH1 0x0 JUMPDEST DUP2 DUP2 LT ISZERO PUSH2 0x2784 JUMPI PUSH1 0xD DUP4 DUP4 DUP4 DUP2 DUP2 LT PUSH2 0x275A JUMPI PUSH2 0x275A PUSH2 0x3A02 JUMP JUMPDEST DUP4 SLOAD PUSH1 0x1 DUP1 DUP3 ADD DUP7 SSTORE PUSH1 0x0 SWAP6 DUP7 MSTORE PUSH1 0x20 SWAP6 DUP7 SWAP1 KECCAK256 SWAP3 SWAP1 SWAP6 MUL SWAP4 SWAP1 SWAP4 ADD CALLDATALOAD SWAP3 ADD SWAP2 SWAP1 SWAP2 SSTORE POP ADD PUSH2 0x273E JUMP JUMPDEST POP PUSH1 0xD SLOAD PUSH1 0x40 DUP1 MLOAD DUP4 DUP2 MSTORE PUSH1 0x20 DUP2 ADD SWAP3 SWAP1 SWAP3 MSTORE PUSH32 0x177B4D4352D7390F8B4072E4704932D89B61ED3FEB0E68BE4B2E329A05C0E389 SWAP2 ADD PUSH2 0x1494 JUMP JUMPDEST CALLER PUSH1 0x0 SWAP1 DUP2 MSTORE PUSH1 0x6 PUSH1 0x20 MSTORE PUSH1 0x40 DUP2 KECCAK256 SLOAD DUP3 SWAP1 PUSH1 0xFF AND PUSH2 0x27F0 JUMPI PUSH1 0x40 MLOAD PUSH3 0x82B429 PUSH1 0xE8 SHL DUP2 MSTORE PUSH1 0x4 ADD PUSH1 0x40 MLOAD DUP1 SWAP2 SUB SWAP1 REVERT JUMPDEST DUP1 ISZERO DUP1 ISZERO SWAP1 PUSH2 0x2816 JUMPI POP PUSH1 0x0 DUP2 DUP2 MSTORE PUSH1 0x8 PUSH1 0x20 MSTORE PUSH1 0x40 SWAP1 KECCAK256 SLOAD PUSH1 0x1 PUSH1 0x1 PUSH1 0xA0 SHL SUB AND CALLER EQ ISZERO JUMPDEST ISZERO PUSH2 0x2833 JUMPI PUSH1 0x40 MLOAD PUSH3 0x82B429 PUSH1 0xE8 SHL DUP2 MSTORE PUSH1 0x4 ADD PUSH1 0x40 MLOAD DUP1 SWAP2 SUB SWAP1 REVERT JUMPDEST DUP3 PUSH1 0x3 DUP1 PUSH2 0x2840 DUP4 PUSH2 0x12BC JUMP JUMPDEST PUSH1 0x6 DUP2 GT ISZERO PUSH2 0x2851 JUMPI PUSH2 0x2851 PUSH2 0x3743 JUMP JUMPDEST EQ PUSH2 0x286F JUMPI PUSH1 0x40 MLOAD PUSH4 0x263AB1FF PUSH1 0xE1 SHL DUP2 MSTORE PUSH1 0x4 ADD PUSH1 0x40 MLOAD DUP1 SWAP2 SUB SWAP1 REVERT JUMPDEST PUSH1 0x0 DUP6 DUP2 MSTORE PUSH1 0x8 PUSH1 0x20 MSTORE PUSH1 0x40 SWAP1 KECCAK256 PUSH1 0x6 ADD SLOAD PUSH1 0x2 DUP2 LT ISZERO PUSH2 0x28A3 JUMPI PUSH1 0x40 MLOAD PUSH4 0xBE4981D PUSH1 0xE1 SHL DUP2 MSTORE PUSH1 0x4 ADD PUSH1 0x40 MLOAD DUP1 SWAP2 SUB SWAP1 REVERT JUMPDEST PUSH1 0x0 PUSH2 0x28AE DUP8 PUSH2 0x33FA JUMP JUMPDEST SWAP1 POP DUP1 ISZERO PUSH2 0x28F3 JUMPI PUSH1 0x40 MLOAD DUP8 DUP2 MSTORE PUSH31 0x66784F5EB6C952749F91053C22EA083DD3CB766913C0733AA779DCC724F60E SWAP1 PUSH1 0x20 ADD PUSH1 0x40 MLOAD DUP1 SWAP2 SUB SWAP1 LOG1 PUSH1 0x0 SWAP6 POP POP POP PUSH2 0x2B15 JUMP JUMPDEST PUSH1 0x0 DUP8 DUP2 MSTORE PUSH1 0xB PUSH1 0x20 MSTORE PUSH1 0x40 DUP2 KECCAK256 SLOAD PUSH2 0x290D SWAP1 PUSH1 0x4B PUSH2 0x3AF1 JUMP JUMPDEST PUSH1 0x0 DUP10 DUP2 MSTORE PUSH1 0xB PUSH1 0x20 MSTORE PUSH1 0x40 DUP2 KECCAK256 SLOAD SWAP2 SWAP3 POP SWAP1 PUSH2 0x292A DUP4 DUP7 PUSH2 0x3A58 JUMP JUMPDEST PUSH1 0x40 MLOAD PUSH1 0x20 ADD PUSH2 0x293C SWAP2 DUP2 MSTORE PUSH1 0x20 ADD SWAP1 JUMP JUMPDEST PUSH1 0x40 MLOAD PUSH1 0x20 DUP2 DUP4 SUB SUB DUP2 MSTORE SWAP1 PUSH1 0x40 MSTORE DUP1 MLOAD SWAP1 PUSH1 0x20 ADD KECCAK256 PUSH1 0x0 SHR PUSH2 0x295F SWAP2 SWAP1 PUSH2 0x3B04 JUMP JUMPDEST PUSH1 0x0 DUP11 DUP2 MSTORE PUSH1 0xB PUSH1 0x20 MSTORE PUSH1 0x40 SWAP1 KECCAK256 DUP1 SLOAD SWAP2 SWAP3 POP SWAP1 DUP3 SWAP1 DUP2 LT PUSH2 0x2983 JUMPI PUSH2 0x2983 PUSH2 0x3A02 JUMP JUMPDEST PUSH1 0x0 SWAP2 DUP3 MSTORE PUSH1 0x20 DUP1 DUP4 KECCAK256 DUP2 DUP4 DIV ADD SLOAD DUP13 DUP5 MSTORE PUSH1 0xC DUP3 MSTORE PUSH1 0x40 DUP1 DUP6 KECCAK256 PUSH1 0xFF PUSH1 0x1F SWAP1 SWAP6 AND PUSH2 0x100 EXP SWAP1 SWAP3 DIV DUP5 AND DUP1 DUP7 MSTORE SWAP2 SWAP1 SWAP3 MSTORE SWAP3 KECCAK256 SLOAD SWAP2 SWAP10 POP AND ISZERO PUSH2 0x29C9 JUMPI PUSH2 0x29C9 PUSH2 0x3B18 JUMP JUMPDEST PUSH1 0x0 DUP10 DUP2 MSTORE PUSH1 0xB PUSH1 0x20 MSTORE PUSH1 0x40 SWAP1 KECCAK256 DUP1 SLOAD PUSH2 0x29E5 SWAP1 PUSH1 0x1 SWAP1 PUSH2 0x3AF1 JUMP JUMPDEST DUP2 SLOAD DUP2 LT PUSH2 0x29F5 JUMPI PUSH2 0x29F5 PUSH2 0x3A02 JUMP JUMPDEST SWAP1 PUSH1 0x0 MSTORE PUSH1 0x20 PUSH1 0x0 KECCAK256 SWAP1 PUSH1 0x20 SWAP2 DUP3 DUP3 DIV ADD SWAP2 SWAP1 MOD SWAP1 SLOAD SWAP1 PUSH2 0x100 EXP SWAP1 DIV PUSH1 0xFF AND PUSH1 0xB PUSH1 0x0 DUP12 DUP2 MSTORE PUSH1 0x20 ADD SWAP1 DUP2 MSTORE PUSH1 0x20 ADD PUSH1 0x0 KECCAK256 DUP3 DUP2 SLOAD DUP2 LT PUSH2 0x2A39 JUMPI PUSH2 0x2A39 PUSH2 0x3A02 JUMP JUMPDEST SWAP1 PUSH1 0x0 MSTORE PUSH1 0x20 PUSH1 0x0 KECCAK256 SWAP1 PUSH1 0x20 SWAP2 DUP3 DUP3 DIV ADD SWAP2 SWAP1 MOD PUSH2 0x100 EXP DUP2 SLOAD DUP2 PUSH1 0xFF MUL NOT AND SWAP1 DUP4 PUSH1 0xFF AND MUL OR SWAP1 SSTORE POP PUSH1 0xB PUSH1 0x0 DUP11 DUP2 MSTORE PUSH1 0x20 ADD SWAP1 DUP2 MSTORE PUSH1 0x20 ADD PUSH1 0x0 KECCAK256 DUP1 SLOAD DUP1 PUSH2 0x2A85 JUMPI PUSH2 0x2A85 PUSH2 0x3B2E JUMP JUMPDEST PUSH1 0x0 DUP3 DUP2 MSTORE PUSH1 0x20 DUP1 DUP3 KECCAK256 PUSH1 0x0 NOT SWAP4 SWAP1 SWAP4 ADD DUP2 DUP2 DIV SWAP1 SWAP4 ADD DUP1 SLOAD PUSH1 0xFF PUSH1 0x1F DUP7 AND PUSH2 0x100 EXP DUP2 MUL NOT SWAP1 SWAP2 AND SWAP1 SWAP2 SSTORE SWAP3 SWAP1 SWAP4 SSTORE DUP12 DUP2 MSTORE PUSH1 0xC DUP4 MSTORE PUSH1 0x40 DUP1 DUP3 KECCAK256 SWAP3 DUP13 AND DUP1 DUP4 MSTORE SWAP3 DUP5 MSTORE SWAP1 DUP2 SWAP1 KECCAK256 DUP1 SLOAD PUSH1 0xFF NOT AND PUSH1 0x1 OR SWAP1 SSTORE DUP1 MLOAD DUP13 DUP2 MSTORE SWAP3 DUP4 ADD SWAP2 SWAP1 SWAP2 MSTORE PUSH32 0xAFC498D7D3D2C521010EE0E69DECF620932EB8965A8620D33F15964611B501BF SWAP2 ADD PUSH1 0x40 MLOAD DUP1 SWAP2 SUB SWAP1 LOG1 POP POP POP POP JUMPDEST POP POP POP SWAP2 SWAP1 POP JUMP JUMPDEST PUSH1 0xF PUSH1 0x20 MSTORE DUP3 PUSH1 0x0 MSTORE PUSH1 0x40 PUSH1 0x0 KECCAK256 PUSH1 0x20 MSTORE DUP2 PUSH1 0x0 MSTORE PUSH1 0x40 PUSH1 0x0 KECCAK256 DUP2 DUP2 SLOAD DUP2 LT PUSH2 0x2B45 JUMPI PUSH1 0x0 DUP1 REVERT JUMPDEST SWAP1 PUSH1 0x0 MSTORE PUSH1 0x20 PUSH1 0x0 KECCAK256 ADD PUSH1 0x0 SWAP3 POP SWAP3 POP POP POP SLOAD DUP2 JUMP JUMPDEST PUSH1 0x0 DUP1 PUSH1 0x40 MLOAD DUP1 PUSH1 0xC0 ADD PUSH1 0x40 MSTORE DUP1 PUSH32 0x0 DUP2 MSTORE PUSH1 0x20 ADD PUSH32 0x0 DUP2 MSTORE PUSH1 0x20 ADD PUSH1 0x3 PUSH2 0xFFFF AND DUP2 MSTORE PUSH1 0x20 ADD PUSH32 0x0 PUSH4 0xFFFFFFFF AND DUP2 MSTORE PUSH1 0x20 ADD DUP8 PUSH4 0xFFFFFFFF AND DUP2 MSTORE PUSH1 0x20 ADD PUSH2 0x2C12 PUSH1 0x40 MLOAD DUP1 PUSH1 0x20 ADD PUSH1 0x40 MSTORE DUP1 PUSH1 0x0 ISZERO ISZERO DUP2 MSTORE POP PUSH2 0x34C9 JUMP JUMPDEST SWAP1 MSTORE PUSH1 0x2 SLOAD PUSH1 0x40 MLOAD PUSH4 0x4D8E1C2F PUSH1 0xE1 SHL DUP2 MSTORE SWAP2 SWAP3 POP PUSH1 0x1 PUSH1 0x1 PUSH1 0xA0 SHL SUB AND SWAP1 PUSH4 0x9B1C385E SWAP1 PUSH2 0x2C45 SWAP1 DUP5 SWAP1 PUSH1 0x4 ADD PUSH2 0x3B44 JUMP JUMPDEST PUSH1 0x20 PUSH1 0x40 MLOAD DUP1 DUP4 SUB DUP2 PUSH1 0x0 DUP8 GAS CALL ISZERO DUP1 ISZERO PUSH2 0x2C64 JUMPI RETURNDATASIZE PUSH1 0x0 DUP1 RETURNDATACOPY RETURNDATASIZE PUSH1 0x0 REVERT JUMPDEST POP POP POP POP PUSH1 0x40 MLOAD RETURNDATASIZE PUSH1 0x1F NOT PUSH1 0x1F DUP3 ADD AND DUP3 ADD DUP1 PUSH1 0x40 MSTORE POP DUP2 ADD SWAP1 PUSH2 0x2C88 SWAP2 SWAP1 PUSH2 0x3BC6 JUMP JUMPDEST SWAP2 POP PUSH1 0x40 MLOAD DUP1 PUSH1 0x60 ADD PUSH1 0x40 MSTORE DUP1 DUP7 DUP2 MSTORE PUSH1 0x20 ADD DUP6 PUSH1 0x1 PUSH1 0x1 PUSH1 0xA0 SHL SUB AND DUP2 MSTORE PUSH1 0x20 ADD DUP5 PUSH1 0x3 DUP2 GT ISZERO PUSH2 0x2CBC JUMPI PUSH2 0x2CBC PUSH2 0x3743 JUMP JUMPDEST SWAP1 MSTORE PUSH1 0x0 DUP4 DUP2 MSTORE PUSH1 0x4 PUSH1 0x20 SWAP1 DUP2 MSTORE PUSH1 0x40 SWAP2 DUP3 SWAP1 KECCAK256 DUP4 MLOAD DUP2 SSTORE SWAP1 DUP4 ADD MLOAD PUSH1 0x1 DUP3 ADD DUP1 SLOAD PUSH1 0x1 PUSH1 0x1 PUSH1 0xA0 SHL SUB SWAP1 SWAP3 AND PUSH1 0x1 PUSH1 0x1 PUSH1 0xA0 SHL SUB NOT DUP4 AND DUP2 OR DUP3 SSTORE SWAP4 DUP6 ADD MLOAD SWAP3 SWAP4 SWAP1 SWAP2 PUSH1 0x1 PUSH1 0x1 PUSH1 0xA8 SHL SUB NOT AND OR PUSH1 0x1 PUSH1 0xA0 SHL DUP4 PUSH1 0x3 DUP2 GT ISZERO PUSH2 0x2D22 JUMPI PUSH2 0x2D22 PUSH2 0x3743 JUMP JUMPDEST MUL OR SWAP1 SSTORE POP POP PUSH1 0x40 DUP1 MLOAD DUP5 DUP2 MSTORE PUSH4 0xFFFFFFFF DUP10 AND PUSH1 0x20 DUP3 ADD MSTORE PUSH32 0xCC58B13AD3EAB50626C6A6300B1D139CD6EBB1688A7CCED9461C2F7E762665EE SWAP3 POP ADD PUSH1 0x40 MLOAD DUP1 SWAP2 SUB SWAP1 LOG1 POP SWAP5 SWAP4 POP POP POP POP JUMP JUMPDEST PUSH1 0x0 DUP4 DUP2 MSTORE PUSH1 0x4 PUSH1 0x20 SWAP1 DUP2 MSTORE PUSH1 0x40 DUP1 DUP4 KECCAK256 DUP2 MLOAD PUSH1 0x60 DUP2 ADD DUP4 MSTORE DUP2 SLOAD DUP2 MSTORE PUSH1 0x1 DUP3 ADD SLOAD PUSH1 0x1 PUSH1 0x1 PUSH1 0xA0 SHL SUB DUP2 AND SWAP5 DUP3 ADD SWAP5 SWAP1 SWAP5 MSTORE SWAP3 SWAP1 SWAP2 DUP4 ADD SWAP1 PUSH1 0x1 PUSH1 0xA0 SHL SWAP1 DIV PUSH1 0xFF AND PUSH1 0x3 DUP2 GT ISZERO PUSH2 0x2DC4 JUMPI PUSH2 0x2DC4 PUSH2 0x3743 JUMP JUMPDEST PUSH1 0x3 DUP2 GT ISZERO PUSH2 0x2DD5 JUMPI PUSH2 0x2DD5 PUSH2 0x3743 JUMP JUMPDEST SWAP1 MSTORE POP SWAP1 POP PUSH1 0x0 DUP2 PUSH1 0x40 ADD MLOAD PUSH1 0x3 DUP2 GT ISZERO PUSH2 0x2DF2 JUMPI PUSH2 0x2DF2 PUSH2 0x3743 JUMP JUMPDEST SUB PUSH2 0x2E13 JUMPI PUSH1 0x40 MLOAD PUSH4 0xCBE3685 PUSH1 0xE2 SHL DUP2 MSTORE PUSH1 0x4 DUP2 ADD DUP6 SWAP1 MSTORE PUSH1 0x24 ADD PUSH2 0xEC5 JUMP JUMPDEST PUSH1 0x1 DUP2 PUSH1 0x40 ADD MLOAD PUSH1 0x3 DUP2 GT ISZERO PUSH2 0x2E2B JUMPI PUSH2 0x2E2B PUSH2 0x3743 JUMP JUMPDEST EQ DUP1 ISZERO PUSH2 0x2E7A JUMPI POP DUP1 MLOAD PUSH1 0x0 SWAP1 DUP2 MSTORE PUSH1 0xF PUSH1 0x20 SWAP1 DUP2 MSTORE PUSH1 0x40 DUP1 DUP4 KECCAK256 DUP3 DUP6 ADD MLOAD PUSH1 0x1 PUSH1 0x1 PUSH1 0xA0 SHL SUB AND DUP5 MSTORE SWAP1 SWAP2 MSTORE DUP2 KECCAK256 DUP1 SLOAD SWAP1 SWAP2 SWAP1 PUSH2 0x2E6B JUMPI PUSH2 0x2E6B PUSH2 0x3A02 JUMP JUMPDEST SWAP1 PUSH1 0x0 MSTORE PUSH1 0x20 PUSH1 0x0 KECCAK256 ADD SLOAD PUSH1 0x1 EQ JUMPDEST ISZERO PUSH2 0x2F2F JUMPI PUSH1 0x0 JUMPDEST DUP3 DUP2 LT ISZERO PUSH2 0x2F29 JUMPI PUSH1 0x0 DUP5 DUP5 DUP4 DUP2 DUP2 LT PUSH2 0x2E9E JUMPI PUSH2 0x2E9E PUSH2 0x3A02 JUMP JUMPDEST SWAP1 POP PUSH1 0x20 MUL ADD CALLDATALOAD SWAP1 POP PUSH1 0x0 PUSH2 0x2EB7 DUP5 PUSH1 0x0 ADD MLOAD DUP4 PUSH2 0x353A JUMP JUMPDEST DUP5 MLOAD PUSH1 0x0 SWAP1 DUP2 MSTORE PUSH1 0xE PUSH1 0x20 SWAP1 DUP2 MSTORE PUSH1 0x40 DUP1 DUP4 KECCAK256 DUP5 DUP5 MSTORE DUP3 MSTORE DUP1 DUP4 KECCAK256 DUP1 SLOAD PUSH1 0xFF NOT AND PUSH1 0x1 OR SWAP1 SSTORE DUP8 MLOAD DUP4 MSTORE PUSH1 0xF DUP3 MSTORE DUP1 DUP4 KECCAK256 DUP3 DUP10 ADD MLOAD PUSH1 0x1 PUSH1 0x1 PUSH1 0xA0 SHL SUB AND DUP5 MSTORE SWAP1 SWAP2 MSTORE SWAP1 KECCAK256 DUP1 SLOAD SWAP2 SWAP3 POP DUP3 SWAP2 DUP6 SWAP1 DUP2 LT PUSH2 0x2F13 JUMPI PUSH2 0x2F13 PUSH2 0x3A02 JUMP JUMPDEST PUSH1 0x0 SWAP2 DUP3 MSTORE PUSH1 0x20 SWAP1 SWAP2 KECCAK256 ADD SSTORE POP POP PUSH1 0x1 ADD PUSH2 0x2E82 JUMP JUMPDEST POP PUSH2 0x3132 JUMP JUMPDEST PUSH1 0x2 DUP2 PUSH1 0x40 ADD MLOAD PUSH1 0x3 DUP2 GT ISZERO PUSH2 0x2F47 JUMPI PUSH2 0x2F47 PUSH2 0x3743 JUMP JUMPDEST SUB PUSH2 0x309F JUMPI PUSH1 0x0 NOT PUSH1 0x0 JUMPDEST DUP3 MLOAD PUSH1 0x0 SWAP1 DUP2 MSTORE PUSH1 0xF PUSH1 0x20 SWAP1 DUP2 MSTORE PUSH1 0x40 DUP1 DUP4 KECCAK256 DUP3 DUP8 ADD MLOAD PUSH1 0x1 PUSH1 0x1 PUSH1 0xA0 SHL SUB AND DUP5 MSTORE SWAP1 SWAP2 MSTORE SWAP1 KECCAK256 SLOAD DUP2 LT ISZERO PUSH2 0x2FDC JUMPI DUP3 MLOAD PUSH1 0x0 SWAP1 DUP2 MSTORE PUSH1 0xF PUSH1 0x20 SWAP1 DUP2 MSTORE PUSH1 0x40 DUP1 DUP4 KECCAK256 DUP3 DUP8 ADD MLOAD PUSH1 0x1 PUSH1 0x1 PUSH1 0xA0 SHL SUB AND DUP5 MSTORE SWAP1 SWAP2 MSTORE SWAP1 KECCAK256 DUP1 SLOAD DUP3 SWAP1 DUP2 LT PUSH2 0x2FBA JUMPI PUSH2 0x2FBA PUSH2 0x3A02 JUMP JUMPDEST SWAP1 PUSH1 0x0 MSTORE PUSH1 0x20 PUSH1 0x0 KECCAK256 ADD SLOAD PUSH1 0x1 SUB PUSH2 0x2FD4 JUMPI DUP1 SWAP2 POP PUSH2 0x2FDC JUMP JUMPDEST PUSH1 0x1 ADD PUSH2 0x2F52 JUMP JUMPDEST POP PUSH1 0x0 NOT DUP2 SUB PUSH2 0x2FFF JUMPI PUSH1 0x40 MLOAD PUSH4 0x4792011 PUSH1 0xE4 SHL DUP2 MSTORE PUSH1 0x4 ADD PUSH1 0x40 MLOAD DUP1 SWAP2 SUB SWAP1 REVERT JUMPDEST PUSH1 0x0 DUP5 DUP5 PUSH1 0x0 DUP2 DUP2 LT PUSH2 0x3014 JUMPI PUSH2 0x3014 PUSH2 0x3A02 JUMP JUMPDEST SWAP1 POP PUSH1 0x20 MUL ADD CALLDATALOAD SWAP1 POP PUSH1 0x0 PUSH2 0x302D DUP5 PUSH1 0x0 ADD MLOAD DUP4 PUSH2 0x353A JUMP JUMPDEST DUP5 MLOAD PUSH1 0x0 SWAP1 DUP2 MSTORE PUSH1 0xE PUSH1 0x20 SWAP1 DUP2 MSTORE PUSH1 0x40 DUP1 DUP4 KECCAK256 DUP5 DUP5 MSTORE DUP3 MSTORE DUP1 DUP4 KECCAK256 DUP1 SLOAD PUSH1 0xFF NOT AND PUSH1 0x1 OR SWAP1 SSTORE DUP8 MLOAD DUP4 MSTORE PUSH1 0xF DUP3 MSTORE DUP1 DUP4 KECCAK256 DUP3 DUP10 ADD MLOAD PUSH1 0x1 PUSH1 0x1 PUSH1 0xA0 SHL SUB AND DUP5 MSTORE SWAP1 SWAP2 MSTORE SWAP1 KECCAK256 DUP1 SLOAD SWAP2 SWAP3 POP DUP3 SWAP2 DUP6 SWAP1 DUP2 LT PUSH2 0x3089 JUMPI PUSH2 0x3089 PUSH2 0x3A02 JUMP JUMPDEST SWAP1 PUSH1 0x0 MSTORE PUSH1 0x20 PUSH1 0x0 KECCAK256 ADD DUP2 SWAP1 SSTORE POP POP POP POP PUSH2 0x3132 JUMP JUMPDEST PUSH1 0x3 DUP2 PUSH1 0x40 ADD MLOAD PUSH1 0x3 DUP2 GT ISZERO PUSH2 0x30B7 JUMPI PUSH2 0x30B7 PUSH2 0x3743 JUMP JUMPDEST EQ DUP1 ISZERO PUSH2 0x30D7 JUMPI POP DUP1 MLOAD PUSH1 0x0 SWAP1 DUP2 MSTORE PUSH1 0x8 PUSH1 0x20 MSTORE PUSH1 0x40 SWAP1 KECCAK256 PUSH1 0x6 ADD SLOAD PUSH1 0x1 EQ JUMPDEST ISZERO PUSH2 0x3119 JUMPI DUP3 DUP3 PUSH1 0x0 DUP2 DUP2 LT PUSH2 0x30EF JUMPI PUSH2 0x30EF PUSH2 0x3A02 JUMP JUMPDEST SWAP1 POP PUSH1 0x20 MUL ADD CALLDATALOAD PUSH1 0x8 PUSH1 0x0 DUP4 PUSH1 0x0 ADD MLOAD DUP2 MSTORE PUSH1 0x20 ADD SWAP1 DUP2 MSTORE PUSH1 0x20 ADD PUSH1 0x0 KECCAK256 PUSH1 0x6 ADD DUP2 SWAP1 SSTORE POP PUSH2 0x3132 JUMP JUMPDEST PUSH1 0x40 MLOAD PUSH4 0x6D080297 PUSH1 0xE0 SHL DUP2 MSTORE PUSH1 0x4 ADD PUSH1 0x40 MLOAD DUP1 SWAP2 SUB SWAP1 REVERT JUMPDEST DUP1 PUSH1 0x40 ADD MLOAD PUSH1 0x3 DUP2 GT ISZERO PUSH2 0x3148 JUMPI PUSH2 0x3148 PUSH2 0x3743 JUMP JUMPDEST PUSH1 0x20 DUP3 DUP2 ADD MLOAD PUSH1 0x40 DUP1 MLOAD DUP9 DUP2 MSTORE PUSH1 0x1 PUSH1 0x1 PUSH1 0xA0 SHL SUB SWAP1 SWAP3 AND SWAP3 DUP3 ADD SWAP3 SWAP1 SWAP3 MSTORE SWAP1 DUP2 ADD DUP5 SWAP1 MSTORE PUSH32 0x3FD696057E834A199DA5561585AA71F4ACA3FFDF15CCD268FB3B41FD86C1326A SWAP1 PUSH1 0x60 ADD PUSH1 0x40 MLOAD DUP1 SWAP2 SUB SWAP1 LOG2 POP POP POP POP JUMP JUMPDEST PUSH1 0x40 DUP1 MLOAD PUSH1 0x0 DUP1 DUP3 MSTORE PUSH1 0x20 DUP3 ADD SWAP1 SWAP3 MSTORE PUSH1 0x1 PUSH1 0x1 PUSH1 0xA0 SHL SUB DUP5 AND SWAP1 DUP4 SWAP1 PUSH1 0x40 MLOAD PUSH2 0x31CA SWAP2 SWAP1 PUSH2 0x3AD5 JUMP JUMPDEST PUSH1 0x0 PUSH1 0x40 MLOAD DUP1 DUP4 SUB DUP2 DUP6 DUP8 GAS CALL SWAP3 POP POP POP RETURNDATASIZE DUP1 PUSH1 0x0 DUP2 EQ PUSH2 0x3207 JUMPI PUSH1 0x40 MLOAD SWAP2 POP PUSH1 0x1F NOT PUSH1 0x3F RETURNDATASIZE ADD AND DUP3 ADD PUSH1 0x40 MSTORE RETURNDATASIZE DUP3 MSTORE RETURNDATASIZE PUSH1 0x0 PUSH1 0x20 DUP5 ADD RETURNDATACOPY PUSH2 0x320C JUMP JUMPDEST PUSH1 0x60 SWAP2 POP JUMPDEST POP POP SWAP1 POP DUP1 PUSH2 0xED9 JUMPI PUSH1 0x40 MLOAD PUSH4 0x12171D83 PUSH1 0xE3 SHL DUP2 MSTORE PUSH1 0x4 ADD PUSH1 0x40 MLOAD DUP1 SWAP2 SUB SWAP1 REVERT JUMPDEST PUSH1 0x0 DUP3 PUSH1 0x1 SUB PUSH2 0x3240 JUMPI POP PUSH1 0x0 PUSH2 0x32F5 JUMP JUMPDEST PUSH1 0x0 PUSH2 0x324D DUP4 PUSH1 0x5 PUSH2 0x3AF1 JUMP JUMPDEST SWAP1 POP PUSH1 0x0 DUP1 JUMPDEST PUSH1 0x5 DUP2 LT ISZERO PUSH2 0x32ED JUMPI PUSH1 0x0 DUP1 JUMPDEST PUSH1 0x5 DUP2 LT ISZERO PUSH2 0x32CF JUMPI PUSH1 0x0 DUP10 DUP2 MSTORE PUSH1 0xC PUSH1 0x20 SWAP1 DUP2 MSTORE PUSH1 0x40 DUP1 DUP4 KECCAK256 PUSH1 0xFF DUP1 DUP14 AND DUP1 DUP7 MSTORE SWAP2 SWAP1 SWAP4 MSTORE SWAP3 KECCAK256 SLOAD PUSH1 0x8 SWAP11 SWAP1 SWAP11 SHR SWAP10 AND DUP1 PUSH2 0x329D JUMPI POP PUSH1 0xFF DUP2 AND ISZERO JUMPDEST ISZERO PUSH2 0x32B0 JUMPI DUP3 PUSH2 0x32AC DUP2 PUSH2 0x3A82 JUMP JUMPDEST SWAP4 POP POP JUMPDEST DUP3 PUSH1 0x5 SUB PUSH2 0x32C6 JUMPI DUP5 PUSH2 0x32C2 DUP2 PUSH2 0x3A82 JUMP JUMPDEST SWAP6 POP POP JUMPDEST POP PUSH1 0x1 ADD PUSH2 0x3260 JUMP JUMPDEST POP DUP4 DUP4 LT PUSH2 0x32E4 JUMPI PUSH1 0x1 SWAP5 POP POP POP POP POP PUSH2 0x32F5 JUMP JUMPDEST POP PUSH1 0x1 ADD PUSH2 0x3253 JUMP JUMPDEST POP PUSH1 0x0 SWAP3 POP POP POP JUMPDEST SWAP4 SWAP3 POP POP POP JUMP JUMPDEST PUSH1 0x0 SLOAD PUSH1 0x1 PUSH1 0x1 PUSH1 0xA0 SHL SUB AND CALLER EQ PUSH2 0x334F JUMPI PUSH1 0x40 MLOAD PUSH3 0x461BCD PUSH1 0xE5 SHL DUP2 MSTORE PUSH1 0x20 PUSH1 0x4 DUP3 ADD MSTORE PUSH1 0x16 PUSH1 0x24 DUP3 ADD MSTORE PUSH22 0x27B7363C9031B0B63630B1363290313C9037BBB732B9 PUSH1 0x51 SHL PUSH1 0x44 DUP3 ADD MSTORE PUSH1 0x64 ADD PUSH2 0xEC5 JUMP JUMPDEST JUMP JUMPDEST CALLER PUSH1 0x1 PUSH1 0x1 PUSH1 0xA0 SHL SUB DUP3 AND SUB PUSH2 0x33A9 JUMPI PUSH1 0x40 MLOAD PUSH3 0x461BCD PUSH1 0xE5 SHL DUP2 MSTORE PUSH1 0x20 PUSH1 0x4 DUP3 ADD MSTORE PUSH1 0x17 PUSH1 0x24 DUP3 ADD MSTORE PUSH32 0x43616E6E6F74207472616E7366657220746F2073656C66000000000000000000 PUSH1 0x44 DUP3 ADD MSTORE PUSH1 0x64 ADD PUSH2 0xEC5 JUMP JUMPDEST PUSH1 0x1 DUP1 SLOAD PUSH1 0x1 PUSH1 0x1 PUSH1 0xA0 SHL SUB NOT AND PUSH1 0x1 PUSH1 0x1 PUSH1 0xA0 SHL SUB DUP4 DUP2 AND SWAP2 DUP3 OR SWAP1 SWAP3 SSTORE PUSH1 0x0 DUP1 SLOAD PUSH1 0x40 MLOAD SWAP3 SWAP4 AND SWAP2 PUSH32 0xED8889F560326EB138920D842192F0EB3DD22B4F139C87A2C57538E05BAE1278 SWAP2 SWAP1 LOG3 POP JUMP JUMPDEST PUSH1 0x0 DUP1 JUMPDEST PUSH1 0x5 DUP2 LT ISZERO PUSH2 0x34C3 JUMPI PUSH1 0x0 DUP4 DUP2 MSTORE PUSH1 0x9 PUSH1 0x20 MSTORE PUSH1 0x40 SWAP1 KECCAK256 DUP1 SLOAD DUP3 SWAP1 DUP2 LT PUSH2 0x3427 JUMPI PUSH2 0x3427 PUSH2 0x3A02 JUMP JUMPDEST PUSH1 0x0 SWAP2 DUP3 MSTORE PUSH1 0x20 SWAP1 SWAP2 KECCAK256 PUSH1 0x1 PUSH1 0x2 SWAP1 SWAP3 MUL ADD ADD SLOAD PUSH1 0xFF AND ISZERO DUP1 ISZERO PUSH2 0x3463 JUMPI POP PUSH1 0x0 DUP4 DUP2 MSTORE PUSH1 0xA PUSH1 0x20 SWAP1 DUP2 MSTORE PUSH1 0x40 DUP1 DUP4 KECCAK256 DUP5 DUP5 MSTORE SWAP1 SWAP2 MSTORE SWAP1 KECCAK256 SLOAD ISZERO ISZERO JUMPDEST ISZERO PUSH2 0x34BB JUMPI PUSH1 0x0 DUP4 DUP2 MSTORE PUSH1 0x9 PUSH1 0x20 MSTORE PUSH1 0x40 SWAP1 KECCAK256 DUP1 SLOAD PUSH1 0x1 SWAP2 SWAP1 DUP4 SWAP1 DUP2 LT PUSH2 0x348C JUMPI PUSH2 0x348C PUSH2 0x3A02 JUMP JUMPDEST PUSH1 0x0 SWAP2 DUP3 MSTORE PUSH1 0x20 DUP3 KECCAK256 PUSH1 0x2 SWAP2 SWAP1 SWAP2 MUL ADD PUSH1 0x1 ADD DUP1 SLOAD PUSH1 0xFF NOT AND SWAP3 ISZERO ISZERO SWAP3 SWAP1 SWAP3 OR SWAP1 SWAP2 SSTORE DUP2 SWAP1 SUB PUSH2 0x34BB JUMPI PUSH1 0x1 SWAP2 POP JUMPDEST PUSH1 0x1 ADD PUSH2 0x33FE JUMP JUMPDEST POP SWAP2 SWAP1 POP JUMP JUMPDEST PUSH1 0x60 PUSH32 0x92FD13387C7FE7BEFBC38D303D6468778FB9731BC4583F17D92989C6FCFDEAAA DUP3 PUSH1 0x40 MLOAD PUSH1 0x24 ADD PUSH2 0x3502 SWAP2 MLOAD ISZERO ISZERO DUP2 MSTORE PUSH1 0x20 ADD SWAP1 JUMP JUMPDEST PUSH1 0x40 DUP1 MLOAD PUSH1 0x1F NOT DUP2 DUP5 SUB ADD DUP2 MSTORE SWAP2 SWAP1 MSTORE PUSH1 0x20 DUP2 ADD DUP1 MLOAD PUSH1 0x1 PUSH1 0x1 PUSH1 0xE0 SHL SUB AND PUSH1 0x1 PUSH1 0x1 PUSH1 0xE0 SHL SUB NOT SWAP1 SWAP4 AND SWAP3 SWAP1 SWAP3 OR SWAP1 SWAP2 MSTORE SWAP3 SWAP2 POP POP JUMP JUMPDEST PUSH1 0xD DUP1 SLOAD PUSH1 0x0 SWAP2 SWAP1 PUSH2 0x3550 SWAP1 PUSH2 0xFFFF DUP6 AND PUSH2 0x3B04 JUMP JUMPDEST DUP2 SLOAD DUP2 LT PUSH2 0x3560 JUMPI PUSH2 0x3560 PUSH2 0x3A02 JUMP JUMPDEST SWAP1 PUSH1 0x0 MSTORE PUSH1 0x20 PUSH1 0x0 KECCAK256 ADD SLOAD SWAP1 POP JUMPDEST PUSH1 0x0 DUP4 DUP2 MSTORE PUSH1 0xE PUSH1 0x20 SWAP1 DUP2 MSTORE PUSH1 0x40 DUP1 DUP4 KECCAK256 DUP5 DUP5 MSTORE SWAP1 SWAP2 MSTORE SWAP1 KECCAK256 SLOAD PUSH1 0xFF AND ISZERO PUSH2 0x35CB JUMPI PUSH1 0xD DUP1 SLOAD PUSH1 0x10 SWAP4 SWAP1 SWAP4 SHR SWAP3 PUSH2 0x35A9 SWAP1 PUSH2 0xFFFF DUP6 AND PUSH2 0x3B04 JUMP JUMPDEST DUP2 SLOAD DUP2 LT PUSH2 0x35B9 JUMPI PUSH2 0x35B9 PUSH2 0x3A02 JUMP JUMPDEST SWAP1 PUSH1 0x0 MSTORE PUSH1 0x20 PUSH1 0x0 KECCAK256 ADD SLOAD SWAP1 POP PUSH2 0x356E JUMP JUMPDEST SWAP3 SWAP2 POP POP JUMP JUMPDEST DUP3 DUP1 SLOAD DUP3 DUP3 SSTORE SWAP1 PUSH1 0x0 MSTORE PUSH1 0x20 PUSH1 0x0 KECCAK256 SWAP1 PUSH1 0x1F ADD PUSH1 0x20 SWAP1 DIV DUP2 ADD SWAP3 DUP3 ISZERO PUSH2 0x361F JUMPI PUSH1 0x0 MSTORE PUSH1 0x20 PUSH1 0x0 KECCAK256 SWAP2 PUSH1 0x1F ADD PUSH1 0x20 SWAP1 DIV DUP3 ADD JUMPDEST DUP3 DUP2 GT ISZERO PUSH2 0x361F JUMPI DUP3 SLOAD DUP3 SSTORE SWAP2 PUSH1 0x1 ADD SWAP2 SWAP1 PUSH1 0x1 ADD SWAP1 PUSH2 0x3604 JUMP JUMPDEST POP PUSH2 0x362B SWAP3 SWAP2 POP PUSH2 0x362F JUMP JUMPDEST POP SWAP1 JUMP JUMPDEST JUMPDEST DUP1 DUP3 GT ISZERO PUSH2 0x362B JUMPI PUSH1 0x0 DUP2 SSTORE PUSH1 0x1 ADD PUSH2 0x3630 JUMP JUMPDEST PUSH1 0x0 PUSH1 0x20 DUP3 DUP5 SUB SLT ISZERO PUSH2 0x3656 JUMPI PUSH1 0x0 DUP1 REVERT JUMPDEST POP CALLDATALOAD SWAP2 SWAP1 POP JUMP JUMPDEST PUSH1 0x0 DUP1 PUSH1 0x40 DUP4 DUP6 SUB SLT ISZERO PUSH2 0x3670 JUMPI PUSH1 0x0 DUP1 REVERT JUMPDEST POP POP DUP1 CALLDATALOAD SWAP3 PUSH1 0x20 SWAP1 SWAP2 ADD CALLDATALOAD SWAP2 POP JUMP JUMPDEST PUSH1 0x0 DUP1 DUP4 PUSH1 0x1F DUP5 ADD SLT PUSH2 0x3691 JUMPI PUSH1 0x0 DUP1 REVERT JUMPDEST POP DUP2 CALLDATALOAD PUSH8 0xFFFFFFFFFFFFFFFF DUP2 GT ISZERO PUSH2 0x36A9 JUMPI PUSH1 0x0 DUP1 REVERT JUMPDEST PUSH1 0x20 DUP4 ADD SWAP2 POP DUP4 PUSH1 0x20 DUP3 PUSH1 0x5 SHL DUP6 ADD ADD GT ISZERO PUSH2 0x36C4 JUMPI PUSH1 0x0 DUP1 REVERT JUMPDEST SWAP3 POP SWAP3 SWAP1 POP JUMP JUMPDEST PUSH1 0x0 DUP1 PUSH1 0x0 PUSH1 0x40 DUP5 DUP7 SUB SLT ISZERO PUSH2 0x36E0 JUMPI PUSH1 0x0 DUP1 REVERT JUMPDEST DUP4 CALLDATALOAD SWAP3 POP PUSH1 0x20 DUP5 ADD CALLDATALOAD PUSH8 0xFFFFFFFFFFFFFFFF DUP2 GT ISZERO PUSH2 0x36FE JUMPI PUSH1 0x0 DUP1 REVERT JUMPDEST PUSH2 0x370A DUP7 DUP3 DUP8 ADD PUSH2 0x367F JUMP JUMPDEST SWAP5 SWAP8 SWAP1 SWAP7 POP SWAP4 SWAP5 POP POP POP POP JUMP JUMPDEST PUSH1 0x0 DUP1 PUSH1 0x0 PUSH1 0x60 DUP5 DUP7 SUB SLT ISZERO PUSH2 0x372C JUMPI PUSH1 0x0 DUP1 REVERT JUMPDEST POP POP DUP2 CALLDATALOAD SWAP4 PUSH1 0x20 DUP4 ADD CALLDATALOAD SWAP4 POP PUSH1 0x40 SWAP1 SWAP3 ADD CALLDATALOAD SWAP2 SWAP1 POP JUMP JUMPDEST PUSH4 0x4E487B71 PUSH1 0xE0 SHL PUSH1 0x0 MSTORE PUSH1 0x21 PUSH1 0x4 MSTORE PUSH1 0x24 PUSH1 0x0 REVERT JUMPDEST PUSH1 0x20 DUP2 ADD PUSH1 0x7 DUP4 LT PUSH2 0x376D JUMPI PUSH2 0x376D PUSH2 0x3743 JUMP JUMPDEST SWAP2 SWAP1 MSTORE SWAP1 JUMP JUMPDEST DUP1 CALLDATALOAD PUSH1 0x1 PUSH1 0x1 PUSH1 0xA0 SHL SUB DUP2 AND DUP2 EQ PUSH2 0x378A JUMPI PUSH1 0x0 DUP1 REVERT JUMPDEST SWAP2 SWAP1 POP JUMP JUMPDEST PUSH1 0x0 PUSH1 0x20 DUP3 DUP5 SUB SLT ISZERO PUSH2 0x37A1 JUMPI PUSH1 0x0 DUP1 REVERT JUMPDEST PUSH2 0x32F5 DUP3 PUSH2 0x3773 JUMP JUMPDEST PUSH1 0x0 DUP1 PUSH1 0x40 DUP4 DUP6 SUB SLT ISZERO PUSH2 0x37BD JUMPI PUSH1 0x0 DUP1 REVERT JUMPDEST DUP3 CALLDATALOAD SWAP2 POP PUSH2 0x37CD PUSH1 0x20 DUP5 ADD PUSH2 0x3773 JUMP JUMPDEST SWAP1 POP SWAP3 POP SWAP3 SWAP1 POP JUMP JUMPDEST PUSH1 0x0 DUP1 PUSH1 0x40 DUP4 DUP6 SUB SLT ISZERO PUSH2 0x37E9 JUMPI PUSH1 0x0 DUP1 REVERT JUMPDEST PUSH2 0x37F2 DUP4 PUSH2 0x3773 JUMP JUMPDEST SWAP2 POP PUSH1 0x20 DUP4 ADD CALLDATALOAD DUP1 ISZERO ISZERO DUP2 EQ PUSH2 0x3807 JUMPI PUSH1 0x0 DUP1 REVERT JUMPDEST DUP1 SWAP2 POP POP SWAP3 POP SWAP3 SWAP1 POP JUMP JUMPDEST PUSH1 0x0 DUP1 PUSH1 0x0 DUP1 PUSH1 0x40 DUP6 DUP8 SUB SLT ISZERO PUSH2 0x3828 JUMPI PUSH1 0x0 DUP1 REVERT JUMPDEST DUP5 CALLDATALOAD PUSH8 0xFFFFFFFFFFFFFFFF DUP1 DUP3 GT ISZERO PUSH2 0x3840 JUMPI PUSH1 0x0 DUP1 REVERT JUMPDEST PUSH2 0x384C DUP9 DUP4 DUP10 ADD PUSH2 0x367F JUMP JUMPDEST SWAP1 SWAP7 POP SWAP5 POP PUSH1 0x20 DUP8 ADD CALLDATALOAD SWAP2 POP DUP1 DUP3 GT ISZERO PUSH2 0x3865 JUMPI PUSH1 0x0 DUP1 REVERT JUMPDEST POP PUSH2 0x3872 DUP8 DUP3 DUP9 ADD PUSH2 0x367F JUMP JUMPDEST SWAP6 SWAP9 SWAP5 SWAP8 POP SWAP6 POP POP POP POP JUMP JUMPDEST PUSH1 0x0 DUP1 PUSH1 0x0 DUP1 PUSH1 0x0 DUP1 PUSH1 0xA0 DUP8 DUP10 SUB SLT ISZERO PUSH2 0x3897 JUMPI PUSH1 0x0 DUP1 REVERT JUMPDEST DUP7 CALLDATALOAD SWAP6 POP PUSH1 0x20 DUP8 ADD CALLDATALOAD SWAP5 POP PUSH1 0x40 DUP8 ADD CALLDATALOAD SWAP4 POP PUSH1 0x60 DUP8 ADD CALLDATALOAD SWAP3 POP PUSH1 0x80 DUP8 ADD CALLDATALOAD PUSH8 0xFFFFFFFFFFFFFFFF DUP2 GT ISZERO PUSH2 0x38CA JUMPI PUSH1 0x0 DUP1 REVERT JUMPDEST PUSH2 0x38D6 DUP10 DUP3 DUP11 ADD PUSH2 0x367F JUMP JUMPDEST SWAP8 SWAP11 SWAP7 SWAP10 POP SWAP5 SWAP8 POP SWAP3 SWAP6 SWAP4 SWAP5 SWAP3 POP POP POP JUMP JUMPDEST PUSH1 0x20 DUP1 DUP3 MSTORE DUP3 MLOAD DUP3 DUP3 ADD DUP2 SWAP1 MSTORE PUSH1 0x0 SWAP2 SWAP1 DUP5 DUP3 ADD SWAP1 PUSH1 0x40 DUP6 ADD SWAP1 DUP5 JUMPDEST DUP2 DUP2 LT ISZERO PUSH2 0x3920 JUMPI DUP4 MLOAD DUP4 MSTORE SWAP3 DUP5 ADD SWAP3 SWAP2 DUP5 ADD SWAP2 PUSH1 0x1 ADD PUSH2 0x3904 JUMP JUMPDEST POP SWAP1 SWAP7 SWAP6 POP POP POP POP POP POP JUMP JUMPDEST PUSH1 0x0 DUP1 PUSH1 0x40 DUP4 DUP6 SUB SLT ISZERO PUSH2 0x393F JUMPI PUSH1 0x0 DUP1 REVERT JUMPDEST DUP3 CALLDATALOAD SWAP2 POP PUSH1 0x20 DUP4 ADD CALLDATALOAD PUSH1 0xFF DUP2 AND DUP2 EQ PUSH2 0x3807 JUMPI PUSH1 0x0 DUP1 REVERT JUMPDEST PUSH1 0x0 DUP1 PUSH1 0x0 PUSH1 0x60 DUP5 DUP7 SUB SLT ISZERO PUSH2 0x396C JUMPI PUSH1 0x0 DUP1 REVERT JUMPDEST DUP4 CALLDATALOAD SWAP3 POP PUSH2 0x397C PUSH1 0x20 DUP6 ADD PUSH2 0x3773 JUMP JUMPDEST SWAP2 POP PUSH1 0x40 DUP5 ADD CALLDATALOAD SWAP1 POP SWAP3 POP SWAP3 POP SWAP3 JUMP JUMPDEST DUP4 DUP2 MSTORE PUSH1 0x1 PUSH1 0x1 PUSH1 0xA0 SHL SUB DUP4 AND PUSH1 0x20 DUP3 ADD MSTORE PUSH1 0x60 DUP2 ADD PUSH1 0x4 DUP4 LT PUSH2 0x39B2 JUMPI PUSH2 0x39B2 PUSH2 0x3743 JUMP JUMPDEST DUP3 PUSH1 0x40 DUP4 ADD MSTORE SWAP5 SWAP4 POP POP POP POP JUMP JUMPDEST PUSH1 0x0 DUP1 PUSH1 0x20 DUP4 DUP6 SUB SLT ISZERO PUSH2 0x39D3 JUMPI PUSH1 0x0 DUP1 REVERT JUMPDEST DUP3 CALLDATALOAD PUSH8 0xFFFFFFFFFFFFFFFF DUP2 GT ISZERO PUSH2 0x39EA JUMPI PUSH1 0x0 DUP1 REVERT JUMPDEST PUSH2 0x39F6 DUP6 DUP3 DUP7 ADD PUSH2 0x367F JUMP JUMPDEST SWAP1 SWAP7 SWAP1 SWAP6 POP SWAP4 POP POP POP POP JUMP JUMPDEST PUSH4 0x4E487B71 PUSH1 0xE0 SHL PUSH1 0x0 MSTORE PUSH1 0x32 PUSH1 0x4 MSTORE PUSH1 0x24 PUSH1 0x0 REVERT JUMPDEST PUSH4 0x4E487B71 PUSH1 0xE0 SHL PUSH1 0x0 MSTORE PUSH1 0x12 PUSH1 0x4 MSTORE PUSH1 0x24 PUSH1 0x0 REVERT JUMPDEST PUSH4 0x4E487B71 PUSH1 0xE0 SHL PUSH1 0x0 MSTORE PUSH1 0x11 PUSH1 0x4 MSTORE PUSH1 0x24 PUSH1 0x0 REVERT JUMPDEST PUSH1 0x0 DUP3 PUSH2 0x3A53 JUMPI PUSH2 0x3A53 PUSH2 0x3A18 JUMP JUMPDEST POP DIV SWAP1 JUMP JUMPDEST DUP1 DUP3 ADD DUP1 DUP3 GT ISZERO PUSH2 0x35CB JUMPI PUSH2 0x35CB PUSH2 0x3A2E JUMP JUMPDEST DUP1 DUP3 MUL DUP2 ISZERO DUP3 DUP3 DIV DUP5 EQ OR PUSH2 0x35CB JUMPI PUSH2 0x35CB PUSH2 0x3A2E JUMP JUMPDEST PUSH1 0x0 PUSH1 0x1 DUP3 ADD PUSH2 0x3A94 JUMPI PUSH2 0x3A94 PUSH2 0x3A2E JUMP JUMPDEST POP PUSH1 0x1 ADD SWAP1 JUMP JUMPDEST PUSH4 0x4E487B71 PUSH1 0xE0 SHL PUSH1 0x0 MSTORE PUSH1 0x41 PUSH1 0x4 MSTORE PUSH1 0x24 PUSH1 0x0 REVERT JUMPDEST PUSH1 0x0 JUMPDEST DUP4 DUP2 LT ISZERO PUSH2 0x3ACC JUMPI DUP2 DUP2 ADD MLOAD DUP4 DUP3 ADD MSTORE PUSH1 0x20 ADD PUSH2 0x3AB4 JUMP JUMPDEST POP POP PUSH1 0x0 SWAP2 ADD MSTORE JUMP JUMPDEST PUSH1 0x0 DUP3 MLOAD PUSH2 0x3AE7 DUP2 DUP5 PUSH1 0x20 DUP8 ADD PUSH2 0x3AB1 JUMP JUMPDEST SWAP2 SWAP1 SWAP2 ADD SWAP3 SWAP2 POP POP JUMP JUMPDEST DUP2 DUP2 SUB DUP2 DUP2 GT ISZERO PUSH2 0x35CB JUMPI PUSH2 0x35CB PUSH2 0x3A2E JUMP JUMPDEST PUSH1 0x0 DUP3 PUSH2 0x3B13 JUMPI PUSH2 0x3B13 PUSH2 0x3A18 JUMP JUMPDEST POP MOD SWAP1 JUMP JUMPDEST PUSH4 0x4E487B71 PUSH1 0xE0 SHL PUSH1 0x0 MSTORE PUSH1 0x1 PUSH1 0x4 MSTORE PUSH1 0x24 PUSH1 0x0 REVERT JUMPDEST PUSH4 0x4E487B71 PUSH1 0xE0 SHL PUSH1 0x0 MSTORE PUSH1 0x31 PUSH1 0x4 MSTORE PUSH1 0x24 PUSH1 0x0 REVERT JUMPDEST PUSH1 0x20 DUP2 MSTORE DUP2 MLOAD PUSH1 0x20 DUP3 ADD MSTORE PUSH1 0x20 DUP3 ADD MLOAD PUSH1 0x40 DUP3 ADD MSTORE PUSH2 0xFFFF PUSH1 0x40 DUP4 ADD MLOAD AND PUSH1 0x60 DUP3 ADD MSTORE PUSH1 0x0 PUSH1 0x60 DUP4 ADD MLOAD PUSH4 0xFFFFFFFF DUP1 DUP3 AND PUSH1 0x80 DUP6 ADD MSTORE DUP1 PUSH1 0x80 DUP7 ADD MLOAD AND PUSH1 0xA0 DUP6 ADD MSTORE POP POP PUSH1 0xA0 DUP4 ADD MLOAD PUSH1 0xC0 DUP1 DUP5 ADD MSTORE DUP1 MLOAD DUP1 PUSH1 0xE0 DUP6 ADD MSTORE PUSH2 0x100 PUSH2 0x3BAF DUP3 DUP3 DUP8 ADD PUSH1 0x20 DUP7 ADD PUSH2 0x3AB1 JUMP JUMPDEST DUP1 PUSH1 0x1F NOT PUSH1 0x1F DUP5 ADD AND DUP7 ADD ADD SWAP4 POP POP POP POP SWAP3 SWAP2 POP POP JUMP JUMPDEST PUSH1 0x0 PUSH1 0x20 DUP3 DUP5 SUB SLT ISZERO PUSH2 0x3BD8 JUMPI PUSH1 0x0 DUP1 REVERT JUMPDEST POP MLOAD SWAP2 SWAP1 POP JUMP INVALID LOG1 PUSH5 0x736F6C6343 STOP ADDMOD XOR STOP EXP "},"methodIdentifiers":{"EXPIRATION_DURATION()":"2794a63d","MAX_NUMBER()":"fea9b572","PRECISION_BASIS()":"6c70f15e","PRIZE_COUNT()":"4d07af46","acceptOwnership()":"79ba5097","admins(address)":"429b62e5","availableNumbers(uint256)":"dbde1795","batchAddCards(uint256[])":"fa662a73","batchUpdateCards(uint256[],uint256[])":"9590ca6f","callbackGasLimit()":"24f74697","cancelGame(uint256)":"69958ab9","cards(uint256)":"8dc10768","claimPrize(uint256)":"d7098154","claimRefund(uint256)":"5b7baf64","createGame(uint256,uint256,uint256,uint256,uint256[])":"a9ef4a75","deployer()":"d5f39488","drawnNumbers(uint256,uint8)":"b0f279c8","gameCounter()":"2e0be39a","gamePrizes(uint256,uint256)":"8e6bb11b","gameStatus(uint256)":"34239c9c","games(uint256)":"117a5b90","getCards()":"b0df9e53","getGameInfo(uint256,address,uint256)":"b397a126","hosts(address)":"b9ced5fe","joinGame(uint256,uint256)":"b60b9fcb","keyhash()":"69ebe78e","numbers(uint256,uint256)":"189b36b4","owner()":"8da5cb5b","pendingFunds()":"7c6bc9be","playerCards(uint256,address,uint256)":"ff1f6010","prizeWinners(uint256,uint256,uint256)":"cc80dd06","prizesClaimed(uint256)":"ff78b4ef","randomRequests(uint256)":"ca067ad0","rawFulfillRandomWords(uint256,uint256[])":"1fe543e3","redrawCard(uint256,uint256)":"17b21589","refunds(uint256,address)":"454cc4bc","revealNumber(uint256)":"fe7d567d","revealedCards(uint256,uint256)":"97509e47","s_vrfCoordinator()":"9eccacf6","setAdmin(address,bool)":"4b0bddd2","setCoordinator(address)":"8ea98117","setHost(address,bool)":"92ca17e3","startGame(uint256)":"e5ed1d59","subscriptionId()":"09c1ba2e","team1Address()":"4811c070","team1Shares()":"9427552b","team2Address()":"973ea9d5","team2Shares()":"e2a12cbb","transferOwnership(address)":"f2fde38b","vrfCoordinator()":"a3e56fa8","winPrize(uint256,uint256,uint256)":"324acb90","withdraw(uint256)":"2e1a7d4d"}}}}}