{
  "_format": "hh-sol-artifact-1",
  "contractName": "Roulette",
  "sourceName": "contracts/Roulette.sol",
  "abi": [
    {
      "inputs": [
        {
          "internalType": "address",
          "name": "_vrfCoordinator",
          "type": "address"
        },
        {
          "internalType": "bytes32",
          "name": "_keyhash",
          "type": "bytes32"
        },
        {
          "internalType": "uint64",
          "name": "_subscriptionId",
          "type": "uint64"
        },
        {
          "internalType": "uint32",
          "name": "_callbackGasLimit",
          "type": "uint32"
        }
      ],
      "stateMutability": "nonpayable",
      "type": "constructor"
    },
    {
      "inputs": [
        {
          "internalType": "address",
          "name": "have",
          "type": "address"
        },
        {
          "internalType": "address",
          "name": "want",
          "type": "address"
        }
      ],
      "name": "OnlyCoordinatorCanFulfill",
      "type": "error"
    },
    {
      "inputs": [],
      "name": "Unauthorized",
      "type": "error"
    },
    {
      "inputs": [],
      "name": "UnknownRequest",
      "type": "error"
    },
    {
      "anonymous": false,
      "inputs": [
        {
          "indexed": false,
          "internalType": "address",
          "name": "account",
          "type": "address"
        },
        {
          "indexed": false,
          "internalType": "bool",
          "name": "state",
          "type": "bool"
        }
      ],
      "name": "OperatorSet",
      "type": "event"
    },
    {
      "anonymous": false,
      "inputs": [
        {
          "indexed": true,
          "internalType": "address",
          "name": "previousOwner",
          "type": "address"
        },
        {
          "indexed": true,
          "internalType": "address",
          "name": "newOwner",
          "type": "address"
        }
      ],
      "name": "OwnershipTransferred",
      "type": "event"
    },
    {
      "anonymous": false,
      "inputs": [
        {
          "indexed": true,
          "internalType": "uint256",
          "name": "requestId",
          "type": "uint256"
        },
        {
          "indexed": false,
          "internalType": "uint256",
          "name": "result",
          "type": "uint256"
        }
      ],
      "name": "RequestFulfilled",
      "type": "event"
    },
    {
      "anonymous": false,
      "inputs": [
        {
          "indexed": true,
          "internalType": "uint256",
          "name": "requestId",
          "type": "uint256"
        },
        {
          "indexed": true,
          "internalType": "address",
          "name": "onBehalfOf",
          "type": "address"
        }
      ],
      "name": "RequestSent",
      "type": "event"
    },
    {
      "inputs": [],
      "name": "callbackGasLimit",
      "outputs": [
        {
          "internalType": "uint32",
          "name": "",
          "type": "uint32"
        }
      ],
      "stateMutability": "view",
      "type": "function"
    },
    {
      "inputs": [],
      "name": "keyhash",
      "outputs": [
        {
          "internalType": "bytes32",
          "name": "",
          "type": "bytes32"
        }
      ],
      "stateMutability": "view",
      "type": "function"
    },
    {
      "inputs": [
        {
          "internalType": "address",
          "name": "",
          "type": "address"
        }
      ],
      "name": "operators",
      "outputs": [
        {
          "internalType": "bool",
          "name": "",
          "type": "bool"
        }
      ],
      "stateMutability": "view",
      "type": "function"
    },
    {
      "inputs": [],
      "name": "owner",
      "outputs": [
        {
          "internalType": "address",
          "name": "",
          "type": "address"
        }
      ],
      "stateMutability": "view",
      "type": "function"
    },
    {
      "inputs": [
        {
          "internalType": "uint256",
          "name": "",
          "type": "uint256"
        }
      ],
      "name": "randomRequests",
      "outputs": [
        {
          "internalType": "uint256",
          "name": "",
          "type": "uint256"
        }
      ],
      "stateMutability": "view",
      "type": "function"
    },
    {
      "inputs": [
        {
          "internalType": "uint256",
          "name": "requestId",
          "type": "uint256"
        },
        {
          "internalType": "uint256[]",
          "name": "randomWords",
          "type": "uint256[]"
        }
      ],
      "name": "rawFulfillRandomWords",
      "outputs": [],
      "stateMutability": "nonpayable",
      "type": "function"
    },
    {
      "inputs": [],
      "name": "renounceOwnership",
      "outputs": [],
      "stateMutability": "nonpayable",
      "type": "function"
    },
    {
      "inputs": [
        {
          "internalType": "address",
          "name": "onBehalfOf",
          "type": "address"
        }
      ],
      "name": "requestRandom",
      "outputs": [
        {
          "internalType": "uint256",
          "name": "requestId",
          "type": "uint256"
        }
      ],
      "stateMutability": "nonpayable",
      "type": "function"
    },
    {
      "inputs": [
        {
          "internalType": "address",
          "name": "operator",
          "type": "address"
        },
        {
          "internalType": "bool",
          "name": "state",
          "type": "bool"
        }
      ],
      "name": "setOperator",
      "outputs": [],
      "stateMutability": "nonpayable",
      "type": "function"
    },
    {
      "inputs": [],
      "name": "subscriptionId",
      "outputs": [
        {
          "internalType": "uint64",
          "name": "",
          "type": "uint64"
        }
      ],
      "stateMutability": "view",
      "type": "function"
    },
    {
      "inputs": [
        {
          "internalType": "address",
          "name": "newOwner",
          "type": "address"
        }
      ],
      "name": "transferOwnership",
      "outputs": [],
      "stateMutability": "nonpayable",
      "type": "function"
    },
    {
      "inputs": [],
      "name": "vrfCoordinator",
      "outputs": [
        {
          "internalType": "contract VRFCoordinatorV2Interface",
          "name": "",
          "type": "address"
        }
      ],
      "stateMutability": "view",
      "type": "function"
    }
  ],
  "bytecode": "0x61012060405234801561001157600080fd5b5060405161101e38038061101e833981810160405281019061003391906101c7565b838073ffffffffffffffffffffffffffffffffffffffff1660808173ffffffffffffffffffffffffffffffffffffffff16815250505061008561007a6100fb60201b60201c565b61010360201b60201c565b8373ffffffffffffffffffffffffffffffffffffffff1660a08173ffffffffffffffffffffffffffffffffffffffff16815250508260c081815250508167ffffffffffffffff1660e08167ffffffffffffffff16815250508063ffffffff166101008163ffffffff16815250505050505061023f565b600033905090565b60008060009054906101000a900473ffffffffffffffffffffffffffffffffffffffff169050816000806101000a81548173ffffffffffffffffffffffffffffffffffffffff021916908373ffffffffffffffffffffffffffffffffffffffff1602179055508173ffffffffffffffffffffffffffffffffffffffff168173ffffffffffffffffffffffffffffffffffffffff167f8be0079c531659141344cd1fd0a4f28419497f9722a3daafe3b4186f6b6457e060405160405180910390a35050565b600080600080608085870312156101dd57600080fd5b845160018060a01b03811681146101f357600080fd5b8094505060208501519250604085015160018060401b038116811461021757600080fd5b80925050606085015163ffffffff8116811461023257600080fd5b8091505092959194509250565b60805160a05160c05160e05161010051610d786102a6600039600081816103640152610553015260008181610341015261044f01526000818161032001526106130152600081816102e4015261067401526000818161049301526104e70152610d786000f3fe608060405234801561001057600080fd5b50600436106100d45760003560e01c806369ebe78e11610081578063a3e56fa81161005b578063a3e56fa8146101f3578063ca067ad014610211578063f2fde38b14610241576100d4565b806369ebe78e146101ad578063715018a6146101cb5780638da5cb5b146101d5576100d4565b80631fe543e3116100b25780631fe543e31461015757806324f7469714610173578063558a729714610191576100d4565b806304389898146100d957806309c1ba2e1461010957806313e7c9d814610127575b600080fd5b6100f360048036038101906100ee9190610983565b61025d565b60405161010091906109a6565b60405180910390f35b61011161044d565b60405161011e91906109b7565b60405180910390f35b610141600480360381019061013c9190610983565b610471565b60405161014e91906109d2565b60405180910390f35b610171600480360381019061016c91906109fb565b610491565b005b61017b610551565b6040516101889190610ad0565b60405180910390f35b6101ab60048036038101906101a69190610ae7565b610575565b005b6101b5610611565b6040516101c29190610b23565b60405180910390f35b6101d3610635565b005b6101dd610649565b6040516101ea9190610b34565b60405180910390f35b6101fb610672565b6040516102089190610b5b565b60405180910390f35b61022b60048036038101906102269190610b82565b610696565b60405161023891906109a6565b60405180910390f35b61025b60048036038101906102569190610983565b6106ae565b005b6000600160003373ffffffffffffffffffffffffffffffffffffffff1673ffffffffffffffffffffffffffffffffffffffff16815260200190815260200160002060009054906101000a900460ff166102e2576040517f82b4290000000000000000000000000000000000000000000000000000000000815260040160405180910390fd5b7f000000000000000000000000000000000000000000000000000000000000000073ffffffffffffffffffffffffffffffffffffffff16635d3b1d307f00000000000000000000000000000000000000000000000000000000000000007f000000000000000000000000000000000000000000000000000000000000000060037f000000000000000000000000000000000000000000000000000000000000000060016040518663ffffffff1660e01b81526004016103a5959493929190610b9e565b6020604051808303816000875af11580156103c4573d6000803e3d6000fd5b505050506040513d601f19601f820116820180604052508101906103e89190610be3565b905061053960026000838152602001908152602001600020819055508173ffffffffffffffffffffffffffffffffffffffff16817f48b98ad7a8a8dbe21cc82bf98710ad4d2cdd949ccac393692e4d9a1722c162c760405160405180910390a3919050565b7f000000000000000000000000000000000000000000000000000000000000000081565b60016020528060005260406000206000915054906101000a900460ff1681565b7f000000000000000000000000000000000000000000000000000000000000000073ffffffffffffffffffffffffffffffffffffffff163373ffffffffffffffffffffffffffffffffffffffff161461054357337f00000000000000000000000000000000000000000000000000000000000000006040517f1cf993f400000000000000000000000000000000000000000000000000000000815260040161053a929190610bff565b60405180910390fd5b61054d8282610731565b5050565b7f000000000000000000000000000000000000000000000000000000000000000081565b61057d61080c565b80600160008473ffffffffffffffffffffffffffffffffffffffff1673ffffffffffffffffffffffffffffffffffffffff16815260200190815260200160002060006101000a81548160ff0219169083151502179055507f1a594081ae893ab78e67d9b9e843547318164322d32c65369d78a96172d9dc8f8282604051610605929190610c31565b60405180910390a15050565b7f000000000000000000000000000000000000000000000000000000000000000081565b61063d61080c565b610647600061088a565b565b60008060009054906101000a900473ffffffffffffffffffffffffffffffffffffffff16905090565b7f000000000000000000000000000000000000000000000000000000000000000081565b60026020528060005260406000206000915090505481565b6106b661080c565b600073ffffffffffffffffffffffffffffffffffffffff168173ffffffffffffffffffffffffffffffffffffffff1603610725576040517f08c379a000000000000000000000000000000000000000000000000000000000815260040161071c90610c61565b60405180910390fd5b61072e8161088a565b50565b61053960026000848152602001908152602001600020541461077f576040517f6d08029700000000000000000000000000000000000000000000000000000000815260040160405180910390fd5b6000606460088360008151811061079957610798610cc5565b5b60200260200101516107ab9190610cdb565b6107b59190610d03565b9050806002600085815260200190815260200160002081905550827f5c69e7026b653d8606b5613bb00fd8c4b0504b1cbe8db600c406faac180924d5826040516107ff91906109a6565b60405180910390a2505050565b61081461094e565b73ffffffffffffffffffffffffffffffffffffffff16610832610649565b73ffffffffffffffffffffffffffffffffffffffff1614610888576040517f08c379a000000000000000000000000000000000000000000000000000000000815260040161087f90610d2e565b60405180910390fd5b565b60008060009054906101000a900473ffffffffffffffffffffffffffffffffffffffff169050816000806101000a81548173ffffffffffffffffffffffffffffffffffffffff021916908373ffffffffffffffffffffffffffffffffffffffff1602179055508173ffffffffffffffffffffffffffffffffffffffff168173ffffffffffffffffffffffffffffffffffffffff167f8be0079c531659141344cd1fd0a4f28419497f9722a3daafe3b4186f6b6457e060405160405180910390a35050565b600033905090565b60008135905073ffffffffffffffffffffffffffffffffffffffff8116811461097e57600080fd5b919050565b60006020828403121561099557600080fd5b61099e82610956565b905092915050565b600060208201905082825292915050565b600060208201905067ffffffffffffffff8316825292915050565b6000602082019050821515825292915050565b634e487b7160e01b600052604160045260246000fd5b60008060408385031215610a0e57600080fd5b8235915060208084013567ffffffffffffffff80821115610a2e57600080fd5b818601915086601f830112610a4257600080fd5b813581811115610a5557610a546109e5565b5b8060051b604051601f19603f83011681018181108582111715610a7b57610a7a6109e5565b5b806040525080935082815285810193508582860101925089831115610a9f57600080fd5b85850194505b82851015610ac0578435845285840193508585019450610aa5565b8096505050505050509250929050565b600060208201905063ffffffff8316825292915050565b60008060408385031215610afa57600080fd5b610b0383610956565b915060208301358015158114610b1857600080fd5b809150509250929050565b600060208201905082825292915050565b600060208201905073ffffffffffffffffffffffffffffffffffffffff8316825292915050565b600060208201905073ffffffffffffffffffffffffffffffffffffffff8316825292915050565b600060208284031215610b9457600080fd5b8135905092915050565b600060a08201905086825267ffffffffffffffff8616602083015261ffff8516604083015263ffffffff80851660608401528084166080840152509695505050505050565b600060208284031215610bf557600080fd5b8151905092915050565b600060408201905073ffffffffffffffffffffffffffffffffffffffff80851683528084166020840152509392505050565b600060408201905073ffffffffffffffffffffffffffffffffffffffff8416825282151560208301529392505050565b60208152602660208201527f4f776e61626c653a206e6577206f776e657220697320746865207a65726f206160408201527f646472657373000000000000000000000000000000000000000000000000000060608201526000608082019050919050565b634e487b7160e01b600052603260045260246000fd5b600082610cf857634e487b7160e01b600052601260045260246000fd5b828206905092915050565b6000828201905080821115610d2857634e487b7160e01b600052601160045260246000fd5b92915050565b602081526020808201527f4f776e61626c653a2063616c6c6572206973206e6f7420746865206f776e65726040820152600060608201905091905056fea164736f6c6343000811000a",
  "linkReferences": {},
  "deployedLinkReferences": {}
}