{
  "_format": "hh-sol-artifact-1",
  "contractName": "Jammy",
  "sourceName": "contracts/Jammy.sol",
  "abi": [
    {
      "inputs": [
        {
          "internalType": "address",
          "name": "_vrfCoordinator",
          "type": "address"
        },
        {
          "internalType": "bytes32",
          "name": "_keyhash",
          "type": "bytes32"
        },
        {
          "internalType": "uint256",
          "name": "_subscriptionId",
          "type": "uint256"
        },
        {
          "internalType": "uint32",
          "name": "_callbackGasLimit",
          "type": "uint32"
        },
        {
          "internalType": "uint256",
          "name": "_team1Shares",
          "type": "uint256"
        },
        {
          "internalType": "uint256",
          "name": "_team2Shares",
          "type": "uint256"
        },
        {
          "internalType": "address",
          "name": "_team1Address",
          "type": "address"
        },
        {
          "internalType": "address",
          "name": "_team2Address",
          "type": "address"
        }
      ],
      "stateMutability": "nonpayable",
      "type": "constructor"
    },
    {
      "inputs": [],
      "name": "AlreadyInWinnersList",
      "type": "error"
    },
    {
      "inputs": [],
      "name": "AlreadyJoined",
      "type": "error"
    },
    {
      "inputs": [],
      "name": "AlreadyRefunded",
      "type": "error"
    },
    {
      "inputs": [],
      "name": "CardDoesNotWin",
      "type": "error"
    },
    {
      "inputs": [],
      "name": "CardNotFound",
      "type": "error"
    },
    {
      "inputs": [],
      "name": "CardNotReady",
      "type": "error"
    },
    {
      "inputs": [],
      "name": "CardsSoldOut",
      "type": "error"
    },
    {
      "inputs": [],
      "name": "CatchFire",
      "type": "error"
    },
    {
      "inputs": [],
      "name": "GameAlreadyStarted",
      "type": "error"
    },
    {
      "inputs": [],
      "name": "InputValidation",
      "type": "error"
    },
    {
      "inputs": [],
      "name": "NoCardFound",
      "type": "error"
    },
    {
      "inputs": [],
      "name": "NothingToRefund",
      "type": "error"
    },
    {
      "inputs": [
        {
          "internalType": "address",
          "name": "have",
          "type": "address"
        },
        {
          "internalType": "address",
          "name": "want",
          "type": "address"
        }
      ],
      "name": "OnlyCoordinatorCanFulfill",
      "type": "error"
    },
    {
      "inputs": [
        {
          "internalType": "address",
          "name": "have",
          "type": "address"
        },
        {
          "internalType": "address",
          "name": "owner",
          "type": "address"
        },
        {
          "internalType": "address",
          "name": "coordinator",
          "type": "address"
        }
      ],
      "name": "OnlyOwnerOrCoordinator",
      "type": "error"
    },
    {
      "inputs": [],
      "name": "PendingSeed",
      "type": "error"
    },
    {
      "inputs": [],
      "name": "PrizeAlreadyClaimed",
      "type": "error"
    },
    {
      "inputs": [],
      "name": "PrizeAlreadyWon",
      "type": "error"
    },
    {
      "inputs": [
        {
          "internalType": "uint256",
          "name": "reqId",
          "type": "uint256"
        }
      ],
      "name": "ReqNotFound",
      "type": "error"
    },
    {
      "inputs": [],
      "name": "TransferFailed",
      "type": "error"
    },
    {
      "inputs": [],
      "name": "Unauthorized",
      "type": "error"
    },
    {
      "inputs": [],
      "name": "UnknownRequest",
      "type": "error"
    },
    {
      "inputs": [],
      "name": "WrongAmount",
      "type": "error"
    },
    {
      "inputs": [],
      "name": "WrongGameStatus",
      "type": "error"
    },
    {
      "inputs": [],
      "name": "WrongPayment",
      "type": "error"
    },
    {
      "inputs": [],
      "name": "ZeroAddress",
      "type": "error"
    },
    {
      "anonymous": false,
      "inputs": [
        {
          "indexed": false,
          "internalType": "address",
          "name": "account",
          "type": "address"
        },
        {
          "indexed": false,
          "internalType": "bool",
          "name": "state",
          "type": "bool"
        }
      ],
      "name": "AdminSet",
      "type": "event"
    },
    {
      "anonymous": false,
      "inputs": [
        {
          "indexed": false,
          "internalType": "uint256",
          "name": "gameId",
          "type": "uint256"
        },
        {
          "indexed": false,
          "internalType": "address",
          "name": "player",
          "type": "address"
        },
        {
          "indexed": false,
          "internalType": "uint256",
          "name": "playerCardIndex",
          "type": "uint256"
        }
      ],
      "name": "CardRedrawn",
      "type": "event"
    },
    {
      "anonymous": false,
      "inputs": [
        {
          "indexed": false,
          "internalType": "uint256",
          "name": "amount",
          "type": "uint256"
        },
        {
          "indexed": false,
          "internalType": "uint256",
          "name": "newCount",
          "type": "uint256"
        }
      ],
      "name": "CardsAdded",
      "type": "event"
    },
    {
      "anonymous": false,
      "inputs": [
        {
          "indexed": false,
          "internalType": "uint256",
          "name": "amount",
          "type": "uint256"
        }
      ],
      "name": "CardsUpdated",
      "type": "event"
    },
    {
      "anonymous": false,
      "inputs": [
        {
          "indexed": false,
          "internalType": "address",
          "name": "vrfCoordinator",
          "type": "address"
        }
      ],
      "name": "CoordinatorSet",
      "type": "event"
    },
    {
      "anonymous": false,
      "inputs": [
        {
          "indexed": false,
          "internalType": "uint256",
          "name": "gameId",
          "type": "uint256"
        }
      ],
      "name": "GameCancelled",
      "type": "event"
    },
    {
      "anonymous": false,
      "inputs": [
        {
          "indexed": true,
          "internalType": "address",
          "name": "host",
          "type": "address"
        },
        {
          "indexed": false,
          "internalType": "uint256",
          "name": "gameId",
          "type": "uint256"
        },
        {
          "indexed": false,
          "internalType": "uint256",
          "name": "startDate",
          "type": "uint256"
        },
        {
          "indexed": false,
          "internalType": "uint256",
          "name": "maxCardsPerPlayer",
          "type": "uint256"
        },
        {
          "indexed": false,
          "internalType": "uint256",
          "name": "cardPrice",
          "type": "uint256"
        }
      ],
      "name": "GameCreated",
      "type": "event"
    },
    {
      "anonymous": false,
      "inputs": [
        {
          "indexed": false,
          "internalType": "uint256",
          "name": "gameId",
          "type": "uint256"
        }
      ],
      "name": "GameEnds",
      "type": "event"
    },
    {
      "anonymous": false,
      "inputs": [
        {
          "indexed": false,
          "internalType": "uint256",
          "name": "gameId",
          "type": "uint256"
        }
      ],
      "name": "GameStarted",
      "type": "event"
    },
    {
      "anonymous": false,
      "inputs": [
        {
          "indexed": false,
          "internalType": "address",
          "name": "account",
          "type": "address"
        },
        {
          "indexed": false,
          "internalType": "bool",
          "name": "state",
          "type": "bool"
        }
      ],
      "name": "HostSet",
      "type": "event"
    },
    {
      "anonymous": false,
      "inputs": [
        {
          "indexed": false,
          "internalType": "uint256",
          "name": "gameId",
          "type": "uint256"
        },
        {
          "indexed": false,
          "internalType": "uint8",
          "name": "revealedNum",
          "type": "uint8"
        }
      ],
      "name": "NumberRevealed",
      "type": "event"
    },
    {
      "anonymous": false,
      "inputs": [
        {
          "indexed": true,
          "internalType": "address",
          "name": "from",
          "type": "address"
        },
        {
          "indexed": true,
          "internalType": "address",
          "name": "to",
          "type": "address"
        }
      ],
      "name": "OwnershipTransferRequested",
      "type": "event"
    },
    {
      "anonymous": false,
      "inputs": [
        {
          "indexed": true,
          "internalType": "address",
          "name": "from",
          "type": "address"
        },
        {
          "indexed": true,
          "internalType": "address",
          "name": "to",
          "type": "address"
        }
      ],
      "name": "OwnershipTransferred",
      "type": "event"
    },
    {
      "anonymous": false,
      "inputs": [
        {
          "indexed": false,
          "internalType": "uint256",
          "name": "gameId",
          "type": "uint256"
        },
        {
          "indexed": false,
          "internalType": "address",
          "name": "player",
          "type": "address"
        },
        {
          "indexed": false,
          "internalType": "uint256",
          "name": "cardsCount",
          "type": "uint256"
        }
      ],
      "name": "PlayerJoined",
      "type": "event"
    },
    {
      "anonymous": false,
      "inputs": [
        {
          "indexed": false,
          "internalType": "uint256",
          "name": "gameId",
          "type": "uint256"
        },
        {
          "indexed": false,
          "internalType": "uint256",
          "name": "totalAmount",
          "type": "uint256"
        }
      ],
      "name": "PrizeCollected",
      "type": "event"
    },
    {
      "anonymous": false,
      "inputs": [
        {
          "indexed": false,
          "internalType": "uint256",
          "name": "gameId",
          "type": "uint256"
        },
        {
          "indexed": false,
          "internalType": "uint256",
          "name": "prizeIndex",
          "type": "uint256"
        },
        {
          "indexed": false,
          "internalType": "address",
          "name": "winner",
          "type": "address"
        },
        {
          "indexed": false,
          "internalType": "uint256",
          "name": "winnerCard",
          "type": "uint256"
        }
      ],
      "name": "PrizeWon",
      "type": "event"
    },
    {
      "anonymous": false,
      "inputs": [
        {
          "indexed": true,
          "internalType": "uint256",
          "name": "gameId",
          "type": "uint256"
        },
        {
          "indexed": true,
          "internalType": "address",
          "name": "account",
          "type": "address"
        },
        {
          "indexed": false,
          "internalType": "uint256",
          "name": "amount",
          "type": "uint256"
        }
      ],
      "name": "RefundSent",
      "type": "event"
    },
    {
      "anonymous": false,
      "inputs": [
        {
          "indexed": false,
          "internalType": "uint256",
          "name": "requestId",
          "type": "uint256"
        },
        {
          "indexed": true,
          "internalType": "enum IJammy.RandomRequestType",
          "name": "reqType",
          "type": "uint8"
        },
        {
          "indexed": false,
          "internalType": "address",
          "name": "player",
          "type": "address"
        },
        {
          "indexed": false,
          "internalType": "uint256",
          "name": "numberOfWords",
          "type": "uint256"
        }
      ],
      "name": "RequestFulfilled",
      "type": "event"
    },
    {
      "anonymous": false,
      "inputs": [
        {
          "indexed": false,
          "internalType": "uint256",
          "name": "requestId",
          "type": "uint256"
        },
        {
          "indexed": false,
          "internalType": "uint32",
          "name": "numberOfWords",
          "type": "uint32"
        }
      ],
      "name": "RequestSent",
      "type": "event"
    },
    {
      "inputs": [],
      "name": "EXPIRATION_DURATION",
      "outputs": [
        {
          "internalType": "uint256",
          "name": "",
          "type": "uint256"
        }
      ],
      "stateMutability": "view",
      "type": "function"
    },
    {
      "inputs": [],
      "name": "MAX_NUMBER",
      "outputs": [
        {
          "internalType": "uint256",
          "name": "",
          "type": "uint256"
        }
      ],
      "stateMutability": "view",
      "type": "function"
    },
    {
      "inputs": [],
      "name": "PRECISION_BASIS",
      "outputs": [
        {
          "internalType": "uint256",
          "name": "",
          "type": "uint256"
        }
      ],
      "stateMutability": "view",
      "type": "function"
    },
    {
      "inputs": [],
      "name": "PRIZE_COUNT",
      "outputs": [
        {
          "internalType": "uint256",
          "name": "",
          "type": "uint256"
        }
      ],
      "stateMutability": "view",
      "type": "function"
    },
    {
      "inputs": [],
      "name": "acceptOwnership",
      "outputs": [],
      "stateMutability": "nonpayable",
      "type": "function"
    },
    {
      "inputs": [
        {
          "internalType": "address",
          "name": "",
          "type": "address"
        }
      ],
      "name": "admins",
      "outputs": [
        {
          "internalType": "bool",
          "name": "",
          "type": "bool"
        }
      ],
      "stateMutability": "view",
      "type": "function"
    },
    {
      "inputs": [
        {
          "internalType": "uint256",
          "name": "",
          "type": "uint256"
        }
      ],
      "name": "availableNumbers",
      "outputs": [
        {
          "internalType": "uint8",
          "name": "",
          "type": "uint8"
        }
      ],
      "stateMutability": "view",
      "type": "function"
    },
    {
      "inputs": [
        {
          "internalType": "uint256[]",
          "name": "newCards",
          "type": "uint256[]"
        }
      ],
      "name": "batchAddCards",
      "outputs": [],
      "stateMutability": "nonpayable",
      "type": "function"
    },
    {
      "inputs": [
        {
          "internalType": "uint256[]",
          "name": "indexes",
          "type": "uint256[]"
        },
        {
          "internalType": "uint256[]",
          "name": "newCards",
          "type": "uint256[]"
        }
      ],
      "name": "batchUpdateCards",
      "outputs": [],
      "stateMutability": "nonpayable",
      "type": "function"
    },
    {
      "inputs": [],
      "name": "callbackGasLimit",
      "outputs": [
        {
          "internalType": "uint32",
          "name": "",
          "type": "uint32"
        }
      ],
      "stateMutability": "view",
      "type": "function"
    },
    {
      "inputs": [
        {
          "internalType": "uint256",
          "name": "gameId",
          "type": "uint256"
        }
      ],
      "name": "cancelGame",
      "outputs": [],
      "stateMutability": "nonpayable",
      "type": "function"
    },
    {
      "inputs": [
        {
          "internalType": "uint256",
          "name": "",
          "type": "uint256"
        }
      ],
      "name": "cards",
      "outputs": [
        {
          "internalType": "uint256",
          "name": "",
          "type": "uint256"
        }
      ],
      "stateMutability": "view",
      "type": "function"
    },
    {
      "inputs": [
        {
          "internalType": "uint256",
          "name": "gameId",
          "type": "uint256"
        }
      ],
      "name": "claimPrize",
      "outputs": [],
      "stateMutability": "nonpayable",
      "type": "function"
    },
    {
      "inputs": [
        {
          "internalType": "uint256",
          "name": "gameId",
          "type": "uint256"
        }
      ],
      "name": "claimRefund",
      "outputs": [],
      "stateMutability": "nonpayable",
      "type": "function"
    },
    {
      "inputs": [
        {
          "internalType": "uint256",
          "name": "startDate",
          "type": "uint256"
        },
        {
          "internalType": "uint256",
          "name": "maxCardsPerPlayer",
          "type": "uint256"
        },
        {
          "internalType": "uint256",
          "name": "cardPrice",
          "type": "uint256"
        },
        {
          "internalType": "uint256",
          "name": "houseShare",
          "type": "uint256"
        },
        {
          "internalType": "uint256[]",
          "name": "prizeShares",
          "type": "uint256[]"
        }
      ],
      "name": "createGame",
      "outputs": [],
      "stateMutability": "nonpayable",
      "type": "function"
    },
    {
      "inputs": [],
      "name": "deployer",
      "outputs": [
        {
          "internalType": "address",
          "name": "",
          "type": "address"
        }
      ],
      "stateMutability": "view",
      "type": "function"
    },
    {
      "inputs": [
        {
          "internalType": "uint256",
          "name": "",
          "type": "uint256"
        },
        {
          "internalType": "uint8",
          "name": "",
          "type": "uint8"
        }
      ],
      "name": "drawnNumbers",
      "outputs": [
        {
          "internalType": "bool",
          "name": "",
          "type": "bool"
        }
      ],
      "stateMutability": "view",
      "type": "function"
    },
    {
      "inputs": [],
      "name": "gameCounter",
      "outputs": [
        {
          "internalType": "uint256",
          "name": "",
          "type": "uint256"
        }
      ],
      "stateMutability": "view",
      "type": "function"
    },
    {
      "inputs": [
        {
          "internalType": "uint256",
          "name": "",
          "type": "uint256"
        },
        {
          "internalType": "uint256",
          "name": "",
          "type": "uint256"
        }
      ],
      "name": "gamePrizes",
      "outputs": [
        {
          "internalType": "uint256",
          "name": "share",
          "type": "uint256"
        },
        {
          "internalType": "bool",
          "name": "won",
          "type": "bool"
        }
      ],
      "stateMutability": "view",
      "type": "function"
    },
    {
      "inputs": [
        {
          "internalType": "uint256",
          "name": "gameId",
          "type": "uint256"
        }
      ],
      "name": "gameStatus",
      "outputs": [
        {
          "internalType": "enum IJammy.GameStatus",
          "name": "",
          "type": "uint8"
        }
      ],
      "stateMutability": "view",
      "type": "function"
    },
    {
      "inputs": [
        {
          "internalType": "uint256",
          "name": "",
          "type": "uint256"
        }
      ],
      "name": "games",
      "outputs": [
        {
          "internalType": "address",
          "name": "host",
          "type": "address"
        },
        {
          "internalType": "uint256",
          "name": "startDate",
          "type": "uint256"
        },
        {
          "internalType": "uint256",
          "name": "maxCardsPerPlayer",
          "type": "uint256"
        },
        {
          "internalType": "uint256",
          "name": "cardPrice",
          "type": "uint256"
        },
        {
          "internalType": "uint256",
          "name": "totalCardsSold",
          "type": "uint256"
        },
        {
          "internalType": "uint256",
          "name": "houseShare",
          "type": "uint256"
        },
        {
          "internalType": "uint256",
          "name": "seed",
          "type": "uint256"
        },
        {
          "internalType": "bool",
          "name": "cancelled",
          "type": "bool"
        },
        {
          "internalType": "uint256",
          "name": "totalPlayerCount",
          "type": "uint256"
        }
      ],
      "stateMutability": "view",
      "type": "function"
    },
    {
      "inputs": [],
      "name": "getCards",
      "outputs": [
        {
          "internalType": "uint256[]",
          "name": "allCards",
          "type": "uint256[]"
        }
      ],
      "stateMutability": "view",
      "type": "function"
    },
    {
      "inputs": [
        {
          "internalType": "uint256",
          "name": "gameId",
          "type": "uint256"
        },
        {
          "internalType": "address",
          "name": "playerAddr",
          "type": "address"
        },
        {
          "internalType": "uint256",
          "name": "prizeIndex",
          "type": "uint256"
        }
      ],
      "name": "getGameInfo",
      "outputs": [
        {
          "components": [
            {
              "internalType": "uint256",
              "name": "availableNumbersLength",
              "type": "uint256"
            },
            {
              "internalType": "uint256",
              "name": "gamePrizesLength",
              "type": "uint256"
            },
            {
              "internalType": "uint256",
              "name": "prizeWinnersLength",
              "type": "uint256"
            },
            {
              "internalType": "uint256",
              "name": "numbersLength",
              "type": "uint256"
            },
            {
              "internalType": "uint256",
              "name": "cardsLength",
              "type": "uint256"
            },
            {
              "internalType": "uint256",
              "name": "playerCardsLength",
              "type": "uint256"
            }
          ],
          "internalType": "struct IJammy.GetInfo",
          "name": "info",
          "type": "tuple"
        }
      ],
      "stateMutability": "view",
      "type": "function"
    },
    {
      "inputs": [
        {
          "internalType": "address",
          "name": "",
          "type": "address"
        }
      ],
      "name": "hosts",
      "outputs": [
        {
          "internalType": "bool",
          "name": "",
          "type": "bool"
        }
      ],
      "stateMutability": "view",
      "type": "function"
    },
    {
      "inputs": [
        {
          "internalType": "uint256",
          "name": "gameId",
          "type": "uint256"
        },
        {
          "internalType": "uint256",
          "name": "cardsCount",
          "type": "uint256"
        }
      ],
      "name": "joinGame",
      "outputs": [],
      "stateMutability": "payable",
      "type": "function"
    },
    {
      "inputs": [],
      "name": "keyhash",
      "outputs": [
        {
          "internalType": "bytes32",
          "name": "",
          "type": "bytes32"
        }
      ],
      "stateMutability": "view",
      "type": "function"
    },
    {
      "inputs": [
        {
          "internalType": "uint256",
          "name": "",
          "type": "uint256"
        },
        {
          "internalType": "uint256",
          "name": "",
          "type": "uint256"
        }
      ],
      "name": "numbers",
      "outputs": [
        {
          "internalType": "uint8",
          "name": "",
          "type": "uint8"
        }
      ],
      "stateMutability": "view",
      "type": "function"
    },
    {
      "inputs": [],
      "name": "owner",
      "outputs": [
        {
          "internalType": "address",
          "name": "",
          "type": "address"
        }
      ],
      "stateMutability": "view",
      "type": "function"
    },
    {
      "inputs": [],
      "name": "pendingFunds",
      "outputs": [
        {
          "internalType": "uint256",
          "name": "",
          "type": "uint256"
        }
      ],
      "stateMutability": "view",
      "type": "function"
    },
    {
      "inputs": [
        {
          "internalType": "uint256",
          "name": "",
          "type": "uint256"
        },
        {
          "internalType": "address",
          "name": "",
          "type": "address"
        },
        {
          "internalType": "uint256",
          "name": "",
          "type": "uint256"
        }
      ],
      "name": "playerCards",
      "outputs": [
        {
          "internalType": "uint256",
          "name": "",
          "type": "uint256"
        }
      ],
      "stateMutability": "view",
      "type": "function"
    },
    {
      "inputs": [
        {
          "internalType": "uint256",
          "name": "",
          "type": "uint256"
        },
        {
          "internalType": "uint256",
          "name": "",
          "type": "uint256"
        },
        {
          "internalType": "uint256",
          "name": "",
          "type": "uint256"
        }
      ],
      "name": "prizeWinners",
      "outputs": [
        {
          "internalType": "address",
          "name": "",
          "type": "address"
        }
      ],
      "stateMutability": "view",
      "type": "function"
    },
    {
      "inputs": [
        {
          "internalType": "uint256",
          "name": "",
          "type": "uint256"
        }
      ],
      "name": "prizesClaimed",
      "outputs": [
        {
          "internalType": "bool",
          "name": "",
          "type": "bool"
        }
      ],
      "stateMutability": "view",
      "type": "function"
    },
    {
      "inputs": [
        {
          "internalType": "uint256",
          "name": "",
          "type": "uint256"
        }
      ],
      "name": "randomRequests",
      "outputs": [
        {
          "internalType": "uint256",
          "name": "gameId",
          "type": "uint256"
        },
        {
          "internalType": "address",
          "name": "player",
          "type": "address"
        },
        {
          "internalType": "enum IJammy.RandomRequestType",
          "name": "requestType",
          "type": "uint8"
        }
      ],
      "stateMutability": "view",
      "type": "function"
    },
    {
      "inputs": [
        {
          "internalType": "uint256",
          "name": "requestId",
          "type": "uint256"
        },
        {
          "internalType": "uint256[]",
          "name": "randomWords",
          "type": "uint256[]"
        }
      ],
      "name": "rawFulfillRandomWords",
      "outputs": [],
      "stateMutability": "nonpayable",
      "type": "function"
    },
    {
      "inputs": [
        {
          "internalType": "uint256",
          "name": "gameId",
          "type": "uint256"
        },
        {
          "internalType": "uint256",
          "name": "playerCardIndex",
          "type": "uint256"
        }
      ],
      "name": "redrawCard",
      "outputs": [],
      "stateMutability": "payable",
      "type": "function"
    },
    {
      "inputs": [
        {
          "internalType": "uint256",
          "name": "",
          "type": "uint256"
        },
        {
          "internalType": "address",
          "name": "",
          "type": "address"
        }
      ],
      "name": "refunds",
      "outputs": [
        {
          "internalType": "bool",
          "name": "",
          "type": "bool"
        }
      ],
      "stateMutability": "view",
      "type": "function"
    },
    {
      "inputs": [
        {
          "internalType": "uint256",
          "name": "gameId",
          "type": "uint256"
        }
      ],
      "name": "revealNumber",
      "outputs": [
        {
          "internalType": "uint8",
          "name": "revealedNumber",
          "type": "uint8"
        }
      ],
      "stateMutability": "nonpayable",
      "type": "function"
    },
    {
      "inputs": [
        {
          "internalType": "uint256",
          "name": "",
          "type": "uint256"
        },
        {
          "internalType": "uint256",
          "name": "",
          "type": "uint256"
        }
      ],
      "name": "revealedCards",
      "outputs": [
        {
          "internalType": "bool",
          "name": "",
          "type": "bool"
        }
      ],
      "stateMutability": "view",
      "type": "function"
    },
    {
      "inputs": [],
      "name": "s_vrfCoordinator",
      "outputs": [
        {
          "internalType": "contract IVRFCoordinatorV2Plus",
          "name": "",
          "type": "address"
        }
      ],
      "stateMutability": "view",
      "type": "function"
    },
    {
      "inputs": [
        {
          "internalType": "address",
          "name": "addr",
          "type": "address"
        },
        {
          "internalType": "bool",
          "name": "state",
          "type": "bool"
        }
      ],
      "name": "setAdmin",
      "outputs": [],
      "stateMutability": "nonpayable",
      "type": "function"
    },
    {
      "inputs": [
        {
          "internalType": "address",
          "name": "_vrfCoordinator",
          "type": "address"
        }
      ],
      "name": "setCoordinator",
      "outputs": [],
      "stateMutability": "nonpayable",
      "type": "function"
    },
    {
      "inputs": [
        {
          "internalType": "address",
          "name": "addr",
          "type": "address"
        },
        {
          "internalType": "bool",
          "name": "state",
          "type": "bool"
        }
      ],
      "name": "setHost",
      "outputs": [],
      "stateMutability": "nonpayable",
      "type": "function"
    },
    {
      "inputs": [
        {
          "internalType": "uint256",
          "name": "gameId",
          "type": "uint256"
        }
      ],
      "name": "startGame",
      "outputs": [],
      "stateMutability": "nonpayable",
      "type": "function"
    },
    {
      "inputs": [],
      "name": "subscriptionId",
      "outputs": [
        {
          "internalType": "uint256",
          "name": "",
          "type": "uint256"
        }
      ],
      "stateMutability": "view",
      "type": "function"
    },
    {
      "inputs": [],
      "name": "team1Address",
      "outputs": [
        {
          "internalType": "address",
          "name": "",
          "type": "address"
        }
      ],
      "stateMutability": "view",
      "type": "function"
    },
    {
      "inputs": [],
      "name": "team1Shares",
      "outputs": [
        {
          "internalType": "uint256",
          "name": "",
          "type": "uint256"
        }
      ],
      "stateMutability": "view",
      "type": "function"
    },
    {
      "inputs": [],
      "name": "team2Address",
      "outputs": [
        {
          "internalType": "address",
          "name": "",
          "type": "address"
        }
      ],
      "stateMutability": "view",
      "type": "function"
    },
    {
      "inputs": [],
      "name": "team2Shares",
      "outputs": [
        {
          "internalType": "uint256",
          "name": "",
          "type": "uint256"
        }
      ],
      "stateMutability": "view",
      "type": "function"
    },
    {
      "inputs": [
        {
          "internalType": "address",
          "name": "to",
          "type": "address"
        }
      ],
      "name": "transferOwnership",
      "outputs": [],
      "stateMutability": "nonpayable",
      "type": "function"
    },
    {
      "inputs": [],
      "name": "vrfCoordinator",
      "outputs": [
        {
          "internalType": "address",
          "name": "",
          "type": "address"
        }
      ],
      "stateMutability": "view",
      "type": "function"
    },
    {
      "inputs": [
        {
          "internalType": "uint256",
          "name": "gameId",
          "type": "uint256"
        },
        {
          "internalType": "uint256",
          "name": "prizeIndex",
          "type": "uint256"
        },
        {
          "internalType": "uint256",
          "name": "playerCardIndex",
          "type": "uint256"
        }
      ],
      "name": "winPrize",
      "outputs": [],
      "stateMutability": "nonpayable",
      "type": "function"
    },
    {
      "inputs": [
        {
          "internalType": "uint256",
          "name": "amount",
          "type": "uint256"
        }
      ],
      "name": "withdraw",
      "outputs": [],
      "stateMutability": "nonpayable",
      "type": "function"
    }
  ],
  "bytecode": "0x6101a06040523480156200001257600080fd5b5060405162004029380380620040298339810160408190526200003591620002ba565b8733806000816200008d5760405162461bcd60e51b815260206004820152601860248201527f43616e6e6f7420736574206f776e657220746f207a65726f000000000000000060448201526064015b60405180910390fd5b600080546001600160a01b0319166001600160a01b0384811691909117909155811615620000c057620000c081620001f2565b5050506001600160a01b038116620000eb5760405163d92e233d60e01b815260040160405180910390fd5b600280546001600160a01b0319166001600160a01b03929092169190911790556127106200011a848662000349565b1462000139576040516324e7af5b60e01b815260040160405180910390fd5b608084905260a08390526001600160a01b0380831660c05281811660e052336101805288166101005261012087905261014086905263ffffffff85166101605260015b604b8160ff1611620001e3576003805460018181018355600092909252602081047fc2575a0e9e593c00f959f8c92f12db2869c3395a3b0502d05e2516446f71f85b01805460ff808616601f9094166101000a93840293021916919091179055016200017c565b50505050505050505062000371565b336001600160a01b038216036200024c5760405162461bcd60e51b815260206004820152601760248201527f43616e6e6f74207472616e7366657220746f2073656c66000000000000000000604482015260640162000084565b600180546001600160a01b0319166001600160a01b0383811691821790925560008054604051929316917fed8889f560326eb138920d842192f0eb3dd22b4f139c87a2c57538e05bae12789190a350565b80516001600160a01b0381168114620002b557600080fd5b919050565b600080600080600080600080610100898b031215620002d857600080fd5b620002e3896200029d565b97506020890151965060408901519550606089015163ffffffff811681146200030b57600080fd5b60808a015160a08b0151919650945092506200032a60c08a016200029d565b91506200033a60e08a016200029d565b90509295985092959890939650565b808201808211156200036b57634e487b7160e01b600052601160045260246000fd5b92915050565b60805160a05160c05160e0516101005161012051610140516101605161018051613bec6200043d60003960008181610a8a01528181610ee901526113ff0152600081816104890152612bc20152600081816103160152612b910152600081816106a70152612b6b015260006108b201526000818161082301528181610ff301526123220152600081816105e601528181610fc901526122f8015260008181610afe01528181610f9301526122a90152600081816107cf01528181610f58015261226e0152613bec6000f3fe6080604052600436106102ff5760003560e01c806392ca17e311610190578063ca067ad0116100dc578063e5ed1d5911610095578063fe7d567d1161006f578063fe7d567d14610b80578063fea9b57214610ba0578063ff1f601014610bb5578063ff78b4ef14610bd557600080fd5b8063e5ed1d5914610b20578063f2fde38b14610b40578063fa662a7314610b6057600080fd5b8063ca067ad014610a00578063cc80dd0614610a58578063d5f3948814610a78578063d709815414610aac578063dbde179514610acc578063e2a12cbb14610aec57600080fd5b8063a3e56fa811610149578063b0f279c811610123578063b0f279c814610916578063b397a12614610951578063b60b9fcb146109bd578063b9ced5fe146109d057600080fd5b8063a3e56fa8146108a0578063a9ef4a75146108d4578063b0df9e53146108f457600080fd5b806392ca17e31461079d5780639427552b146107bd5780639590ca6f146107f1578063973ea9d51461081157806397509e47146108455780639eccacf61461088057600080fd5b80634811c0701161024f5780636c70f15e116102085780638da5cb5b116101e25780638da5cb5b1461070a5780638dc10768146107285780638e6bb11b146107485780638ea981171461077d57600080fd5b80636c70f15e146106c957806379ba5097146106df5780637c6bc9be146106f457600080fd5b80634811c070146105d45780634b0bddd2146106205780634d07af46146106405780635b7baf641461065557806369958ab91461067557806369ebe78e1461069557600080fd5b80632794a63d116102bc578063324acb9011610296578063324acb901461050c57806334239c9c1461052c578063429b62e514610559578063454cc4bc1461059957600080fd5b80632794a63d146104c05780632e0be39a146104d65780632e1a7d4d146104ec57600080fd5b806309c1ba2e14610304578063117a5b901461034b57806317b2158914610410578063189b36b4146104255780631fe543e31461045757806324f7469714610477575b600080fd5b34801561031057600080fd5b506103387f000000000000000000000000000000000000000000000000000000000000000081565b6040519081526020015b60405180910390f35b34801561035757600080fd5b506103c0610366366004613644565b60086020819052600091825260409091208054600182015460028301546003840154600485015460058601546006870154600788015497909801546001600160a01b03909616979496939592949193909260ff9091169089565b604080516001600160a01b03909a168a5260208a0198909852968801959095526060870193909352608086019190915260a085015260c0840152151560e083015261010082015261012001610342565b61042361041e36600461365d565b610c05565b005b34801561043157600080fd5b5061044561044036600461365d565b610e46565b60405160ff9091168152602001610342565b34801561046357600080fd5b506104236104723660046136cb565b610e89565b34801561048357600080fd5b506104ab7f000000000000000000000000000000000000000000000000000000000000000081565b60405163ffffffff9091168152602001610342565b3480156104cc57600080fd5b50610338611c2081565b3480156104e257600080fd5b5061033860075481565b3480156104f857600080fd5b50610423610507366004613644565b610ede565b34801561051857600080fd5b50610423610527366004613717565b611018565b34801561053857600080fd5b5061054c610547366004613644565b6112bc565b6040516103429190613759565b34801561056557600080fd5b5061058961057436600461378f565b60056020526000908152604090205460ff1681565b6040519015158152602001610342565b3480156105a557600080fd5b506105896105b43660046137aa565b601160209081526000928352604080842090915290825290205460ff1681565b3480156105e057600080fd5b506106087f000000000000000000000000000000000000000000000000000000000000000081565b6040516001600160a01b039091168152602001610342565b34801561062c57600080fd5b5061042361063b3660046137d6565b6113f4565b34801561064c57600080fd5b50610338600581565b34801561066157600080fd5b50610423610670366004613644565b6114a0565b34801561068157600080fd5b50610423610690366004613644565b6115ee565b3480156106a157600080fd5b506103387f000000000000000000000000000000000000000000000000000000000000000081565b3480156106d557600080fd5b5061033861271081565b3480156106eb57600080fd5b506104236116fa565b34801561070057600080fd5b5061033860125481565b34801561071657600080fd5b506000546001600160a01b0316610608565b34801561073457600080fd5b50610338610743366004613644565b6117a4565b34801561075457600080fd5b5061076861076336600461365d565b6117c5565b60408051928352901515602083015201610342565b34801561078957600080fd5b5061042361079836600461378f565b611804565b3480156107a957600080fd5b506104236107b83660046137d6565b6118f6565b3480156107c957600080fd5b506103387f000000000000000000000000000000000000000000000000000000000000000081565b3480156107fd57600080fd5b5061042361080c366004613812565b611981565b34801561081d57600080fd5b506106087f000000000000000000000000000000000000000000000000000000000000000081565b34801561085157600080fd5b5061058961086036600461365d565b600e60209081526000928352604080842090915290825290205460ff1681565b34801561088c57600080fd5b50600254610608906001600160a01b031681565b3480156108ac57600080fd5b506106087f000000000000000000000000000000000000000000000000000000000000000081565b3480156108e057600080fd5b506104236108ef36600461387e565b611a74565b34801561090057600080fd5b50610909611da1565b60405161034291906138e8565b34801561092257600080fd5b5061058961093136600461392c565b600c60209081526000928352604080842090915290825290205460ff1681565b34801561095d57600080fd5b5061097161096c366004613957565b611df9565b6040516103429190600060c082019050825182526020830151602083015260408301516040830152606083015160608301526080830151608083015260a083015160a083015292915050565b6104236109cb36600461365d565b611ea3565b3480156109dc57600080fd5b506105896109eb36600461378f565b60066020526000908152604090205460ff1681565b348015610a0c57600080fd5b50610a49610a1b366004613644565b600460205260009081526040902080546001909101546001600160a01b03811690600160a01b900460ff1683565b6040516103429392919061398c565b348015610a6457600080fd5b50610608610a73366004613717565b6120fe565b348015610a8457600080fd5b506106087f000000000000000000000000000000000000000000000000000000000000000081565b348015610ab857600080fd5b50610423610ac7366004613644565b612143565b348015610ad857600080fd5b50610445610ae7366004613644565b61258c565b348015610af857600080fd5b506103387f000000000000000000000000000000000000000000000000000000000000000081565b348015610b2c57600080fd5b50610423610b3b366004613644565b6125c0565b348015610b4c57600080fd5b50610423610b5b36600461378f565b6126f8565b348015610b6c57600080fd5b50610423610b7b3660046139c0565b61270c565b348015610b8c57600080fd5b50610445610b9b366004613644565b6127bf565b348015610bac57600080fd5b50610338604b81565b348015610bc157600080fd5b50610338610bd0366004613957565b612b1d565b348015610be157600080fd5b50610589610bf0366004613644565b60106020526000908152604090205460ff1681565b81600180610c12836112bc565b6006811115610c2357610c23613743565b14610c415760405163263ab1ff60e11b815260040160405180910390fd5b6000848152600f602090815260408083203384529091529020548310610c7a57604051630479201160e41b815260040160405180910390fd5b6000848152600f602090815260408083203384529091528120805485908110610ca557610ca5613a02565b906000526020600020015490506002811015610cd4576040516333026e1560e21b815260040160405180910390fd5b6000858152600e602090815260408083208484528252808320805460ff1916905587835260088083529281902081516101208101835281546001600160a01b031681526001820154938101939093526002808201549284019290925260038101546060840181905260048201546080850152600582015460a0850152600682015460c0850152600782015460ff16151560e08501529301546101008301529091610d7e9190613a44565b3414610d9d5760405163788a686f60e01b815260040160405180910390fd5b3460126000828254610daf9190613a58565b90915550506000868152600f60209081526040808320338452909152902080546001919087908110610de357610de3613a02565b600091825260209091200155610dfd600187336002612b5b565b50604080518781523360208201529081018690527f930d62ec39f144c870a941ea5de98eb4242d21eb495d9ffe875009ad5e4215339060600160405180910390a1505050505050565b600b6020528160005260406000208181548110610e6257600080fd5b9060005260206000209060209182820401919006915091509054906101000a900460ff1681565b6002546001600160a01b03163314610ece5760025460405163073e64fd60e21b81523360048201526001600160a01b0390911660248201526044015b60405180910390fd5b610ed9838383612d70565b505050565b336001600160a01b037f00000000000000000000000000000000000000000000000000000000000000001614610f26576040516282b42960e81b815260040160405180910390fd5b601254811115610f49576040516349986e7360e01b815260040160405180910390fd5b60006012819055612710610f7d7f000000000000000000000000000000000000000000000000000000000000000084613a6b565b610f879190613a44565b90506000612710610fb87f000000000000000000000000000000000000000000000000000000000000000085613a6b565b610fc29190613a44565b9050610fee7f0000000000000000000000000000000000000000000000000000000000000000836131a0565b610ed97f0000000000000000000000000000000000000000000000000000000000000000826131a0565b82600380611025836112bc565b600681111561103657611036613743565b146110545760405163263ab1ff60e11b815260040160405180910390fd5b600085815260096020526040812080548690811061107457611074613a02565b600091825260209182902060408051808201909152600290920201805482526001015460ff161580159282019290925291506110c35760405163c079469760e01b815260040160405180910390fd5b6000868152600a6020908152604080832088845282528083208054825181850281018501909352808352919290919083018282801561112b57602002820191906000526020600020905b81546001600160a01b0316815260019091019060200180831161110d575b5050505050905060005b81518110156111915781818151811061115057611150613a02565b60200260200101516001600160a01b0316336001600160a01b03160361118957604051637d7eaa2d60e11b815260040160405180910390fd5b600101611135565b506000878152600f6020908152604080832033845290915290205485106111cb57604051630832ba8b60e41b815260040160405180910390fd5b6000878152600f6020908152604080832033845290915281208054879081106111f6576111f6613a02565b90600052602060002001549050600061121089838a61322e565b9050806112305760405163adfce5a360e01b815260040160405180910390fd5b6000898152600a602090815260408083208b845282528083208054600181018255908452928290209092018054336001600160a01b0319909116811790915582518c81529182018b9052818301526060810184905290517ff01d6fd8c09ef3e242baa03f4951b7ea8ce0c04e3a93dd6e59a20cdd8a5107be9181900360800190a1505050505050505050565b600081815260086020818152604080842081516101208101835281546001600160a01b0316815260018201549381018490526002820154928101929092526003810154606083015260048101546080830152600581015460a0830152600681015460c0830152600781015460ff16151560e083015290920154610100830152820361134a5750600092915050565b6000838152600960205260408120805490919061136957611369613a02565b600091825260209091206001600290920201015460ff161561138e5750600492915050565b8060e00151156113a15750600692915050565b80602001514210156113b65750600192915050565b611c2081602001516113c89190613a58565b4210156113eb5760c0810151156113e25750600392915050565b50600292915050565b50600592915050565b336001600160a01b037f0000000000000000000000000000000000000000000000000000000000000000161461143c576040516282b42960e81b815260040160405180910390fd5b6001600160a01b038216600081815260056020908152604091829020805460ff19168515159081179091558251938452908301527fe68d2c359a771606c400cf8b87000cf5864010363d6a736e98f5047b7bbe18e991015b60405180910390a15050565b60006114ab826112bc565b905060068160068111156114c1576114c1613743565b141580156114e1575060058160068111156114de576114de613743565b14155b156114ff5760405163263ab1ff60e11b815260040160405180910390fd5b600082815260086020908152604080832060030154600f835281842033855290925282205461152e9190613a6b565b9050806000036115515760405163f76aef6560e01b815260040160405180910390fd5b600083815260116020908152604080832033845290915290205460ff161561158c5760405163542f378d60e11b815260040160405180910390fd5b60008381526011602090815260408083203380855290835292819020805460ff191660011790555183815285917ffbeaa807aad4fcff31eff41f17142e6dcd1babf57c4730e3a4c706ac608cc057910160405180910390a3610ed933826131a0565b33600090815260066020526040902054819060ff1661161f576040516282b42960e81b815260040160405180910390fd5b801580159061164557506000818152600860205260409020546001600160a01b03163314155b15611662576040516282b42960e81b815260040160405180910390fd5b8160018061166f836112bc565b600681111561168057611680613743565b1461169e5760405163263ab1ff60e11b815260040160405180910390fd5b60008481526008602052604090819020600701805460ff19166001179055517f681705fdbd93dba3b679fd712577e9a86d57c5551c520f8c74857deb57f9623f906116ec9086815260200190565b60405180910390a150505050565b6001546001600160a01b0316331461174d5760405162461bcd60e51b815260206004820152601660248201527526bab9ba10313290383937b837b9b2b21037bbb732b960511b6044820152606401610ec5565b60008054336001600160a01b0319808316821784556001805490911690556040516001600160a01b0390921692909183917f8be0079c531659141344cd1fd0a4f28419497f9722a3daafe3b4186f6b6457e091a350565b600d81815481106117b457600080fd5b600091825260209091200154905081565b600960205281600052604060002081815481106117e157600080fd5b60009182526020909120600290910201805460019091015490925060ff16905082565b6000546001600160a01b0316331480159061182a57506002546001600160a01b03163314155b1561187b57336118426000546001600160a01b031690565b60025460405163061db9c160e01b81526001600160a01b0393841660048201529183166024830152919091166044820152606401610ec5565b6001600160a01b0381166118a25760405163d92e233d60e01b815260040160405180910390fd5b600280546001600160a01b0319166001600160a01b0383169081179091556040519081527fd1a6a14209a385a964d036e404cb5cfb71f4000cdb03c9366292430787261be69060200160405180910390a150565b3360009081526005602052604090205460ff16611925576040516282b42960e81b815260040160405180910390fd5b6001600160a01b038216600081815260066020908152604091829020805460ff19168515159081179091558251938452908301527ff4e55a552c0dd38d43f1f1f2aa7ba6e10e5b397505168dead0dfe7a141052ba19101611494565b3360009081526005602052604090205460ff166119b0576040516282b42960e81b815260040160405180910390fd5b8281146119d0576040516324e7af5b60e01b815260040160405180910390fd5b6000805b84811015611a38578383838181106119ee576119ee613a02565b90506020020135600d878784818110611a0957611a09613a02565b9050602002013581548110611a2057611a20613a02565b600091825260209091200155600191820191016119d4565b506040518281527f909437423316f5e34040ca432ee29c5f77e603b8509d9eb85cc740cc1edf150b906020015b60405180910390a15050505050565b3360009081526006602052604081205460ff16611aa3576040516282b42960e81b815260040160405180910390fd5b8015801590611ac957506000818152600860205260409020546001600160a01b03163314155b15611ae6576040516282b42960e81b815260040160405180910390fd5b42871015611b07576040516324e7af5b60e01b815260040160405180910390fd5b60058214611b28576040516324e7af5b60e01b815260040160405180910390fd5b85600003611b49576040516324e7af5b60e01b815260040160405180910390fd5b6007805460010190558360005b6005811015611c0157848482818110611b7157611b71613a02565b9050602002013582611b839190613a58565b6040805180820190915260008082526020820152909250858583818110611bac57611bac613a02565b60209081029290920135835250600754600090815260098252604081208054600180820183559183529183902084516002909302019182559290910151908201805460ff191691151591909117905501611b56565b506127108114611c24576040516324e7af5b60e01b815260040160405180910390fd5b611c7e60405180610120016040528060006001600160a01b03168152602001600081526020016000815260200160008152602001600081526020016000815260200160008152602001600015158152602001600081525090565b33815260208082018a815260408084018b8152606085018b815260a086018b815260078054600090815260088089528682208a5181546001600160a01b0319166001600160a01b0390911617815597516001890155945160028801559251600380880191909155608089015160048801559151600587015560c0880151600687015560e0880151868201805460ff1916911515919091179055610100880151959093019490945590548152600b9093529091208154611d3d92906135d1565b50805160075460408051918252602082018c905281018a9052606081018990526001600160a01b03909116907fa68b9950daefddef3594b7f32ece63939ffaeb76da6cc465b036f12eda2a1a359060800160405180910390a2505050505050505050565b6060600d805480602002602001604051908101604052809291908181526020018280548015611def57602002820191906000526020600020905b815481526020019060010190808311611ddb575b5050505050905090565b611e326040518060c001604052806000815260200160008152602001600081526020016000815260200160008152602001600081525090565b600354815260008481526009602090815260408083205482850152868352600a82528083209483529381528382205484840152858252600b8152838220546060840152600d546080840152948152600f85528281206001600160a01b0390941681529290935290205460a082015290565b81600180611eb0836112bc565b6006811115611ec157611ec1613743565b14611edf5760405163263ab1ff60e11b815260040160405180910390fd5b60008481526008602081815260409283902083516101208101855281546001600160a01b0316815260018201549281019290925260028101549382018490526003810154606083015260048101546080830152600581015460a0830152600681015460c0830152600781015460ff16151560e08301529091015461010082015290841180611f6b575083155b15611f89576040516324e7af5b60e01b815260040160405180910390fd5b838160600151611f999190613a6b565b3414611fb85760405163788a686f60e01b815260040160405180910390fd5b6000858152600f6020908152604080832033845290915290205415611fef57604051621d934160e11b815260040160405180910390fd5b600d54611ffe90600290613a44565b84826080015161200e9190613a58565b111561202d5760405163ac7d874b60e01b815260040160405180910390fd5b6000858152600860205260408120600401805486929061204e908490613a58565b9091555050600085815260086020819052604082200180549161207083613a82565b919050555060005b848110156120b2576000868152600f6020908152604080832033845282528220805460018181018355918452919092200181905501612078565b506120c08486336001612b5b565b50604080518681523360208201529081018590527f03dfbe1fcb4e2d61f3b4a0c93d8f814c92250618b3387f396cc9fc9fafe2c20390606001611a65565b600a602052826000526040600020602052816000526040600020818154811061212657600080fd5b6000918252602090912001546001600160a01b0316925083915050565b80600480612150836112bc565b600681111561216157612161613743565b1461217f5760405163263ab1ff60e11b815260040160405180910390fd5b60008381526010602052604090205460ff16156121af5760405163611ab18960e11b815260040160405180910390fd5b600083815260086020818152604080842081516101208101835281546001600160a01b03168152600182015493810193909352600281015491830191909152600381015460608301819052600482015460808401819052600583015460a0850152600683015460c0850152600783015460ff16151560e085015291909301546101008301529092916122419190613a6b565b905060006127108360a00151836122589190613a6b565b6122629190613a44565b905060006127106122937f000000000000000000000000000000000000000000000000000000000000000084613a6b565b61229d9190613a44565b905060006127106122ce7f000000000000000000000000000000000000000000000000000000000000000085613a6b565b6122d89190613a44565b6000898152601060205260409020805460ff19166001179055905061231d7f0000000000000000000000000000000000000000000000000000000000000000836131a0565b6123477f0000000000000000000000000000000000000000000000000000000000000000826131a0565b60005b6005811015612548576000898152600a602090815260408083208484528252808320805482518185028101850190935280835291929091908301828280156123bb57602002820191906000526020600020905b81546001600160a01b0316815260019091019060200180831161239d575b505050505090506000600960008c815260200190815260200160002083815481106123e8576123e8613a02565b6000918252602080832060408051808201909152600290930201805480845260019091015460ff161515918301919091529092506127109061242a908a613a6b565b6124349190613a44565b905060008351826124459190613a44565b905060005b845181101561253757600085828151811061246757612467613a02565b60200260200101516001600160a01b031683600067ffffffffffffffff81111561249357612493613a9b565b6040519080825280601f01601f1916602001820160405280156124bd576020820181803683370190505b506040516124cb9190613ad5565b60006040518083038185875af1925050503d8060008114612508576040519150601f19603f3d011682016040523d82523d6000602084013e61250d565b606091505b505090508061252e5782601260008282546125289190613a58565b90915550505b5060010161244a565b50506001909301925061234a915050565b5060408051898152602081018690527f390a412d60a41cb44637e108b2d7355311c3fb9743aef221b4958b29c5b590a8910160405180910390a15050505050505050565b6003818154811061259c57600080fd5b9060005260206000209060209182820401919006915054906101000a900460ff1681565b33600090815260066020526040902054819060ff166125f1576040516282b42960e81b815260040160405180910390fd5b801580159061261757506000818152600860205260409020546001600160a01b03163314155b15612634576040516282b42960e81b815260040160405180910390fd5b81600280612641836112bc565b600681111561265257612652613743565b146126705760405163263ab1ff60e11b815260040160405180910390fd5b600084815260086020526040902060060154156126a05760405163ba26162b60e01b815260040160405180910390fd5b6126af60018560006003612b5b565b50600084815260086020526040908190206001600690910155517f50ad08f58a27f2851d7e3a1b3a6a46b290f2ce677e99642d30ff639721e77790906116ec9086815260200190565b6127006132fc565b61270981613351565b50565b3360009081526005602052604090205460ff1661273b576040516282b42960e81b815260040160405180910390fd5b60005b8181101561278457600d83838381811061275a5761275a613a02565b8354600180820186556000958652602095869020929095029390930135920191909155500161273e565b50600d546040805183815260208101929092527f177b4d4352d7390f8b4072e4704932d89b61ed3feb0e68be4b2e329a05c0e3899101611494565b33600090815260066020526040812054829060ff166127f0576040516282b42960e81b815260040160405180910390fd5b801580159061281657506000818152600860205260409020546001600160a01b03163314155b15612833576040516282b42960e81b815260040160405180910390fd5b82600380612840836112bc565b600681111561285157612851613743565b1461286f5760405163263ab1ff60e11b815260040160405180910390fd5b60008581526008602052604090206006015460028110156128a357604051630be4981d60e11b815260040160405180910390fd5b60006128ae876133fa565b905080156128f3576040518781527e66784f5eb6c952749f91053c22ea083dd3cb766913c0733aa779dcc724f60e9060200160405180910390a1600095505050612b15565b6000878152600b602052604081205461290d90604b613af1565b6000898152600b60205260408120549192509061292a8386613a58565b60405160200161293c91815260200190565b6040516020818303038152906040528051906020012060001c61295f9190613b04565b60008a8152600b602052604090208054919250908290811061298357612983613a02565b6000918252602080832081830401548c8452600c8252604080852060ff601f9095166101000a90920484168086529190925292205491995016156129c9576129c9613b18565b6000898152600b6020526040902080546129e590600190613af1565b815481106129f5576129f5613a02565b90600052602060002090602091828204019190069054906101000a900460ff16600b60008b81526020019081526020016000208281548110612a3957612a39613a02565b90600052602060002090602091828204019190066101000a81548160ff021916908360ff160217905550600b60008a8152602001908152602001600020805480612a8557612a85613b2e565b6000828152602080822060001993909301818104909301805460ff601f86166101000a810219909116909155929093558b8152600c83526040808220928c1680835292845290819020805460ff1916600117905580518c8152928301919091527fafc498d7d3d2c521010ee0e69decf620932eb8965a8620d33f15964611b501bf910160405180910390a1505050505b505050919050565b600f6020528260005260406000206020528160005260406000208181548110612b4557600080fd5b9060005260206000200160009250925050505481565b6000806040518060c001604052807f000000000000000000000000000000000000000000000000000000000000000081526020017f00000000000000000000000000000000000000000000000000000000000000008152602001600361ffff1681526020017f000000000000000000000000000000000000000000000000000000000000000063ffffffff1681526020018763ffffffff168152602001612c126040518060200160405280600015158152506134c9565b9052600254604051634d8e1c2f60e11b81529192506001600160a01b031690639b1c385e90612c45908490600401613b44565b6020604051808303816000875af1158015612c64573d6000803e3d6000fd5b505050506040513d601f19601f82011682018060405250810190612c889190613bc6565b91506040518060600160405280868152602001856001600160a01b03168152602001846003811115612cbc57612cbc613743565b905260008381526004602090815260409182902083518155908301516001820180546001600160a01b039092166001600160a01b031983168117825593850151929390916001600160a81b03191617600160a01b836003811115612d2257612d22613743565b0217905550506040805184815263ffffffff891660208201527fcc58b13ad3eab50626c6a6300b1d139cd6ebb1688a7cced9461c2f7e762665ee92500160405180910390a150949350505050565b600083815260046020908152604080832081516060810183528154815260018201546001600160a01b03811694820194909452929091830190600160a01b900460ff166003811115612dc457612dc4613743565b6003811115612dd557612dd5613743565b9052509050600081604001516003811115612df257612df2613743565b03612e1357604051630cbe368560e21b815260048101859052602401610ec5565b600181604001516003811115612e2b57612e2b613743565b148015612e7a575080516000908152600f60209081526040808320828501516001600160a01b0316845290915281208054909190612e6b57612e6b613a02565b90600052602060002001546001145b15612f2f5760005b82811015612f29576000848483818110612e9e57612e9e613a02565b9050602002013590506000612eb784600001518361353a565b84516000908152600e602090815260408083208484528252808320805460ff1916600117905587518352600f8252808320828901516001600160a01b0316845290915290208054919250829185908110612f1357612f13613a02565b6000918252602090912001555050600101612e82565b50613132565b600281604001516003811115612f4757612f47613743565b0361309f5760001960005b82516000908152600f60209081526040808320828701516001600160a01b03168452909152902054811015612fdc5782516000908152600f60209081526040808320828701516001600160a01b031684529091529020805482908110612fba57612fba613a02565b9060005260206000200154600103612fd457809150612fdc565b600101612f52565b506000198103612fff57604051630479201160e41b815260040160405180910390fd5b60008484600081811061301457613014613a02565b905060200201359050600061302d84600001518361353a565b84516000908152600e602090815260408083208484528252808320805460ff1916600117905587518352600f8252808320828901516001600160a01b031684529091529020805491925082918590811061308957613089613a02565b9060005260206000200181905550505050613132565b6003816040015160038111156130b7576130b7613743565b1480156130d7575080516000908152600860205260409020600601546001145b1561311957828260008181106130ef576130ef613a02565b90506020020135600860008360000151815260200190815260200160002060060181905550613132565b604051636d08029760e01b815260040160405180910390fd5b8060400151600381111561314857613148613743565b602082810151604080518881526001600160a01b03909216928201929092529081018490527f3fd696057e834a199da5561585aa71f4aca3ffdf15ccd268fb3b41fd86c1326a9060600160405180910390a250505050565b604080516000808252602082019092526001600160a01b0384169083906040516131ca9190613ad5565b60006040518083038185875af1925050503d8060008114613207576040519150601f19603f3d011682016040523d82523d6000602084013e61320c565b606091505b5050905080610ed9576040516312171d8360e31b815260040160405180910390fd5b600082600103613240575060006132f5565b600061324d836005613af1565b90506000805b60058110156132ed576000805b60058110156132cf576000898152600c6020908152604080832060ff808d168086529190935292205460089a909a1c99168061329d575060ff8116155b156132b057826132ac81613a82565b9350505b826005036132c657846132c281613a82565b9550505b50600101613260565b508383106132e45760019450505050506132f5565b50600101613253565b506000925050505b9392505050565b6000546001600160a01b0316331461334f5760405162461bcd60e51b815260206004820152601660248201527527b7363c9031b0b63630b1363290313c9037bbb732b960511b6044820152606401610ec5565b565b336001600160a01b038216036133a95760405162461bcd60e51b815260206004820152601760248201527f43616e6e6f74207472616e7366657220746f2073656c660000000000000000006044820152606401610ec5565b600180546001600160a01b0319166001600160a01b0383811691821790925560008054604051929316917fed8889f560326eb138920d842192f0eb3dd22b4f139c87a2c57538e05bae12789190a350565b6000805b60058110156134c357600083815260096020526040902080548290811061342757613427613a02565b600091825260209091206001600290920201015460ff1615801561346357506000838152600a6020908152604080832084845290915290205415155b156134bb5760008381526009602052604090208054600191908390811061348c5761348c613a02565b60009182526020822060029190910201600101805460ff1916921515929092179091558190036134bb57600191505b6001016133fe565b50919050565b60607f92fd13387c7fe7befbc38d303d6468778fb9731bc4583f17d92989c6fcfdeaaa8260405160240161350291511515815260200190565b60408051601f198184030181529190526020810180516001600160e01b03166001600160e01b03199093169290921790915292915050565b600d8054600091906135509061ffff8516613b04565b8154811061356057613560613a02565b906000526020600020015490505b6000838152600e6020908152604080832084845290915290205460ff16156135cb57600d805460109390931c926135a99061ffff8516613b04565b815481106135b9576135b9613a02565b9060005260206000200154905061356e565b92915050565b82805482825590600052602060002090601f0160209004810192821561361f57600052602060002091601f016020900482015b8281111561361f578254825591600101919060010190613604565b5061362b92915061362f565b5090565b5b8082111561362b5760008155600101613630565b60006020828403121561365657600080fd5b5035919050565b6000806040838503121561367057600080fd5b50508035926020909101359150565b60008083601f84011261369157600080fd5b50813567ffffffffffffffff8111156136a957600080fd5b6020830191508360208260051b85010111156136c457600080fd5b9250929050565b6000806000604084860312156136e057600080fd5b83359250602084013567ffffffffffffffff8111156136fe57600080fd5b61370a8682870161367f565b9497909650939450505050565b60008060006060848603121561372c57600080fd5b505081359360208301359350604090920135919050565b634e487b7160e01b600052602160045260246000fd5b602081016007831061376d5761376d613743565b91905290565b80356001600160a01b038116811461378a57600080fd5b919050565b6000602082840312156137a157600080fd5b6132f582613773565b600080604083850312156137bd57600080fd5b823591506137cd60208401613773565b90509250929050565b600080604083850312156137e957600080fd5b6137f283613773565b91506020830135801515811461380757600080fd5b809150509250929050565b6000806000806040858703121561382857600080fd5b843567ffffffffffffffff8082111561384057600080fd5b61384c8883890161367f565b9096509450602087013591508082111561386557600080fd5b506138728782880161367f565b95989497509550505050565b60008060008060008060a0878903121561389757600080fd5b86359550602087013594506040870135935060608701359250608087013567ffffffffffffffff8111156138ca57600080fd5b6138d689828a0161367f565b979a9699509497509295939492505050565b6020808252825182820181905260009190848201906040850190845b8181101561392057835183529284019291840191600101613904565b50909695505050505050565b6000806040838503121561393f57600080fd5b82359150602083013560ff8116811461380757600080fd5b60008060006060848603121561396c57600080fd5b8335925061397c60208501613773565b9150604084013590509250925092565b8381526001600160a01b038316602082015260608101600483106139b2576139b2613743565b826040830152949350505050565b600080602083850312156139d357600080fd5b823567ffffffffffffffff8111156139ea57600080fd5b6139f68582860161367f565b90969095509350505050565b634e487b7160e01b600052603260045260246000fd5b634e487b7160e01b600052601260045260246000fd5b634e487b7160e01b600052601160045260246000fd5b600082613a5357613a53613a18565b500490565b808201808211156135cb576135cb613a2e565b80820281158282048414176135cb576135cb613a2e565b600060018201613a9457613a94613a2e565b5060010190565b634e487b7160e01b600052604160045260246000fd5b60005b83811015613acc578181015183820152602001613ab4565b50506000910152565b60008251613ae7818460208701613ab1565b9190910192915050565b818103818111156135cb576135cb613a2e565b600082613b1357613b13613a18565b500690565b634e487b7160e01b600052600160045260246000fd5b634e487b7160e01b600052603160045260246000fd5b60208152815160208201526020820151604082015261ffff60408301511660608201526000606083015163ffffffff80821660808501528060808601511660a0850152505060a083015160c08084015280518060e0850152610100613baf8282870160208601613ab1565b80601f19601f840116860101935050505092915050565b600060208284031215613bd857600080fd5b505191905056fea164736f6c6343000818000a",
  "linkReferences": {},
  "deployedLinkReferences": {}
}